:020000040000fa
:080000000002040000000000f2
:020000040000fa
:04000800d002000022
:020000040000fa
:04000c00d00200001e
:020000040000fa
:04001000d00200001a
:020000040000fa
:04001400d002000016
:020000040000fa
:04001800d002000012
:020000040000fa
:04001c00d00200000e
:020000040000fa
:04002000d00200000a
:020000040000fa
:04002400d002000006
:020000040000fa
:04002800d002000002
:020000040000fa
:04002c00d0020000fe
:020000040000fa
:04003000d0020000fa
:020000040000fa
:04003400981a000016
:020000040000fa
:04003800d0020000f2
:020000040000fa
:04003c00d0020000ee
:020000040000fa
:04004000d0020000ea
:020000040000fa
:04004400d0020000e6
:020000040000fa
:04004800d0020000e2
:020000040000fa
:04004c00d0020000de
:020000040000fa
:04005000d0020000da
:020000040000fa
:040054005c17000035
:020000040000fa
:04005800d0020000d2
:020000040000fa
:04005c00d0020000ce
:020000040000fa
:04006000d0020000ca
:020000040000fa
:04006400d0020000c6
:020000040000fa
:04006800d0020000c2
:020000040000fa
:04006c00d0020000be
:020000040000fa
:04007000d0020000ba
:020000040000fa
:04007400d0020000b6
:020000040000fa
:04007800d0020000b2
:020000040000fa
:04007c00d0020000ae
:020000040000fa
:04008000d0020000aa
:020000040000fa
:04008400d0020000a6
:020000040000fa
:04008800d0020000a2
:020000040000fa
:04008c00d00200009e
:020000040000fa
:04009000d00200009a
:020000040000fa
:04009400d002000096
:020000040000fa
:04009800d002000092
:020000040000fa
:04009c00d00200008e
:020000040000fa
:0400a000d00200008a
:020000040000fa
:0400a400d002000086
:020000040000fa
:0400a800d002000082
:020000040000fa
:0400ac00d00200007e
:020000040000fa
:0400b000d00200007a
:020000040000fa
:0400b400d002000076
:020000040000fa
:0400b800d002000072
:020000040000fa
:0400bc00d00200006e
:020000040000fa
:0400c000d00200006a
:020000040000fa
:0400c400d002000066
:020000040000fa
:0400c800d002000062
:020000040000fa
:0400cc00d00200005e
:020000040000fa
:0400d000d00200005a
:020000040000fa
:0400d400d002000056
:020000040000fa
:0400d800d002000052
:020000040000fa
:0400dc00d00200004e
:020000040000fa
:0400e000d00200004a
:020000040000fa
:0400e400d002000046
:020000040000fa
:0400e800d002000042
:020000040000fa
:0400ec00d00200003e
:020000040000fa
:0400f000d00200003a
:020000040000fa
:0400f400d002000036
:020000040000fa
:0400f800d002000032
:020000040000fa
:0400fc00d00200002e
:020000040000fa
:04010000d002000029
:020000040000fa
:04010400d002000025
:020000040000fa
:04010800d002000021
:020000040000fa
:04010c00d00200001d
:020000040000fa
:04011000d002000019
:020000040000fa
:04011400d002000015
:020000040000fa
:04011800d002000011
:020000040000fa
:04011c00d00200000d
:020000040000fa
:04012000d002000009
:020000040000fa
:04012400d002000005
:020000040000fa
:04012800d002000001
:020000040000fa
:04012c00d0020000fd
:020000040000fa
:04013000d0020000f9
:020000040000fa
:04013400d0020000f5
:020000040000fa
:04013800d0020000f1
:020000040000fa
:04013c00d0020000ed
:020000040000fa
:04014000d0020000e9
:020000040000fa
:04014400d0020000e5
:020000040000fa
:04014800d0020000e1
:020000040000fa
:04020800d002000020
:020000040000fa
:04020c00d00200001c
:020000040000fa
:04021000d002000018
:020000040000fa
:04021400d002000014
:020000040000fa
:04021800d002000010
:020000040000fa
:04021c00d00200000c
:020000040000fa
:04022000d002000008
:020000040000fa
:04022400d002000004
:020000040000fa
:04022800d002000000
:020000040000fa
:04022c00d0020000fc
:020000040000fa
:04023000d0020000f8
:020000040000fa
:04023400d0020000f4
:020000040000fa
:04023800d0020000f0
:020000040000fa
:04023c00d0020000ec
:020000040000fa
:04024000d0020000e8
:020000040000fa
:04024400d0020000e4
:020000040000fa
:04024800d0020000e0
:020000040000fa
:04024c00d0020000dc
:020000040000fa
:04025000d0020000d8
:020000040000fa
:04025400d0020000d4
:020000040000fa
:04025800d0020000d0
:020000040000fa
:04025c00d0020000cc
:020000040000fa
:04026000d0020000c8
:020000040000fa
:04026400d0020000c4
:020000040000fa
:04026800d0020000c0
:020000040000fa
:04026c00d0020000bc
:020000040000fa
:04027000d0020000b8
:020000040000fa
:04027400d0020000b4
:020000040000fa
:04027800d0020000b0
:020000040000fa
:04027c00d0020000ac
:020000040000fa
:04028000d0020000a8
:020000040000fa
:04028400d0020000a4
:020000040000fa
:04028800d0020000a0
:020000040000fa
:04028c00d00200009c
:020000040000fa
:04029000d002000098
:020000040000fa
:04029400d002000094
:020000040000fa
:04029800d002000090
:020000040000fa
:04029c00d00200008c
:020000040000fa
:0402a000d002000088
:020000040000fa
:0402a400d002000084
:020000040000fa
:0402a800d002000080
:020000040000fa
:0402ac00d00200007c
:020000040000fa
:0402b000d002000078
:020000040000fa
:0402b400d002000074
:020000040000fa
:0402b800d002000070
:020000040000fa
:0402bc00d00200006c
:020000040000fa
:0402c000d002000068
:020000040000fa
:0402c400d002000064
:020000040000fa
:0402c800d002000060
:020000040000fa
:0402cc00d00200005c
:020000040000fa
:0402d000d002000058
:020000040000fa
:0402d400d002000054
:020000040000fa
:0402d800d002000050
:020000040000fa
:0402dc00d00200004c
:020000040000fa
:0402e000d002000048
:020000040000fa
:0402e400d002000044
:020000040000fa
:0402e800d002000040
:020000040000fa
:0402ec00d00200003c
:020000040000fa
:0402f000d002000038
:020000040000fa
:0402f400d002000034
:020000040000fa
:0402f800d002000030
:020000040000fa
:0402fc00d00200002c
:020000040000fa
:04030000d002000027
:020000040000fa
:04030400d002000023
:020000040000fa
:04030800d00200001f
:020000040000fa
:04030c00d00200001b
:020000040000fa
:04031000d002000017
:020000040000fa
:04031400d002000013
:020000040000fa
:04031800d00200000f
:020000040000fa
:04031c00d00200000b
:020000040000fa
:04032000d002000007
:020000040000fa
:04032400d002000003
:020000040000fa
:04032800d0020000ff
:020000040000fa
:04032c00d0020000fb
:020000040000fa
:04033000d0020000f7
:020000040000fa
:04033400d0020000f3
:020000040000fa
:04033800d0020000ef
:020000040000fa
:04033c00d0020000eb
:020000040000fa
:04034000d0020000e7
:020000040000fa
:04034400d0020000e3
:020000040000fa
:04034800d0020000df
:020000040000fa
:100400006fb820000e7f22000e018800000000005f
:10041000000020000000e000020032000001200087
:1004200020028800140007005f0007000000e000c1
:1004300003003a0060d921000100200002003700cb
:100440000000200001002000810f70000100320038
:1004500014000700000020000000e000020032004d
:100460000000020000000000021f02000000000067
:100470000040da000000fe004440a900401d2000ba
:100480000000e0000300320000002000a00188000e
:100490004440a800000006008a1f78008b1f7800e7
:1004a0000000060091018800800478000000eb0045
:1004b0001a003700e284440032a0b4009905ba0063
:1004c000e284440032a0b4009906ba00e2844400f9
:1004d00032a0b4000006eb00476fde00fd07b2005b
:1004e000636ce10003003a00ebff07000000eb0043
:1004f0000a003700606ce10004003a00005deb0088
:100500008b05e900fdff3e00040037006168e10053
:10051000010032000086eb000b00070019c7ba008b
:100520001905ba000e04e00003003a000a00e000da
:10053000e0ff3a0000000600fe07b2009e018800be
:100540008a047800f5ff3700395dba008b05e900b1
:100550000c003200295dba008b05e900080032006a
:100560000c00e00003003a00e284440032a0b40032
:10057000f5ff370019ddba008b05e900faff3a00f4
:100580008904e800e184440032a0b40000000600c1
:10059000000000000000000000000000000000005b
:1005a0000040da000000fe000000050003f0a20099
:1005b000889fbe008a9fbe008c1f7800b80007008d
:1005c000bf0033006450e1004f0032006420e100be
:1005d0005200320003826c0007003b000905d00086
:1005e0000306d000820f54000c065d0002003900a3
:1005f00002003200890178000306780085825500e8
:1006000004003d000003fd008103fd008502ea00b7
:100610008b854200840f720002003b0060001000d6
:10062000e08018006011b8000005eb007a28e100b6
:100630000a00390006007800c75ddd00f707b20048
:10064000878075002d003700828171000a017800d3
:10065000610560008180d1000080d3008502e9003f
:10066000f9ff3b00060440008784480002003b007d
:1006700060041400e0841c000988a3000700320015
:100680008a81710082817100610164008904d10056
:100690000884d3008b05e800170037000978a30011
:1006a00013003a000b00e000130034008b05e90052
:1006b0000804440089844c000a4474000978a300ab
:1006c0000d003a000b00e000070034008b05e90044
:1006d0000804440089844c0001003a000b0020000b
:1006e0000978a300f7ff32000001eb000200370099
:1006f000828171000a0178002e0007000cf0a7002b
:1007000001f0a000770037006420e10002003a0009
:10071000838f6c00770033000801be000200be002a
:10072000700037000001be00480007000470a700f9
:1007300003f0a1006509b100160032000d0035007c
:100740006828e10006003500f0ff2f00f1ff2700c8
:100750000300e00013003b0001002800000005003a
:1007600000004000818048008502e900fcff3a005b
:1007700008003700f88f420002003c008000eb00c8
:10078000000005008100d1000080d3008502e80050
:10079000fcff3a000300e00002003b006000100094
:1007a000e0801800000006004f89de00820178001a
:1007b0008700370081002000618055000b003d005c
:1007c0000b00200061fe2f000100e1001d0034003d
:1007d00082817100610164008904d1000884d30022
:1007e0000000e800faff3a00710020006100640098
:1007f0000300700002006000090032006104440040
:10080000e0844c000988a500050032008b05e80053
:100810006808e10002003a008904d1000884d3008e
:10082000f20f20000258e10005003d00c75ddd0029
:10083000f907b20089807500080078000000060002
:100840000bf827008b00780000000500c70ade00c7
:10085000f107b200f50fb20008003200e1cf42000c
:10086000020032000170a00024000500810f70001a
:10087000010032000408050044000500810f7000eb
:1008800002003a00140005008502e9000000400063
:1008900081c04800fcff3b000170a000240005005f
:1008a0000004be00e9ff07000003be000405be000f
:1008b0000200be00e5ff0700844f7500000006003f
:1008c0000200be006450e100050036006420e10033
:1008d000020036000968a30001003a000800be00cb
:1008e0000160a0004f0678004f05be004f04be0017
:1008f00000000600f0ff2f00f1ff2700f9ff37008e
:10090000889fbe008a9fbe008c1f7800e4ff07000e
:10091000ebff330003866c006450e10024003200da
:100920006420e100270032006150e1002200320023
:100930006120e100210032008b854200eb07b1000d
:100940000134b800003ab8000804420089844a0023
:10095000013ab8000030b8008880400009014a0020
:10096000040033000000400081804800020149007b
:100970008b05e900c909dd00830170000100320028
:1009800013002000c814de004814dd004709de0013
:100990001200b200c808de000884700085ff07005e
:1009a00001f0a1000cf0a70001f0a000cdff37007e
:1009b0006120e100cfff32000801be000200be004e
:1009c000f7ff37006150e100fcff3a00c9ff370034
:1009d000881f7800030478000300e00007003d0052
:1009e00060001000e080180060011900e08119002b
:1009f00002003b0001f02d00030037000400070057
:100a000008f0a70001f0a0004f04780000000600e5
:100a1000889fbe008a9fbe000082700004027100a1
:100a200004827100260032000004be000200be00f5
:100a30006011b8006b092000950220000182cf00f0
:100a40000a0039000541b1000082cf0007003900db
:100a50000541b1000982cf00040039000541b10011
:100a60000882cf00010039000541b1000542520063
:100a7000120032000a003b008281710061016400b3
:100a80008100d1000080d3008984d3000884d30082
:100a90008b05e8000442e800f7ff3a000700370042
:100aa0000804440089844c0000004800818048000c
:100ab0008b05e9000442e900f9ff3a003dff070019
:0c0ac0004f05be004f04be000000060001
:020000040000fa
:100acc000d0a00004c650000732000006f700000e0
:100adc00636900006f6e0000732000006465000005
:100aec00207400006573000074200000736f000018
:100afc006e3a00000d0a0000000000000d0a000014
:100b0c0000000000312d0000496e000074720000de
:100b1c006f6400007569000072200000756e0000a3
:100b2c00206e00006f7500002069000064650000f5
:100b3c006e74000069660000696300006164000067
:100b4c006f7200000d0a000000000000322d000042
:100b5c00436f00006e730000756c00007461000040
:100b6c007220000049440000206100006374000002
:100b7c00756100006c0d00000a00000000330000dd
:100b8c002d4300006f6e0000737500006c74000044
:100b9c006172000020740000726100006d6500003d
:100bac007320000069640000656e00007469000029
:100bbc00666900006361000064650000730d00004d
:100bcc000a000000003400002d4300006f6e00008e
:100bdc00737500006c7400006172000020740000da
:100bec00726100006d6500007320000072650000ea
:100bfc006275000064650000730d00000a000000bf
:100c0c00003500002d56000069730000756100006e
:100c1c006c6900007a610000722000006c270000f3
:100c2c00756c0000746900006d2000006d69000097
:100c3c00737300006174000067650000207200008f
:100c4c0065620000757400000d0a000000000000d1
:100c5c000d0a0000005000006572000020730000b7
:100c6c006f7200007469000072200000646500005f
:100c7c0020710000756100006c7300006576000047
:100c8c006f6c0000206f000070630000696f000043
:100c9c002c20000070720000656d000020450000e3
:100cac00534300000d0a0000000a00000d50000024
:100cbc006c61000063610000206700007275000029
:100ccc007020000037370000392e00002053000040
:100cdc0069730000746500006d65000073200000ee
:100cec004469000067690000746100006c730000c7
:100cfc002069000020750000507200006f63000036
:100d0c006573000073610000646f00007273000073
:100d1c000d0a0000000000004d6500006e7500001b
:100d2c002064000065200000736500006c65000005
:100d3c0063630000696f00000d0a000000000000f2
:100d4c004861000073200000696e0000747200009e
:100d5c006f6400007569000074200000656c000071
:100d6c0020490000443a00002000000049440000e3
:100d7c003a20000000500000423100003a200000f0
:100d8c00000000000a0d0000496e000074720000a3
:100d9c006f64000075650000697800002076000023
:100dac00616c00006f720000206400006520000080
:100dbc006c610000206e00006f7600006120000066
:100dcc00696e0000746500006e73000069740000a9
:100ddc006174000020280000302d00003429000030
:100dec003a0a00000d000000576100006974000011
:100dfc00696e000067200000666f00007220000022
:100e0c00494400002020000000490000442000005c
:100e1c0073650000742000002020000020200000da
:100e2c002020000020200000200000004e65000063
:100e3c00772000004d6500007373000061670000af
:100e4c006520000020200000202000000000000091
:100e5c00426f00006f740000696e0000672e000086
:080e6c002e2e00000000000022
:020000040000fa
:100e74000200fa00000f78009e007800803e2000f7
:100e840000017800110009008200d8008040780039
:100e940020b320000148780020b3200010407800df
:100ea4008000fb0080c12f000088b900000078009a
:100eb4001e0f40009e0078004006200000017800cc
:100ec400110009008200d8008040780030b320006f
:100ed4000148780030b32000104078008000fb0007
:100ee400c0f92f000088b900000078001e0f4000f0
:100ef4009e007800a0002000000178001100090085
:100f04008200d8008040780040b320000148780077
:100f140040b32000104078008000fb0060ff2f00e9
:100f24000088b900000078001e0f40001e00780001
:100f3400004078000043b0008040780050b32000a7
:100f44000148780060b320008040eb00014878003d
:100f540040b32000104078000043b0008040780087
:100f640040b320000148780030b3200010407800de
:100f74000043b0008040780030b32000014878007e
:100f840020b32000104078000043b0008040780077
:100f940020b32000014878000080fa000000060019
:100fa4000000fa0060562800540707004058280043
:100fb400520707008058280050070700c05a28002d
:100fc4004e070700505c28004c070700905e28007d
:100fd4004a0707007060280048070700e0622800fd
:100fe4004607070010632800440707000080fa0042
:100ff400000006000200fa00004f78001e80fb008b
:1010040041b62000614078000080fa00000006002c
:101014000000fa0040b620000080fa00000006003c
:101024000400fa00000f780021479800ae409000b9
:1010340040b620001e004000014878000080fa00fd
:10104400000006000200fa00000f7800e0b720005c
:101054001e004000104078000080fa0000000600e6
:101064000000fa0020b320000080fa00000006000f
:101074000000fa00b0652800200707002069280056
:101084001e070700c6ff07000028ef006b090700d2
:101094000040780002e8b7000368ef0040b6200083
:1010a400a1c3b3000148780050b62000a1c3b30027
:1010b4000148780060b62000a1c3b300014878005d
:1010c40070b6200001c3b3000148780080b6200048
:1010d400a1c0b3000148780090b620008040eb0026
:1010e40001487800c9a2a8000080fa0000000600a8
:1010f4000000fa0004c8bf006b0907000080fa0072
:10110400000006000000fa0003c8bf000000fb0056
:10111400e20f500076003200e20f500005003c0060
:101124000000e0000a003200e10f500031003200fc
:10113400be003700e40f50008f003200e40f50006f
:1011440072003500e50f5000b3003200b7003700dd
:10115400f00607000000e00016003200f206070067
:1011640005e8b700518020009140780070c3b300b7
:1011740080cf50000b003c0051802000914078004b
:1011840000c3b30080cf50000600340005c8bf0080
:101194008040780000cdb30000c0400003e8b700f1
:1011a40004003700d0c0b300e306070005c8bf0041
:1011b400e106070002c8bf0045090700813e200080
:1011c400810f50009d00360002c8bf003609070099
:1011d400004080000000e8000040880001408000da
:1011e40000712200808f500096003a000028ef0022
:1011f400a1003700c70607000000e000930032009a
:1012040070b620009040780000c3b30080cf500037
:101214002a003a0040b6200090407800a0c3b300f2
:1012240080cf500004003a00bf06070041b62000fa
:10123400804878009000370050b620009040780035
:10124400a0c3b30080cf500004003a00b6060700e4
:1012540051b62000804878008700370060b620002f
:1012640090407800a0c3b30080cf500004003a003f
:10127400ad06070061b62000804878007e00370084
:10128400a9060700fb4f500072003a0070b6200018
:10129400d1c0b30001487800606a280097060700af
:1012a40040b62000950607003dff07000368ef00e5
:1012b40030c0b300ba0007006f00370070b62000da
:1012c40001c3b3000148780040b62000a1c3b300b5
:1012d4000148780050b62000a1c3b300014878004b
:1012e40060b62000a1c3b300014878006200370053
:1012f400c06b28008106070040b620007f06070067
:1013040027ff07000368ef005b00370002c8bf0037
:10131400ef080700411f2000810f50000d00360028
:1013240002c8bf00e0080700d0c0b300820607006f
:10133400106c280071060700501680004d00de0076
:10134400614060000043b0007b060700f0c1b300b9
:1013540003e8b7006f0607000000e0003f0032001a
:1013640071060700fb4f50003e003a000cff0700d7
:101374000368ef004000370002c8bf00d40807002c
:10138400813e2000810f50001a00360002c8bf00c1
:10139400c5080700004080000000e8000040880005
:1013a4000140800000712200808f500001003a004b
:1013b4000028ef00d0c0b3005f0607004a0a070008
:1013c4000000fb006500b90000007800a8fe0700db
:1013d40030b32000104078005706070040b32000c7
:1013e400104078005406070050b3200010407800e5
:1013f40051060700470607000000e0001b0032000a
:1014040049060700fb4f50001a003a00e4fe0700ab
:101414000368ef0018003700806c280037060700c7
:1014240030c3b30003e8b70013003700dcfe070045
:101434000368ef00000000000f0037000000000008
:101444000d003700000000000b0037000000000012
:10145400090037000000000007003700000000000a
:101464000500370000000000030037000000000002
:1014740001003700000000000080fa0000000600b0
:101484000200fa00000f78001e007800cf80de0012
:10149400c4fc07000200200003fe230017fd070020
:1014a400020020008334240040fc07009cfc070059
:1014b400000078000080fa00000006000000fa0036
:1014c4005e0807000040780007e8b7005b080700e3
:1014d4000040780004e8b7000868ef000968ef00ee
:1014e400c00107000b68ef0010c0b3000de8b7009f
:1014f4000e68ef00a0b6200001c2b30001487800d6
:10150400b0b6200001c2b30001487800c0b6200084
:10151400f1c2b30001487800f0b6200001c2b30064
:101524000148780000b7200001c2b30001487800e8
:1015340010b7200001c2b3000148780020b7200092
:1015440001c2b3000148780050b7200001c2b300c3
:10155400014878000080fa00000006000000fa004c
:10156400600507000000e0000800340004c8bf0064
:101574005708070071382100810f5000030036001e
:101584001109070010c0b300030037000b68ef0017
:101594000968ef000040eb000080fa00000006003c
:1015a4000200fa00004f78001e417800d18020002c
:1015b400824878000080fa00000006000000fa006b
:1015c400881f780006c8bf000000fb00e20f50002f
:1015d400d6003200e20f500005003c000000e0009d
:1015e4000a003200e10f500053003200220137009c
:1015f400e40f5000ed003200e40f5000e00035002d
:10160400e50f5000f90032001b01370007c8bf0086
:101614002f08070000047800f009070098ff07006e
:10162400800f54000b013600ccff07000004e000db
:101634001100320027050700b18020009140780096
:101644008180fb000100400010407800b7010700d2
:101654000bc8bf000040e8000be8b7000bc8bf0090
:101664000084fb001f050700800f54002400350090
:101674000b68ef00220037000dc8bf00e14f500097
:1016840006003a000cc8bf000080fb00a16f2800d0
:1016940061407800a5010700120037000dc8bf00a3
:1016a400e24f500007003a00140907000cc8bf00bd
:1016b4000080fb00c1712800614078009b01070095
:1016c400080037000dc8bf00e34f500005003a0082
:1016d4000cc8bf000080fb00b17028006140780096
:1016e400920107000cc8bf000040e8000ce8b700f6
:1016f4000cc8bf00f04f500001003a000c68ef0026
:101704000ac8bf000040e8000ae8b7000ac8bf00e2
:10171400f04f5000d100360010c0b30006e8b70007
:1017240007c8bf00e007070011c0b3000040eb008a
:1017340041010700d000370040b6200090407800f7
:10174400a0c3b30080cf500025003a00e0b72000ca
:101754009040780080c3b30080cf500004003c0068
:10176400e0b72000104078000040e8000100370096
:1017740000c3b300e1b7200080487800f0b7200030
:101784009040780080c3b30080cf500004003c0038
:10179400f0b72000104078000040e8000100370056
:1017a40000c3b300f1b720008048780000b82000df
:1017b4009040780080c3b30080cf500004003c0008
:1017c40000b82000104078000040e8000100370015
:1017d40000c3b30001b82000804878003600370009
:1017e400e0b720009040780040b620001040780018
:1017f40080cf50000c003200e0b720009040780009
:1018040080c3b30080cf500004003c00e0b7200048
:10181400104078000040e8000100370000c3b30026
:10182400e1b7200080487800f0b7200090407800ad
:1018340050b620001040780080cf50000c003200d9
:10184400f0b720009040780080c3b30080cf5000f0
:1018540004003c00f0b72000104078000040e8008d
:101864000100370000c3b300f1b7200080487800be
:1018740000b820009040780060b620001040780046
:1018840080cf50000c00320000b820009040780057
:1018940080c3b30080cf500004003c0000b8200097
:1018a400104078000040e8000100370000c3b30096
:1018b40001b820008048780010c0b3007b04070002
:1018c40080407800a0b62000014878000040eb007a
:1018d4007604070080407800b0b620000148780004
:1018e40010c0b3006704070080407800d0b6200021
:1018f400014878000040eb00620407008040780053
:10190400e0b620000148780030b7200001c2b300df
:101914000148780040b7200001c2b30001487800b4
:1019240020c0b30006e8b7005300370060b72000ba
:1019340001c2b30001487800e0b7200010407800ed
:101944008040780070b7200001487800f0b720008c
:10195400104078008040780080b72000014878006b
:1019640000b82000104078008040780090b7200034
:101974000148780030c0b30006e8b7003e003700e5
:1019840007c8bf005207070021032000810f500041
:101994003400360007c8bf00430707000a68ef0099
:1019a40040c0b30006e8b700330037000ac8bf00e0
:1019b4008080fb00a2b62000e2c078000040e8006e
:1019c4000ae8b70001407800d80007000ac8bf0041
:1019d400f04f50002500360050c0b30006e8b700b1
:1019e40007c8bf00300707002300370007c8bf003f
:1019f40037070700910f2000810f50001d003600ab
:101a0400380407000000e0000b00340009c8bf00e0
:101a14000040e80009e8b70009c8bf000084fb00e3
:101a240030040700800f5400010035000968ef00fe
:101a340009c8bf000be8b7000668ef008040eb0060
:101a44000040eb007c0007000a68ef000c68ef0020
:101a54000900370000000000070037000000000004
:101a640005003700000000000300370000000000fc
:101a740001003700000000004f0478000080fa00e5
:101a8400000006000400fa0020479800314798003f
:101a9400ea060700c04188002e40900034e8b700f1
:101aa4003e40900035e8b7003768ef0037c8bf0004
:101ab40036e8b700c8a2a900401680004500de0041
:101ac400614060000080fb004f00dd004216800092
:101ad400f1ff2700810061000100700040168800ba
:101ae400401680004f00de00004078000080fb00bc
:101af400610060004300dd00411680000130a10058
:101b040001007000401688000000eb00000f780010
:101b140029003700c041800041062000cf000700a3
:101b240030c0b3002a020700c041800051002000e9
:101b3400ca00070030c0b30025020700c04180007e
:101b440011002000c500070030c0b30020020700c8
:101b5400c041800011002000c000070020c0b30075
:101b64001b020700c041800011002000bb000700d9
:101b740080c2b3003b010700d801070080c0b30056
:101b840038010700d501070010c0b3003501070074
:101b9400c041800031002000b0000700cf010700e1
:101ba40060c0b3002f010700cc010700f0c0b300f0
:101bb4002c0107001e0fe8001e007800e10f500002
:101bc400d4ff34000080fa00000006000000fa0090
:101bd400c041800000407800cb0607000080fa0076
:101be400000006000000fa00bc01070010c0b300aa
:101bf4001c010700c041800031002000970007004d
:101c04000080fa00000006000000fa00b30107009b
:101c1400e0c0b300130107000080fa0000000600d2
:101c24000000fa00ad010700c0c0b3000d010700b9
:101c34000080fa00000006000400fa002047980023
:101c44003147980034c8bf000080fb00e20f500009
:101c540003003200e40f50000b0032002200370072
:101c64002e4090008000fb003e4090000004e00005
:101c740002003a000000eb000100370000042000dd
:101c8400008f40001d0037002e4090000000fb0034
:101c9400000f78003e409000e14f500003003a00ee
:101ca400010420001e8f4000140037003e409000c5
:101cb400e24f500004003a0035c8bf000080fb002a
:101cc4001e0f40000d0037003e409000e34f5000cf
:101cd40009003a0035c8bf000080fb000004b000d2
:101ce4001e0f4000050037002e4090000000fb004e
:101cf400000f7800010037000000000077010700a2
:101d04001e0078008040780000c8b30000c0700056
:101d1400d40007003e40900036e8b7002e40900003
:101d240037e8b7000080fa00000006000200fa005d
:101d3400004f7800690107001e4078001801070071
:101d440037c8bf000040e80037e8b70034c8bf0018
:101d5400e34f500010003a0037c8bf00f34f500063
:101d64002f0036003768ef0036c8bf000040e80097
:101d740036e8b70036c8bf00e34f50000100360014
:101d84003668ef0036c8bf008040780037c8bf000f
:101d9400a9ff07002200370034c8bf00e24f5000fb
:101da40012003a00718320009140780070c2b300a1
:101db40080cf50001a0036003768ef0036c8bf00e5
:101dc4000040e80036e8b70036c8bf00e14f5000d5
:101dd400010036003668ef0036c8bf008040780046
:101de40037c8bf0094ff07000d00370036c8bf0096
:101df400e14f50000a003a007183200091407800be
:101e040070c2b30080cf5000010036003768ef0085
:101e140036c8bf008040780037c8bf0086ff07007f
:101e24000080fa00000006000200fa00000f7800ab
:101e3400040037001e007800104078001e0fe800f0
:101e4400baff07001e007800104078000004e0008c
:101e5400f8ff3a000080fa00000006000400fa00cf
:101e6400000f7800110798001e00780000407800e9
:101e74000d060700000000001e00780000407800f6
:101e8400130607009e009000810f5000faff3900ee
:101e94000080fa00000006000200fa00004f7800fb
:101ea4001e80fb004700de00004078000080fb003d
:101eb400610060004900dd00611680000190a1000e
:101ec40001007000601688009e00fb0000042000e2
:101ed4000080600000f0a7000000ea000000ea00b3
:101ee4004f00de00004078000080fb0061006000cd
:101ef4004800dd00611680000180a100010070002f
:101f0400601688009e00fb00000220000080600034
:101f140000f0a7000000ea000000ea004f00de0025
:101f2400004078000080fb00610060004700dd0095
:101f3400611680000170a100010070006016880025
:101f44001e00fb007000600000f0a7000000ea0023
:101f54000000ea004f00de00004078000080fb0033
:101f6400610060004600dd00611680000160a10090
:101f740001007000601688000080fa00000006006e
:101f84000200fa00004f78001e00fb0068006000a9
:101f940000f0a7000000ea000000ea004f00de00a5
:101fa400004078000080fb00610060004900dd0013
:101fb400611680000190a100010070006016880085
:101fc4001e00fb006400600000f0a7000000ea00af
:101fd4000000ea004f00de00004078000080fb00b3
:101fe400610060004800dd00611680000180a100ee
:101ff40001007000601688001e00fb006200600093
:1020040000f0a7000000ea000000ea004f00de0034
:10201400004078000080fb00610060004700dd00a4
:10202400611680000170a100010070006016880034
:102034001e407800614060006140600061406000c3
:102044000080fb00610060004600dd006116800036
:102054000160a10001007000601688000080fa0091
:10206400000006000200fa00004f7800c922a9000f
:10207400401680004900de00614060000080fb00e3
:10208400610060004800dd00411680000180a1006d
:102094000100700040168800401680004800de00f1
:1020a400614060000080fb00610060004700dd00cb
:1020b400411680000170a1000100700040168800e4
:1020c400401680004700de00614060000080fb0095
:1020d400610060004600dd00411680000160a1003f
:1020e4000100700040168800cc62a900cde2a9006e
:1020f400cca2a8001e40780067ff0700cca2a8006d
:10210400cca2a900cca2a900cca2a8001e407800b1
:102114009bff0700cca2a800cca2a900c922a8005a
:10212400401680004900de00614060000080fb0032
:10213400610060004800dd00411680000180a100bc
:102144000100700040168800401680004800de0040
:10215400614060000080fb00610060004700dd001a
:10216400411680000170a100010070004016880033
:10217400401680004700de00614060000080fb00e4
:10218400610060004600dd00411680000160a1008e
:1021940001007000401688000080fa00000006006c
:1021a4000200fa00004f7800c922a90040168000fe
:1021b4004900de00614060000080fb0061006000b7
:1021c4004800dd00411680000180a100010070007c
:1021d40040168800401680004800de006140600020
:1021e4000080fb00610060004700dd0041168000b4
:1021f4000170a100010070004016880040168000a4
:102204004700de00614060000080fb006100600068
:102214004600dd00411680000160a100010070004d
:1022240040168800cc62a800cde2a900cca2a80088
:102234001e40780018ff0700cca2a800cca2a90079
:10224400cca2a900cca2a8001e4078004cff070035
:10225400cca2a800cca2a900c922a80040168000e4
:102264004900de00614060000080fb006100600006
:102274004800dd00411680000180a10001007000cb
:1022840040168800401680004800de00614060006f
:102294000080fb00610060004700dd004116800003
:1022a4000170a100010070004016880040168000f3
:1022b4004700de00614060000080fb0061006000b8
:1022c4004600dd00411680000160a100010070009d
:1022d400401688000080fa00000006000200fa00a0
:1022e400c922a800401680004900de006140600059
:1022f4000080fb00610060004800dd0041168000a2
:102304000180a10001007000401688004016800082
:102314004800de00614060000080fb006100600056
:102324004700dd00411680000170a100010070002b
:1023340040168800401680004700de0061406000bf
:102344000080fb00610060004600dd004116800053
:102354000160a1000100700040168800cc62a90051
:10236400cde2a800c041800000407800ce04070000
:10237400cca2a800cca2a800501680004900de0020
:1023840061406000004f7800cca2a900cca2a90053
:10239400cca2a800cca2a800cca2a900cca2a900df
:1023a400c041800000407800c90407000000e0003c
:1023b40004003a001e4078000004e000ecff3a00fc
:1023c40001003700000000000080fa000000060051
:1023d4000200fa00004f7800c922a90040168000cc
:1023e4004900de00614060000080fb006100600085
:1023f4004800dd00411680000180a100010070004a
:1024040040168800401680004800de0061406000ed
:102414000080fb00610060004700dd004116800081
:102424000170a10001007000401688004016800071
:102434004700de00614060000080fb006100600036
:102444004600dd00411680000160a100010070001b
:1024540040168800cc62a900cde2a900cca2a80055
:10246400cca2a8001e00fb006800600000f0a700da
:102474000000ea000000ea004f00de00004078009f
:102484000080fb00610060004900dd0061168000ef
:102494000190a10001007000601688001e00fb007e
:1024a4006400600000f0a7000000ea000000ea00f9
:1024b4004f00de00004078000080fb0061006000f7
:1024c4004800dd00611680000180a1000100700059
:1024d400601688001e00fb006200600000f0a70088
:1024e4000000ea000000ea004f00de00004078002f
:1024f4000080fb00610060004700dd006116800081
:102504000170a10001007000601688001e40780070
:102514006140600061406000614060000080fb0039
:10252400610060004600dd00611680000160a100ca
:102534000100700060168800cca2a9000080fa0097
:10254400000006000000fa003c0407000040780088
:1025540014e8b7001028ef00c9a2a9001568ef001d
:102564001a68ef001828ef00a0ac2000a1c3b30044
:1025740001487800b0ac2000a1c3b3000148780042
:10258400c0ac2000a1c3b300014878001628ef00b6
:1025940007003700b0408000e198200002c2b30079
:1025a40082707800b04080000000e800b0408800ed
:1025b400b0408000ef0f5000f6ff34000080fa00b6
:1025c400000006000000fa0080408000e30f500085
:1025d40043003200e30f500005003e00e10f5000bd
:1025e40016003200e10f500024003e0009003700bd
:1025f400e50f500071003200e50f5000550039001e
:10260400e60f500087003200e70f5000d000320080
:10261400f0003700511680000000220000806000a6
:102624000000e000e000320014c8bf001e040700f0
:102634001000200080408800e6003700511680001a
:1026440000002200008060000000e000d8003a0092
:1026540014c8bf001e040700e40f50000500360034
:10266400200020008040880014c8bf000e0407002a
:10267400d80037001028ef00d6003700511680002c
:1026840000002200008060000000e000ca00320068
:1026940014c8bf000e040700e40f500002003e00ff
:1026a4001028ef00cb00370014c8bf00080407004f
:1026b400ed0f500002003e001028ef00c500370067
:1026c4001b68ef001a68ef0014c8bf00f603070088
:1026d40030002000804088001628ef00bd0037003d
:1026e40014c8bf00fa030700e10f500005003a00c8
:1026f400501680004d00de00614060000080fb0049
:1027040090408800501680004d00de00614060005b
:102714008080fb009040800000f0a7000000ea00e9
:102724000000e9004f00de00808f5000a4003a0052
:1027340014c8bf00e6030700e10f5000a2003600f2
:1027440014c8bf00d8030700400020008040880060
:10275400a000370014c8bf00dd030700e40f5000d9
:102764009b0036001ac8bf00e64f50000a003e0026
:1027740030002000804088001ac8bf000040e800f4
:102784001ae8b700c05121000000010014c8bf00be
:10279400c50307008f00370015c8bf00e14f500084
:1027a40003003a0050002000804088008900370070
:1027b400600020008040880086003700b18120003e
:1027c4009140780000c4b30080cf500004003a0068
:1027d4001568ef0070002000804088000a00370070
:1027e400b0408000b281200012417800e1982000be
:1027f40082707800b04080000000e800b04088009b
:1028040030002000804088001b68ef001a68ef0049
:10281400c05121000000010014c8bf00a20307003a
:102824006c003700b18120009140780000c4b300ef
:1028340080cf500006003a0020c0b30015e8b7006e
:1028440030002000804088001628ef00390037004f
:10285400b0408000e20f50000b003c00b04080000c
:10286400b281200012417800a1ac2000827078006f
:10287400b04080000000e800b04088003000200034
:10288400804088002b0037000040eb00d9f9070096
:102894008000fb00a0ac2000104078000080fb000a
:1028a400808f50001f003a0010c0b300d1f9070018
:1028b4008000fb00b0ac2000104078000080fb00da
:1028c400808f500017003a0020c0b300c9f90700f8
:1028d4008000fb00c0ac2000104078000080fb00aa
:1028e400808f50000f003a0010c0b30015e8b70005
:1028f400300020008040880000012000b0408800a3
:10290400b0408000b281200012417800e19820009c
:1029140082707800b04080000000e800b040880079
:10292400040037001028ef00014f2100a08220008e
:10293400010001001b68ef001a68ef00c05121007c
:102944000000010014c8bf0057030700210037002e
:10295400014f21006082200001000100014f21008d
:10296400a0822000010001001028ef00e0f9070018
:1029740020c0b3000afb0700b0408000c0408800bc
:10298400b1408000e001200000017800110009003e
:102994008200d80000407800f603070047040700cf
:1029a400000000000b0037000000000009003700a1
:1029b4000000000007003700000000000500370099
:1029c4000000000003003700000000000100370091
:1029d400000000000080fa00000006000200fa0077
:1029e400000f78001e0078009040780090c3b30078
:1029f40080cf500008003a001e00780001c3b300e5
:102a0400014878001e00e800904078008140e8000a
:102a140001487800050037001e0078001040780057
:102a24008040e8001e007800014878000080fa0029
:102a3400000006000000fa0090408000e10f500002
:102a440006003a001bc8bf000080fb000000d10054
:102a5400004078001be8b70008003700b18120006f
:102a64009140780000c8b30000c070000080fb00f3
:102a74000000d100004078001be8b7000080fa0095
:102a8400000006000200fa00004f78001e80fb00e0
:102a940080004000a08220000080400010007800e8
:102aa400004078000080fa00000006000200fa00ee
:102ab400004f78001e80fb008000400060822000f0
:102ac4000080400010007800004078000080fa0088
:102ad400000006000000fa00e09820000080fa00e0
:102ae400000006000000fa00c04080000080fa00e8
:102af400000006000000fa0015c8bf000080fa00bc
:102b0400000006000000fa00113a8000f00b2000db
:102b140000816000600420007105200023742000ff
:102b24008049780081497800824978001136800014
:102b340000fe2f00008060003000b30010368800d3
:102b44002135800000fe2f00008060000020a000de
:102b540020358800103a8000000178000260a0004f
:102b6400600420007105200023742000804978004f
:102b7400814978008249780070062000401188005d
:102b840021e2a80001118000f0cf2f000080600036
:102b9400001188002062a9000111800090ff2f001d
:102ba40000806000001188002002a9002342a800d0
:102bb4002268ef009560a8001e68ef001ec8bf00e1
:102bc4001fe8b7001fc8bf001ce8b7001cc8bf003f
:102bd4001de8b7001dc8bf0020e8b70020c8bf002b
:102be40021e8b7000080fa00000006000000fa00a7
:102bf40022c8bf000000fb00e10f500010003200ab
:102c0400e10f500003003c000000e0000600320029
:102c14002b003700e20f50000e003200e30f50008b
:102c2400150032002600370021c8bf000004e00070
:102c34002000320010c0b30022e8b70020003700a3
:102c4400600007002041880020c0b30022e8b700dc
:102c54001b00370020418000104078000004e00091
:102c64000300320030c0b30022e8b700140037007c
:102c74002268ef00120037001111800000102000bc
:102c8400008060000000e0000c0032002041800061
:102c9400904078008100fb00211188000000e800ca
:102ca400204188002342a80020c0b30022e8b700d6
:102cb400030037000000000001003700000000009e
:102cc4000080fa00000006000200fa00000f7800fd
:102cd400040037001e007800104078001e0fe80042
:102ce400150007001e007800104078000004e00082
:102cf400f8ff3a000080fa00000006000200fa0023
:102d0400000f78001e007800190007000080fa0008
:102d1400000006000000fa0020c8bf000080fb008d
:102d24000080fa00000006000000fa004e000700d0
:102d34000080fa00000006000200fa00004f78004c
:102d4400010037000060fe00111180000010200017
:102d5400008060000000e000faff32001e00fb006b
:102d6400201188002342a8000080fa000000060019
:102d74000200fa00000f78001cc8bf008080fb002e
:102d840001814000e1882000810041009e08780014
:102d94000040e8001ce8b700c181200091407800a1
:102da40000c8b30080cf500001003a001c68ef0057
:102db40021c8bf000040e80021e8b7000080fa0005
:102dc400000006000200fa001ec8bf008080fb005d
:102dd40001814000e188200081004100110f78004a
:102de4000040e8001ee8b700e1812000914078002f
:102df40000c8b30080cf500001003a001e68ef0005
:102e040021c8bf000040e90021e8b7001e00780097
:102e14000080fa00000006000200fa00004f78006b
:102e24001dc8bf008080fb00e28420009e41780022
:102e340003f178000040e8001de8b700d1812000cc
:102e44009140780000c4b30080cf500001003a00e4
:102e54001d68ef0020c8bf000040e80020e8b7006c
:102e64000080fa00000006000200fa001fc8bf003c
:102e74008080fb00e284200062cf78000040e800fc
:102e84001fe8b700f18120009140780000c4b3002e
:102e940080cf500001003a001f68ef0020c8bf0037
:102ea4000040e90020e8b7001e4078000080fa00e6
:102eb400000006003600f800809fbe00829fbe001e
:102ec400849fbe00869fbe000000fa008560a900b2
:102ed40010118000620060000000e0000100320078
:102ee4002222a9003011800000407800caff0700a8
:102ef4000080fa004f03be004f02be004f01be0027
:102f04004f00be003600f900004006000000fa0041
:102f1400c062a800c042a8006bc0a8006ba0a800b3
:102f24004268ef00c50107000040780043e8b7009d
:102f34000080fa00000006000000fa0042c8bf004a
:102f44000000fb00e30f500053003200e30f500079
:102f540007003c00e10f500020003200e10f500058
:102f64002c003c000000e0000a003200b3003700ef
:102f7400e50f500063003200e50f50005a003500a1
:102f8400e60f50006d003200e70f50008c00320055
:102f9400aa00370010168000680060000000e000fe
:102fa40005003a0043c8bf00bf01070010c0b300ca
:102fb40042e8b700a10037001016800064006000ea
:102fc4000000e00092003a0043c8bf00b6010700c9
:102fd40050c0b30042e8b7009800370043c8bf00b0
:102fe400bb01070031062000810f50008a00360023
:102ff40010168000680060000000e00003003a0042
:1030040020c0b30042e8b7008c0037004268ef00ec
:103014008a003700a80307000004e0000d003a000e
:103024004f02070044e8b70044c8bf00ea4f50000d
:1030340003003a0010c0b3004e0207000500370039
:1030440044c8bf000040e80044e8b70044c8bf00db
:1030540048020700a30307000004e0000b003a0045
:103064002103070044e8b70044c8bf000004e0009f
:1030740003003a0040c1b3001f03070003003700f8
:1030840044c8bf00654050001b03070030c0b300b4
:1030940042e8b7006900370043c8bf008c0107004d
:1030a400f17c2000810f5000060036004b0207001f
:1030b4000004e000010032008002070043c8bf00a2
:1030c4007901070010168000680060000000e0002d
:1030d4005300320040c0b30042e8b70043c8bf0009
:1030e400710107005500370043c8bf00780107008d
:1030f40031062000810f50004b0036004268ef007b
:103104004e00370043c8bf0071010700310620009c
:10311400810f5000460036001016800064006000e5
:103124000000e00003003a0060c0b30042e8b700ca
:10313400420037004268ef00400037005e0307009a
:103144000004e0000d003a000502070044e8b7005f
:1031540044c8bf00e14f500003003a00a0c0b300d0
:10316400040207000500370044c8bf000040e9001e
:1031740044e8b70044c8bf00fe0107005903070034
:103184000004e0000b003a00d702070044e8b7004f
:1031940044c8bf00f44f500003003a000040eb0065
:1031a400d50207000300370044c8bf006540400053
:1031b400d102070070c0b30042e8b7001f00370017
:1031c40043c8bf0042010700f17c2000810f50007a
:1031d40006003600010207000004e00001003a0086
:1031e4003602070043c8bf002f01070010168000f5
:1031f400640060000000e0000f00320040c0b30033
:1032040042e8b70043c8bf00270107000b0037009e
:10321400000000000900370000000000070037002c
:103224000000000005003700000000000300370024
:103234000000000001003700000000000080fa00d8
:10324400000006000000fa00511680000000220071
:103254000080600000f0a7000000ea000000ea001f
:103264004f00de00004078000080fa0000000600f5
:103274000000fa00101680006400600000f0a7004f
:103284000000ea000000ea004f00de000040780081
:103294000080fa00000006000000fa00e7000700c2
:1032a400004078004be8b7004a68ef0020b82000df
:1032b40001c3b3000148780030b8200001c3b30053
:1032c4000148780040b8200001c3b30001487800e9
:1032d400c942a900c962a900c982a9000080fa00f4
:1032e400000006000200fa00881f7800000f780032
:1032f4004ac8bf000000fb000000e00003003200e9
:10330400e10f5000170032008200370020b820007f
:103314001e0040009040780090c3b30080cf50005e
:1033240004003e0020b820001e0040001040780039
:103334000100370000c3b30021b820009e80400084
:10334400804878004bc8bf00d70007001e007800f3
:10335400e20f50006a003a0010c0b3004ae8b70018
:103364006c0037004bc8bf00d90007000000d10033
:103374000040780091c3b30000c050004ce8b7008f
:103384004bc8bf00d2000700f30f500020003600e6
:1033940020b820001e004000104078000084fb008c
:1033a4001e0078000040780012f707000000fb00c0
:1033b400800f54000b00320020b820001e00400093
:1033c400104078008040e80020b820001e00400033
:1033d4000148780020b820001e004000104078000a
:1033e4000300370020b820001e0040001040780081
:1033f40021b820009e804000804878001e0078009c
:10340400e20f500040003a004a68ef0041003700e4
:103414001e007800e10f500015003200e20f50004a
:10342400240032000000e00039003a0020b82000f7
:10343400104078000081fb004cc8bf008000fb00f6
:1034440010c0b300810f510001003d000040eb00ab
:103454000080fb00610060004a00dd00611680000e
:1034640001a0a1000100700060168800220037004e
:1034740030b82000104078000081fb004cc8bf0029
:103484008000fb0010c0b300810f510001003d001b
:103494000040eb000080fb00610060004b00dd0099
:1034a4006116800001b0a100010070006016880060
:1034b4001100370040b82000104078000081fb0064
:1034c4004cc8bf008000fb0010c0b300810f510046
:1034d40001003d000040eb000080fb006100600043
:1034e4004c00dd006116800001c0a10001007000e5
:1034f400601688000000000000000000050037008e
:103504000000000003003700000000000100370045
:10351400000000004f0478000080fa00000006005c
:103524000000fa000080fa0000000600809fbe0040
:10353400821f78000000fa008460a900d041800056
:103544000000e800d0418800d1418000f0522700fb
:10355400808f50001d0036003c28ef001700370014
:10356400e04180004200dd008080e800e0ac200003
:103574000080400010407800e14f50000c003a00f9
:10358400e0418000e14180004209dd00e1ac20001f
:103594008100410011017800d14180008100510077
:1035a4004201dd00e0ac2000000041000108780089
:1035b400e04180000000e800e0418800e041800034
:1035c400f80f5000e6ff34003a28ef000080fa00bc
:1035d4004f0178004f00be00004006000200fa00d0
:1035e4000040eb00004f7800070037001e80fb000e
:1035f400c200dd0000ad2000008040008040eb00f0
:10360400014878001e4fe8001e407800f84f500033
:10361400f6ff36003a28ef0004a1a9000481a800af
:10362400007d20001008880005e1a8008460a9003e
:103634009460a8000080fa00000006000200fa006e
:103644000040eb00004f7800060037001e4fe800f2
:103654001e407800f94f500002003a000080eb0051
:103664000f0037001e80fb004200dd008080e80070
:10367400e0ac20000080400010407800e14f500092
:10368400f2ff32001e80fb00c200dd0000ad20000e
:103694000080400011c0b300014878001e80fb0088
:1036a4000080fa00000006000200fa00004f7800d3
:1036b4001e80fb00d14180004201dd00e0ac20000f
:1036c40000004100010878000080fa0000000600b4
:1036d4000400fa0020479800d0418000000f7800d1
:1036e4009e0078002e4090000080fb004201dd0027
:1036f400e0ac200000004100100078000080500081
:103704000080fa00000006000200fa00004f780072
:103714001e80fb00c200dd0000ad200000804000e0
:103724008040eb00014878000080fa0000000600a9
:103734000000fa000080fa00000006000000fa0011
:10374400c082a900c482a900bcff07000040780021
:103754002ee8b7002f68ef003068ef003228ef0042
:103764000080fa00000006000000fa002fc8bf0025
:103774000080fb00e10f500017003200e10f500001
:1037840003003c000000e000060032006700370040
:10379400e20f50002c003200e30f500037003200db
:1037a400620037002ec8bf00c9ff07000183200054
:1037b400914078008180fb00810f50004c0039005b
:1037c4002ec8bf00b8ff070010c0b3002fe8b70031
:1037d400c482a900550037002ec8bf00bcff0700f3
:1037e40001832000914078008180fb00f480100068
:1037f400810f5000400039002ec8bf00aaff070007
:103804002f68ef00c482a800904180000000e80007
:103814009041880090418000e40f500038003a0045
:1038240030c8bf000040e80030e8b7003228ef009d
:1038340030c8bf00f44f500033003a0020c0b3003a
:103844002fe8b700390037002ec8bf00a0ff0700db
:1038540001832000914078008180fb00810f50009b
:103864002b0039002ec8bf008fff070030c0b30003
:103874002fe8b700c482a9002c0037002ec8bf006f
:1038840093ff070001832000914078008180fb00b2
:10389400f4801000810f50001f0039002ec8bf00b3
:1038a40081ff070020c0b3002fe8b700c482a8003e
:1038b400904180000000e800904188009041800021
:1038c400e40f500016003a0030c8bf000040e90081
:1038d40030e8b7003228ef0030c8bf000004e00031
:1038e40011003a002f68ef003068ef000f00370036
:1038f400000000000d003700000000000b0037003e
:103904000000000009003700000000000700370035
:10391400000000000500370000000000030037002d
:103924000000000001003700000000000080fa00e1
:10393400000006000000fa00c022a900c422a90069
:103944003eff0700004078003ee8b70020c0b30007
:103954003fe8b7004068ef000080fa00000006006e
:103964000000fa00a0b72000004078000080fa00b0
:10397400000006000200fa00004f7800a0b7200003
:103984001e4878001e4078000040e800804078001f
:10399400b0b72000014878001e40780000c0e8005d
:1039a40080407800c0b72000014878001e407800ad
:1039b4006340400080407800d0b720000148780080
:1039c4000080fa00000006000000fa0020c0b300e6
:1039d4003fe8b7000080fa00000006000000fa008b
:1039e4003fc8bf000014a2000080fb000000ea00f2
:1039f4004f00de00004078000080fa00000006005e
:103a04000000fa003fc8bf000000fb00e10f5000b7
:103a140014003200e20f5000210032000000e000e8
:103a240024003a003ec8bf0029ff0700018420009b
:103a3400914078008100fb00a2b72000e2c078002a
:103a44008100fb00810f5000170039003ec8bf0001
:103a540015ff0700c422a80010c0b3003fe8b70058
:103a6400140037003ec8bf0019ff0700018420007e
:103a7400914078008100fb00a2b72000e2c07800ea
:103a84008100fb00810f5000090039003ec8bf00cf
:103a940005ff0700c422a9003f68ef0005003700b6
:103aa40000000000030037000000000001003700a0
:103ab400000000000080fa00000006000000fa0088
:103ac4003fc8bf00e24f500002003a003f68ef00d9
:103ad4000300370020c0b3003fe8b700c422a900a8
:103ae4003fc8bf000080fb000000e9004f00de007b
:103af400004078000080fa00000006000000fa0090
:103b040040c8bf00e34f500002003a004068ef0095
:103b14000300370040c8bf000040e80040e8b70099
:083b24000080fa000000060019
:020000040000fa
:103b2c00ce0a000064000000000000003a0800000b
:103b3c0004000000000000002e0800000600000039
:103b4c000000000034080000060000000000000027
:103b5c007a0b0000040000000200000001010100cb
:103b6c00010000003e0800000400000000000000fe
:103b7c00420800000400000000000000460800009d
:103b8c0004000000000000004e080000400100008e
:103b9c00000000001c0800000a00000000000000eb
:103bac007e0b0000040000000200000030303000ea
:103bbc0000000000320b0000480000000000000074
:103bcc00000800001000000000000000820b000044
:103bdc0004000000000000004a080000040000007f
:103bec00000000008e0900004001000000000000f1
:103bfc00100800000c000000000000002608000067
:103c0c00080000000200000030003000003000000e
:083c1c00300000000000000070
:020000040000fa
:103c24000000fa00c9c2a900cdc2a9004668ef008d
:103c340082fe07000040780047e8b700a0c0b30048
:103c440048e8b7000080fa00000006000000fa000f
:103c540046c8bf000080fb000000e0000300320003
:103c6400e10f50000e0032001d00370047c8bf00ae
:103c740097fe070081842000914078008180fb003a
:103c8400810f50001300390047c8bf0086fe0700ab
:103c940010c0b30046e8b700cdc2a9001000370039
:103ca40047c8bf008afe0700818420009140780045
:103cb4008180fb00f4801000810f50000700390060
:103cc40047c8bf0078fe07004668ef00cdc2a800d1
:103cd400030037000000000001003700000000006e
:103ce4000080fa00000006000000fa0048c8bf0087
:103cf4000080fa00000006000200fa00004f78007d
:103d04001e40780048e8b7000080fa000000060072
:103d14000000fa00c002a80021a3a8002103a90002
:103d2400001980004800de00614060000080fb0054
:103d3400610060004900dd00011980000190a100cc
:103d4400010070000019880020e3a8000019800019
:103d54004700de00614060000080fb0061006000fd
:103d64004600dd00011980000160a100010070001f
:103d740000198800001980004600de0061406000e0
:103d84000080fb00610060004500dd000119800037
:103d94000150a10001007000001988001119800071
:103da400f0ff210000806000101988002343a9005f
:103db4002223a80000102000201988002823ef00e7
:103dc400100020008019880021e3a8002023a80007
:103dd4002043a8000080fa00000006000000fa005a
:103de400001880000080fa00000006000000fa00bd
:103df4004427ef0040a7a9000080fa000000060055
:103e04000000fa00f9ff0700f4fd07004bfe07006d
:103e140001c1b30020c0b3001af70700c5fe0700b4
:103e24001c000700c7f90700b9ff07007cff070063
:103e340034fb070018fd07006af7070078f707004e
:103e44008040eb000040eb007bf70700e0722800a5
:103e5400f5f7070099f5070085f407000000eb006b
:103e640020fd0700100020001efd07002000200098
:103e74001cfd0700d3f9070074ff07003afe070092
:103e8400cef50700defe07009ef4070057fb07008f
:103e9400f2ff37000000fa00c9a2a800c982a800f6
:103ea4002d63a8002d83a80069a0a80069c0a800fc
:103eb4000080fa00000006000000fa00511680009d
:103ec400000021000080600000f0a7000000ea006c
:103ed4000000ea004f00de00004078000080fa0095
:103ee400000006000000fa005116800000002200c5
:103ef4000080600000f0a7000000ea000000ea0073
:103f04004f00de00004078000080fa000000060048
:020000040000fa
:04aff8008b69000061
:020000040000fa
:04affc003b3f0000d7
:00000001FF
