:020000040000fa
:080000000002040000000000f2
:020000040000fa
:04000800c80200002a
:020000040000fa
:04000c00c802000026
:020000040000fa
:04001000c802000022
:020000040000fa
:04001400c80200001e
:020000040000fa
:04001800c80200001a
:020000040000fa
:04001c00c802000016
:020000040000fa
:04002000c802000012
:020000040000fa
:04002400c80200000e
:020000040000fa
:04002800c80200000a
:020000040000fa
:04002c00c802000006
:020000040000fa
:04003000c802000002
:020000040000fa
:04003400b8170000f9
:020000040000fa
:04003800c8020000fa
:020000040000fa
:04003c00c8020000f6
:020000040000fa
:04004000c8020000f2
:020000040000fa
:04004400c8020000ee
:020000040000fa
:04004800c8020000ea
:020000040000fa
:04004c00c8020000e6
:020000040000fa
:04005000c8020000e2
:020000040000fa
:040054005216000040
:020000040000fa
:04005800c8020000da
:020000040000fa
:04005c00c8020000d6
:020000040000fa
:04006000c8020000d2
:020000040000fa
:04006400c8020000ce
:020000040000fa
:04006800c8020000ca
:020000040000fa
:04006c00c8020000c6
:020000040000fa
:04007000c8020000c2
:020000040000fa
:04007400c8020000be
:020000040000fa
:04007800c8020000ba
:020000040000fa
:04007c00c8020000b6
:020000040000fa
:04008000c8020000b2
:020000040000fa
:04008400c8020000ae
:020000040000fa
:04008800c8020000aa
:020000040000fa
:04008c00c8020000a6
:020000040000fa
:04009000c8020000a2
:020000040000fa
:04009400c80200009e
:020000040000fa
:04009800c80200009a
:020000040000fa
:04009c00c802000096
:020000040000fa
:0400a000c802000092
:020000040000fa
:0400a400c80200008e
:020000040000fa
:0400a800c80200008a
:020000040000fa
:0400ac00c802000086
:020000040000fa
:0400b000c802000082
:020000040000fa
:0400b400c80200007e
:020000040000fa
:0400b800c80200007a
:020000040000fa
:0400bc00c802000076
:020000040000fa
:0400c000c802000072
:020000040000fa
:0400c400c80200006e
:020000040000fa
:0400c800c80200006a
:020000040000fa
:0400cc00c802000066
:020000040000fa
:0400d000c802000062
:020000040000fa
:0400d400c80200005e
:020000040000fa
:0400d800c80200005a
:020000040000fa
:0400dc00c802000056
:020000040000fa
:0400e000c802000052
:020000040000fa
:0400e400c80200004e
:020000040000fa
:0400e800c80200004a
:020000040000fa
:0400ec00c802000046
:020000040000fa
:0400f000c802000042
:020000040000fa
:0400f400c80200003e
:020000040000fa
:0400f800c80200003a
:020000040000fa
:0400fc00c802000036
:020000040000fa
:04010000c802000031
:020000040000fa
:04010400c80200002d
:020000040000fa
:04010800c802000029
:020000040000fa
:04010c00c802000025
:020000040000fa
:04011000c802000021
:020000040000fa
:04011400c80200001d
:020000040000fa
:04011800c802000019
:020000040000fa
:04011c00c802000015
:020000040000fa
:04012000c802000011
:020000040000fa
:04012400c80200000d
:020000040000fa
:04012800c802000009
:020000040000fa
:04012c00c802000005
:020000040000fa
:04013000c802000001
:020000040000fa
:04013400c8020000fd
:020000040000fa
:04013800c8020000f9
:020000040000fa
:04013c00c8020000f5
:020000040000fa
:04014000c8020000f1
:020000040000fa
:04014400c8020000ed
:020000040000fa
:04014800c8020000e9
:020000040000fa
:04020800c802000028
:020000040000fa
:04020c00c802000024
:020000040000fa
:04021000c802000020
:020000040000fa
:04021400c80200001c
:020000040000fa
:04021800c802000018
:020000040000fa
:04021c00c802000014
:020000040000fa
:04022000c802000010
:020000040000fa
:04022400c80200000c
:020000040000fa
:04022800c802000008
:020000040000fa
:04022c00c802000004
:020000040000fa
:04023000c802000000
:020000040000fa
:04023400c8020000fc
:020000040000fa
:04023800c8020000f8
:020000040000fa
:04023c00c8020000f4
:020000040000fa
:04024000c8020000f0
:020000040000fa
:04024400c8020000ec
:020000040000fa
:04024800c8020000e8
:020000040000fa
:04024c00c8020000e4
:020000040000fa
:04025000c8020000e0
:020000040000fa
:04025400c8020000dc
:020000040000fa
:04025800c8020000d8
:020000040000fa
:04025c00c8020000d4
:020000040000fa
:04026000c8020000d0
:020000040000fa
:04026400c8020000cc
:020000040000fa
:04026800c8020000c8
:020000040000fa
:04026c00c8020000c4
:020000040000fa
:04027000c8020000c0
:020000040000fa
:04027400c8020000bc
:020000040000fa
:04027800c8020000b8
:020000040000fa
:04027c00c8020000b4
:020000040000fa
:04028000c8020000b0
:020000040000fa
:04028400c8020000ac
:020000040000fa
:04028800c8020000a8
:020000040000fa
:04028c00c8020000a4
:020000040000fa
:04029000c8020000a0
:020000040000fa
:04029400c80200009c
:020000040000fa
:04029800c802000098
:020000040000fa
:04029c00c802000094
:020000040000fa
:0402a000c802000090
:020000040000fa
:0402a400c80200008c
:020000040000fa
:0402a800c802000088
:020000040000fa
:0402ac00c802000084
:020000040000fa
:0402b000c802000080
:020000040000fa
:0402b400c80200007c
:020000040000fa
:0402b800c802000078
:020000040000fa
:0402bc00c802000074
:020000040000fa
:0402c000c802000070
:020000040000fa
:0402c400c80200006c
:020000040000fa
:0402c800c802000068
:020000040000fa
:0402cc00c802000064
:020000040000fa
:0402d000c802000060
:020000040000fa
:0402d400c80200005c
:020000040000fa
:0402d800c802000058
:020000040000fa
:0402dc00c802000054
:020000040000fa
:0402e000c802000050
:020000040000fa
:0402e400c80200004c
:020000040000fa
:0402e800c802000048
:020000040000fa
:0402ec00c802000044
:020000040000fa
:0402f000c802000040
:020000040000fa
:0402f400c80200003c
:020000040000fa
:0402f800c802000038
:020000040000fa
:0402fc00c802000034
:020000040000fa
:04030000c80200002f
:020000040000fa
:04030400c80200002b
:020000040000fa
:04030800c802000027
:020000040000fa
:04030c00c802000023
:020000040000fa
:04031000c80200001f
:020000040000fa
:04031400c80200001b
:020000040000fa
:04031800c802000017
:020000040000fa
:04031c00c802000013
:020000040000fa
:04032000c80200000f
:020000040000fa
:04032400c80200000b
:020000040000fa
:04032800c802000007
:020000040000fa
:04032c00c802000003
:020000040000fa
:04033000c8020000ff
:020000040000fa
:04033400c8020000fb
:020000040000fa
:04033800c8020000f7
:020000040000fa
:04033c00c8020000f3
:020000040000fa
:04034000c8020000ef
:020000040000fa
:04034400c8020000eb
:020000040000fa
:04034800c8020000e7
:020000040000fa
:10040000efb320000e7f22000e01880000000000e4
:10041000000020000000e000020032000001200087
:1004200020028800140007005b0007000000e000c5
:1004300003003a0020a22100010020000200370042
:100440000000200001002000810f70000100320038
:1004500014000700000020000000e000020032004d
:100460000000020000000000941a020000000000da
:100470000040da000000fe004440a90020212000d6
:100480000000e0000300320000002000a00188000e
:100490004440a800000006008a1f78008b1f7800e7
:1004a0000000060091018800800478000000eb0045
:1004b0001a003700e284440032a0b4009905ba0063
:1004c000e284440032a0b4009906ba00e2844400f9
:1004d00032a0b4000006eb00476fde00fd07b2005b
:1004e000636ce10003003a00ebff07000000eb0043
:1004f0000a003700606ce10004003a00005deb0088
:100500008b05e900fdff3e00040037006168e10053
:10051000010032000086eb000b00070019c7ba008b
:100520001905ba000e04e00003003a000a00e000da
:10053000e0ff3a0000000600fe07b2009e018800be
:100540008a047800f5ff3700395dba008b05e900b1
:100550000c003200295dba008b05e900080032006a
:100560000c00e00003003a00e284440032a0b40032
:10057000f5ff370019ddba008b05e900faff3a00f4
:100580008904e800e184440032a0b40000000600c1
:100590000040da000000fe000000050003f0a200a9
:1005a000889fbe008a9fbe008c1f7800b80007009d
:1005b000bf0033006450e1004f0032006420e100ce
:1005c0005200320003826c0007003b000905d00096
:1005d0000306d000820f54000c065d0002003900b3
:1005e00002003200890178000306780085825500f8
:1005f00004003d000003fd008103fd008502ea00c8
:100600008b854200840f720002003b0060001000e6
:10061000e08018006011b8000005eb007a28e100c6
:100620000a00390006007800c75ddd00f707b20058
:10063000878075002d003700828171000a017800e3
:10064000610560008180d1000080d3008502e9004f
:10065000f9ff3b00060440008784480002003b008d
:1006600060041400e0841c000988a3000700320025
:100670008a81710082817100610164008904d10066
:100680000884d3008b05e800170037000978a30021
:1006900013003a000b00e000130034008b05e90062
:1006a0000804440089844c000a4474000978a300bb
:1006b0000d003a000b00e000070034008b05e90054
:1006c0000804440089844c0001003a000b0020001b
:1006d0000978a300f7ff32000001eb0002003700a9
:1006e000828171000a0178002e0007000cf0a7003b
:1006f00001f0a000770037006420e10002003a001a
:10070000838f6c00770033000801be000200be003a
:10071000700037000001be00480007000470a70009
:1007200003f0a1006509b100160032000d0035008c
:100730006828e10006003500f0ff2f00f1ff2700d8
:100740000300e00013003b0001002800000005004a
:1007500000004000818048008502e900fcff3a006b
:1007600008003700f88f420002003c008000eb00d8
:10077000000005008100d1000080d3008502e80060
:10078000fcff3a000300e00002003b0060001000a4
:10079000e0801800000006004f89de00820178002a
:1007a0008700370081002000618055000b003d006c
:1007b0000b00200061fe2f000100e1001d0034004d
:1007c00082817100610164008904d1000884d30032
:1007d0000000e800faff3a007100200061006400a8
:1007e0000300700002006000090032006104440050
:1007f000e0844c000988a500050032008b05e80064
:100800006808e10002003a008904d1000884d3009e
:10081000f20f20000258e10005003d00c75ddd0039
:10082000f907b20089807500080078000000060012
:100830000bf827008b00780000000500c70ade00d7
:10084000f107b200f50fb20008003200e1cf42001c
:10085000020032000170a00024000500810f70002a
:10086000010032000408050044000500810f7000fb
:1008700002003a00140005008502e9000000400073
:1008800081c04800fcff3b000170a000240005006f
:100890000004be00e9ff07000003be000405be001f
:1008a0000200be00e5ff0700844f7500000006004f
:1008b0000200be006450e100050036006420e10043
:1008c000020036000968a30001003a000800be00db
:1008d0000160a0004f0678004f05be004f04be0027
:1008e00000000600f0ff2f00f1ff2700f9ff37009e
:1008f000889fbe008a9fbe008c1f7800e4ff07001f
:10090000ebff330003866c006450e10024003200ea
:100910006420e100270032006150e1002200320033
:100920006120e100210032008b854200eb07b1001d
:100930000134b800003ab8000804420089844a0033
:10094000013ab8000030b8008880400009014a0030
:10095000040033000000400081804800020149008b
:100960008b05e900c909dd00830170000100320038
:1009700013002000c814de004814dd004709de0023
:100980001200b200c808de000884700085ff07006e
:1009900001f0a1000cf0a70001f0a000cdff37008e
:1009a0006120e100cfff32000801be000200be005e
:1009b000f7ff37006150e100fcff3a00c9ff370044
:1009c000881f7800030478000300e00007003d0062
:1009d00060001000e080180060011900e08119003b
:1009e00002003b0001f02d00030037000400070067
:1009f00008f0a70001f0a0004f04780000000600f6
:100a0000889fbe008a9fbe000082700004027100b1
:100a100004827100260032000004be000200be0005
:100a20006011b8006b092000950220000182cf0000
:100a30000a0039000541b1000082cf0007003900eb
:100a40000541b1000982cf00040039000541b10021
:100a50000882cf00010039000541b1000542520073
:100a6000120032000a003b008281710061016400c3
:100a70008100d1000080d3008984d3000884d30092
:100a80008b05e8000442e800f7ff3a000700370052
:100a90000804440089844c0000004800818048001c
:100aa0008b05e9000442e900f9ff3a003dff070029
:0c0ab0004f05be004f04be000000060011
:020000040000fa
:100abc000d0a00004c650000732000006f700000f0
:100acc00636900006f6e0000732000006465000015
:100adc00207400006573000074200000736f000028
:100aec006e3a00000d0a0000000000000d0a000024
:100afc0000000000312d0000496e000074720000ef
:100b0c006f6400007569000072200000756e0000b3
:100b1c00206e00006f750000206900006465000005
:100b2c006e74000069660000696300006164000077
:100b3c006f7200000d0a000000000000322d000052
:100b4c00436f00006e730000756c00007461000050
:100b5c007220000049440000206100006374000012
:100b6c00756100006c0d00000a00000000330000ed
:100b7c002d4300006f6e0000737500006c74000054
:100b8c006172000020740000726100006d6500004d
:100b9c007320000069640000656e00007469000039
:100bac00666900006361000064650000730d00005d
:100bbc000a000000003400002d4300006f6e00009e
:100bcc00737500006c7400006172000020740000ea
:100bdc00726100006d6500007320000072650000fa
:100bec006275000064650000730d00000a000000cf
:100bfc00003500002d56000069730000756100007f
:100c0c006c6900007a610000722000006c27000003
:100c1c00756c0000746900006d2000006d690000a7
:100c2c00737300006174000067650000207200009f
:100c3c0065620000757400000d0a000000000000e1
:100c4c000d0a0000005000006572000020730000c7
:100c5c006f7200007469000072200000646500006f
:100c6c0020710000756100006c7300006576000057
:100c7c006f6c0000206f000070630000696f000053
:100c8c002c20000070720000656d000020450000f3
:100c9c00534300000d0a0000000a00000d50000034
:100cac006c61000063610000206700007275000039
:100cbc007020000037370000392e00002053000050
:100ccc0069730000746500006d65000073200000fe
:100cdc004469000067690000746100006c730000d7
:100cec002069000020750000507200006f63000046
:100cfc006573000073610000646f00007273000084
:100d0c000d0a0000000000004d6500006e7500002b
:100d1c002064000065200000736500006c65000015
:100d2c0063630000696f00000d0a00000000000002
:100d3c004861000073200000696e000074720000ae
:100d4c006f6400007569000074200000656c000081
:100d5c0020490000443a0000200000004a610000d5
:100d6c002068000061730000206900006e740000b0
:100d7c00726f00006475000069740000206500004b
:100d8c006c200000494400002100000020500000ad
:100d9c00726500006d2000004553000043200000e8
:100dac007065000072200000746f0000726e00000d
:100dbc0061720000206100006c2000004d65000095
:100dcc006e75000021000000494400003a2000002c
:100ddc0000540000726100006d650000732000007b
:100dec0069640000656e00007469000066690000ab
:100dfc006361000064650000733a0000200000008d
:100e0c0054720000616d00006573000020720000d8
:100e1c006562000075640000657300003a200000f4
:100e2c00004c0000277500006c740000696d000018
:100e3c00206d00006973000073610000746700008e
:100e4c0065200000726500006275000074200000cf
:100e5c00657300003a200000005700006169000033
:100e6c00746900006e670000206600006f7200005d
:100e7c0020490000442000002049000044200000cc
:100e8c00736500007420000020200000202000006a
:100e9c002020000020200000204e0000657700007c
:100eac00204d000065730000736100006765000051
:100ebc00202000002020000020000000426f0000d5
:100ecc006f740000696e0000672e00002e2e00006b
:040edc000000000012
:020000040000fa
:100ee0000400fa0020479800314798006408070082
:100ef000204188002e40900020e8b7003e4090003e
:100f000021e8b7002368ef0023c8bf0022e8b7003c
:100f1000c8a2a900401680004500de0061406000c4
:100f20000080fb004f00dd0042168000f1ff27002b
:100f300081006100010070004016880040168000aa
:100f40004f00de00004078000080fb006100600080
:100f50004300dd00411680000130a1000100700057
:100f6000401688000000eb00000f780029003700d1
:100f70002041800041062000cf00070030c0b300b0
:100f80002a0207002041800051002000ca0007000b
:100f900030c0b3002502070020418000110020006e
:100fa000c500070030c0b3002002070020418000c8
:100fb00011002000c000070020c0b3001b02070082
:100fc0002041800011002000bb00070080c2b30058
:100fd0003b010700d801070080c0b30038010700bb
:100fe000d501070010c0b300350107002041800083
:100ff00031002000b0000700cf01070060c0b3003f
:101000002f010700cc010700f0c0b3002c0107003e
:101010001e0fe8001e007800e10f5000d4ff3400de
:101020000080fa00000006000000fa002041800065
:1010300000407800450807000080fa000000060024
:101040000000fa00bc01070010c0b3001c0107003b
:101050002041800031002000970007000080fa0046
:10106000000006000000fa00b3010700e0c0b30072
:10107000130107000080fa00000006000000fa00db
:10108000ad010700c0c0b3000d0107000080fa00e9
:10109000000006000400fa0020479800314798003d
:1010a00020c8bf000080fb00e20f500003003200a8
:1010b000e40f50000b003200220037002e40900059
:1010c0008000fb003e4090000004e00002003a0077
:1010d0000000eb000100370000042000008f4000fa
:1010e0001d0037002e4090000000fb00000f78002c
:1010f0003e409000e14f500003003a000104200000
:101100001e8f4000140037003e409000e24f500018
:1011100004003a0021c8bf000080fb001e0f400001
:101120000d0037003e409000e34f500009003a00a8
:1011300021c8bf000080fb000004b0001e0f40006b
:10114000050037002e4090000000fb00000f7800e3
:101150000100370000000000770107001e00780042
:101160008040780000c8b30000c07000d4000700c1
:101170003e40900022e8b7002e40900023e8b700e0
:101180000080fa00000006000200fa00004f78001c
:10119000690107001e4078001801070023c8bf003e
:1011a0000040e80023e8b70020c8bf00e34f50002c
:1011b00010003a0023c8bf00f34f50002f00360044
:1011c0002368ef0022c8bf000040e80022e8b70013
:1011d00022c8bf00e34f5000010036002268ef0034
:1011e00022c8bf008040780023c8bf00a9ff0700c5
:1011f0002200370020c8bf00e24f500012003a0022
:10120000318220009140780070c2b30080cf50003e
:101210001a0036002368ef0022c8bf000040e80033
:1012200022e8b70022c8bf00e14f5000010036009d
:101230002268ef0022c8bf008040780023c8bf00aa
:1012400094ff07000d00370022c8bf00e14f500097
:101250000a003a00318220009140780070c2b30049
:1012600080cf5000010036002368ef0022c8bf0085
:101270008040780023c8bf0086ff07000080fa0086
:10128000000006000200fa00000f7800040037009a
:101290001e007800104078001e0fe800baff07001b
:1012a0001e007800104078000004e000f8ff3a00cb
:1012b0000080fa00000006000400fa00000f780029
:1012c000110798001e00780000407800870707008b
:1012d000000000001e007800004078008d07070025
:1012e0009e009000810f5000faff39000080fa0044
:1012f000000006000200fa00004f78001e80fb008c
:101300004700de00004078000080fb0061006000c4
:101310004900dd00611680000190a100010070000d
:10132000601688009e00fb00000420000080600022
:1013300000f0a7000000ea000000ea004f00de0015
:10134000004078000080fb00610060004800dd0084
:10135000611680000180a100010070006016880005
:101360009e00fb00000220000080600000f0a7004b
:101370000000ea000000ea004f00de0000407800b4
:101380000080fb00610060004700dd006116800006
:101390000170a10001007000601688001e00fb00b3
:1013a0007000600000f0a7000000ea000000ea0002
:1013b0004f00de00004078000080fb00610060000c
:1013c0004600dd00611680000160a1000100700090
:1013d000601688000080fa00000006000200fa0093
:1013e000004f78001e00fb006800600000f0a700be
:1013f0000000ea000000ea004f00de000040780034
:101400000080fb00610060004900dd006116800083
:101410000190a10001007000601688001e00fb0012
:101420006400600000f0a7000000ea000000ea008d
:101430004f00de00004078000080fb00610060008b
:101440004800dd00611680000180a10001007000ed
:10145000601688001e00fb006200600000f0a7001c
:101460000000ea000000ea004f00de0000407800c3
:101470000080fb00610060004700dd006116800015
:101480000170a10001007000601688001e40780005
:101490006140600061406000614060000080fb00ce
:1014a000610060004600dd00611680000160a1005f
:1014b00001007000601688000080fa00000006003d
:1014c0000200fa00004f7800c922a90040168000ef
:1014d0004900de00614060000080fb0061006000a8
:1014e0004800dd00411680000180a100010070006d
:1014f00040168800401680004800de006140600011
:101500000080fb00610060004700dd0041168000a4
:101510000170a10001007000401688004016800094
:101520004700de00614060000080fb006100600059
:101530004600dd00411680000160a100010070003e
:1015400040168800cc62a900cde2a900cca2a80078
:101550001e40780067ff0700cca2a800cca2a9001b
:10156000cca2a900cca2a8001e4078009bff0700d7
:10157000cca2a800cca2a900c922a80040168000d5
:101580004900de00614060000080fb0061006000f7
:101590004800dd00411680000180a10001007000bc
:1015a00040168800401680004800de006140600060
:1015b0000080fb00610060004700dd0041168000f4
:1015c0000170a100010070004016880040168000e4
:1015d0004700de00614060000080fb0061006000a9
:1015e0004600dd00411680000160a100010070008e
:1015f000401688000080fa00000006000200fa0091
:10160000004f7800c922a900401680004900de0082
:10161000614060000080fb00610060004800dd0068
:10162000411680000180a100010070004016880072
:10163000401680004800de00614060000080fb0032
:10164000610060004700dd00411680000170a100cc
:101650000100700040168800401680004700de0040
:10166000614060000080fb00610060004600dd001a
:10167000411680000160a100010070004016880042
:10168000cc62a800cde2a900cca2a8001e40780040
:1016900018ff0700cca2a800cca2a900cca2a900e8
:1016a000cca2a8001e4078004cff0700cca2a800e6
:1016b000cca2a900c922a800401680004900de0083
:1016c000614060000080fb00610060004800dd00b8
:1016d000411680000180a1000100700040168800c2
:1016e000401680004800de00614060000080fb0082
:1016f000610060004700dd00411680000170a1001c
:101700000100700040168800401680004700de008f
:10171000614060000080fb00610060004600dd0069
:10172000411680000160a100010070004016880091
:101730000080fa00000006000200fa00c922a8009a
:10174000401680004900de00614060000080fb0020
:10175000610060004800dd00411680000180a100aa
:101760000100700040168800401680004800de002e
:10177000614060000080fb00610060004700dd0008
:10178000411680000170a100010070004016880021
:10179000401680004700de00614060000080fb00d2
:1017a000610060004600dd00411680000160a1007c
:1017b0000100700040168800cc62a900cde2a800ac
:1017c000204180000040780048060700cca2a80015
:1017d000cca2a800501680004900de0061406000e5
:1017e000004f7800cca2a900cca2a900cca2a800ee
:1017f000cca2a800cca2a900cca2a90020418000c4
:1018000000407800430607000000e00004003a00b2
:101810001e4078000004e000ecff3a0001003700b1
:10182000000000000080fa00000006000200fa003c
:10183000004f7800c922a900401680004900de0050
:10184000614060000080fb00610060004800dd0036
:10185000411680000180a100010070004016880040
:10186000401680004800de00614060000080fb0000
:10187000610060004700dd00411680000170a1009a
:101880000100700040168800401680004700de000e
:10189000614060000080fb00610060004600dd00e8
:1018a000411680000160a100010070004016880010
:1018b000cc62a900cde2a900cca2a800cca2a800cd
:1018c0001e00fb006800600000f0a7000000ea00b6
:1018d0000000ea004f00de00004078000080fb00be
:1018e000610060004900dd00611680000190a100e8
:1018f00001007000601688001e00fb00640060009c
:1019000000f0a7000000ea000000ea004f00de003f
:10191000004078000080fb00610060004800dd00ae
:10192000611680000180a10001007000601688002f
:101930001e00fb006200600000f0a7000000ea004b
:101940000000ea004f00de00004078000080fb004d
:10195000610060004700dd00611680000170a10099
:1019600001007000601688001e4078006140600031
:1019700061406000614060000080fb006100600029
:101980004600dd00611680000160a10001007000ca
:1019900060168800cca2a9000080fa0000000600b2
:1019a0000000fa00e055280050040700c057280046
:1019b0004e040700005828004c040700405a280035
:1019c0004a040700d05b280048040700105e280086
:1019d00046040700f05f2800440407006062280006
:1019e0004204070090622800400407000080fa00cb
:1019f000000006000000fa00306528003b040700e4
:101a0000a068280039040700e5ff07009c050700cf
:101a10000040780000e8b7000168ef0060b12000e6
:101a2000a1c3b3000148780070b12000a1c3b30086
:101a30000148780080b12000a1c3b30001487800bc
:101a400090b1200001c3b30001487800a0b120008c
:101a5000a1c0b30001487800b0b120008040eb0085
:101a6000014878000080fa00000006000200fa0039
:101a7000004f78001e80fb0061b1200061407800bb
:101a80000080fa00000006000400fa00000f780051
:101a900021479800ae40900060b120001e00400039
:101aa000014878000080fa00000006000000fa00fb
:101ab00001c8bf000000fb00e20f500083003200ad
:101ac000e20f500005003c000000e0000a00320078
:101ad000e10f5000220032009e003700e40f50005a
:101ae0008a003200e40f50007f003500e50f5000ff
:101af0008f00320097003700020407000000e0006a
:101b0000980032000404070002e8b700218020009a
:101b10009140780070c3b30080cf50000b003c00b0
:101b2000218020009140780000c3b30080cf500096
:101b30000600340002c8bf008040780000cdb3002a
:101b400000c0400001e8b70089003700d0c0b300f2
:101b5000f503070002c8bf00f30307008400370045
:101b6000e80307000000e0008000320090b1200090
:101b70009040780000c3b30080cf500046003a0088
:101b800060b1200090407800a0c3b30080cf500027
:101b90000b003a00e0030700804078000000eb00f3
:101ba000b9ff07000040eb00b0ff0700f1b22000d2
:101bb00080487800f0b22000cc0307006c003700aa
:101bc00070b1200090407800a0c3b30080cf5000d7
:101bd0000b003a00d003070080407800100020007e
:101be000a9ff070010c0b300a0ff0700f1b220005a
:101bf00080487800f0b22000bc0307005c0037008a
:101c000080b1200090407800a0c3b30080cf500086
:101c10000b003a00c003070080407800200020003d
:101c200099ff070020c0b30090ff0700f1b2200029
:101c300080487800f0b22000ac0307004c00370069
:101c4000b5030700fb4f50000c003a0090b1200094
:101c5000d1c0b30001487800e0692800a303070061
:101c600060b12000a10307004dff07000168ef00ed
:101c700010c0b300ae0107003d003700406b2800e4
:101c80009a030700c06c28009803070060622800d0
:101c9000960307003600370090b1200001c3b3005f
:101ca0000148780060b12000a1c3b300014878006a
:101cb00070b12000a1c3b3000148780080b12000ba
:101cc000a1c3b3000148780029003700a06e2800a6
:101cd0008603070060b120008403070030ff07007f
:101ce0000168ef0022003700f06e28007f03070034
:101cf000f00207007d030700c05728007b030700a0
:101d000027ff07000168ef00190037006070280006
:101d100076030700eb02070074030700c057280092
:101d2000720307001eff07000168ef001000370074
:101d3000707128006d030700e60207006b030700bf
:101d4000c05728006903070015ff07000168ef006e
:101d50000700370012ff07000168ef0000000000d5
:101d60000300370000000000010037000000000001
:101d70000080fa00000006000000fa00c00407001e
:101d80000040780004e8b700bd0407000040780078
:101d90000ae8b7000568ef00a9fc07000768ef0034
:101da0000868ef000668ef000968ef00c0b1200086
:101db00001c2b30001487800d0b1200001c2b300d5
:101dc00001487800e0b12000f1c2b300014878007a
:101dd00010b2200001c2b3000148780020b22000f8
:101de00001c2b3000148780030b2200001c2b30044
:101df0000148780040b2200001c2b30001487800d9
:101e000050b2200001c2b3000148780060b2200047
:101e100001c2b3000148780070b2200001c2b300d3
:101e20000148780080b2200001c2b3000148780068
:101e30000080fa00000006000000fa000ac8bf0097
:101e4000aa0407000080fa00000006000000fa0063
:101e5000a40207000000e000080034000ac8bf0028
:101e6000ac04070071382100810f500003003600d8
:101e7000e504070010c0b300030037000768ef0057
:101e80000568ef000040eb000080fa00000006004b
:101e90000200fa00000f78001e007800cf80de00fc
:101ea0003dfa07000200200003fe230090fa07001d
:101eb0000200200083342400b9f9070015fa070056
:101ec000000078000080fa00000006000000fa0020
:101ed000881f780003c8bf000000fb00e20f50001d
:101ee000aa003200e20f500005003c000000e000b4
:101ef0000a003200e10f50004100320009013700b2
:101f0000e40f5000d4003200e40f5000c700350049
:101f1000e50f5000e00032000201370004c8bf00a6
:101f20007c0407000004780042050700d8ff070082
:101f3000800f5400f2003600c4ff07000004e000e8
:101f40001100320063020700718020009140780088
:101f50008180fb0001004000104078008afc0700ef
:101f600007c8bf000040e80007e8b70007c8bf0087
:101f70000084fb005b020700800f54001200350054
:101f80000768ef001000370009c8bf008080fb0021
:101f900008c8bf000080fb00c408dd0000804000ce
:101fa000317328006140780077fc070008c8bf0043
:101fb0000040e80008e8b70008c8bf00f04f500034
:101fc00001003a000868ef0006c8bf000040e800c2
:101fd00006e8b70006c8bf00f04f5000ca00360040
:101fe00010c0b30003e8b70004c8bf003f040700f7
:101ff00011c0b3000040eb0026fc0700c900370009
:1020000060b1200090407800a0c3b30080cf5000a2
:1020100025003a00c0b220009040780080c3b30091
:1020200080cf500004003c00c0b220001040780077
:102030000040e8000100370000c3b300c1b2200037
:1020400080487800d0b220009040780080c3b30070
:1020500080cf500004003c00d0b220001040780037
:102060000040e8000100370000c3b300d1b22000f7
:1020700080487800e0b220009040780080c3b30030
:1020800080cf500004003c00e0b2200010407800f7
:102090000040e8000100370000c3b300e1b22000b7
:1020a0008048780036003700c0b2200090407800a9
:1020b00060b120001040780080cf50000c0032004a
:1020c000c0b220009040780080c3b30080cf5000a1
:1020d00004003c00c0b22000104078000040e8003e
:1020e0000100370000c3b300c1b22000804878006f
:1020f000d0b220009040780070b1200010407800ed
:1021000080cf50000c003200d0b220009040780008
:1021100080c3b30080cf500004003c00d0b2200048
:10212000104078000040e8000100370000c3b30011
:10213000d1b2200080487800e0b2200090407800c2
:1021400080b120001040780080cf50000c00320099
:10215000e0b220009040780080c3b30080cf5000f0
:1021600004003c00e0b22000104078000040e8008d
:102170000100370000c3b300e1b2200080487800be
:1021800020c0b30003e8b70066003700cd010700a8
:102190000000e8001040780080407800c0b12000c6
:1021a00001487800c701070010407800804078009f
:1021b000d0b1200001487800be0107000000e8000f
:1021c0001040780080407800f0b12000014878008d
:1021d000b8010700104078008040780000b220006d
:1021e00001487800c0b2200010407800804078009c
:1021f00090b2200001487800d0b220001040780052
:1022000080407800a0b2200001487800e0b22000b1
:102210001040780080407800b0b22000014878007b
:1022200030c0b30003e8b7003e00370004c8bf0069
:10223000b803070021032000810f5000340036004e
:1022400004c8bf00a90307000668ef0040c0b30040
:1022500003e8b7003300370006c8bf008080fb00ea
:10226000c2b12000e2c078000040e80006e8b700f4
:1022700001407800c4fb070006c8bf00f04f5000c3
:102280002500360050c0b30003e8b70004c8bf0003
:10229000960307002300370004c8bf009d03070012
:1022a000910f2000810f50001d0036008d010700a6
:1022b0000000e0000b00340005c8bf000040e8004b
:1022c00005e8b70005c8bf000084fb0085010700d2
:1022d000800f5400010035000568ef0005c8bf00fd
:1022e00007e8b7000368ef008040eb000040eb0018
:1022f00068fb07000668ef000868ef000900370078
:102300000000000007003700000000000500370053
:10231000000000000300370000000000010037004b
:10232000000000004f0478000080fa000000060062
:102330000200fa00004f78001e41780091802000d2
:10234000824878000080fa00000006000000fa00d1
:102350001a28ef0007003700d040800021972000a6
:1023600002c2b30082707800d04080000000e80014
:10237000d0408800d0408000ef0f5000f6ff3400be
:102380000080fa00000006000000fa001a28ef00a2
:1023900007003700d0408000e1aa2000a2c3b300ac
:1023a00082707800d04080000000e800d0408800b3
:1023b000d0408000e20f5000f6ff34000080fa00a9
:1023c000000006000000fa00c9a2a9002c030700c3
:1023d0000040780018e8b7001668ef001968ef00b1
:1023e0001e68ef001c28ef00e7ff0700d7ff07007b
:1023f0000080fa00000006000200fa00000f7800da
:102400001e0078009040780090c3b30080cf500049
:1024100008003a001e00780001c3b30001487800ac
:102420001e00e800904078008140e80001487800f4
:10243000050037001e007800104078008040e8005a
:102440001e007800014878000080fa0000000600b5
:102450000200fa00004f78001e407800e14f500063
:1024600006003a001fc8bf000080fb000000d1003a
:10247000004078001fe8b70008003700f181200015
:102480009140780000c8b30000c070000080fb00dd
:102490000000d100004078001fe8b7000080fa007b
:1024a000000006000000fa0016c8bf000000fb0094
:1024b000e30f500045003200e30f500007003c00de
:1024c000e10f500018003200e10f500026003c00e0
:1024d0000000e0000a003200f4003700e50f500071
:1024e0006f003200e50f500053003500e60f50003a
:1024f00085003200e70f5000cd003200eb003700be
:102500005116800000002200008060000000e00002
:10251000db00320018c8bf00f402070010c0b3008f
:1025200016e8b700e10037005116800000002200d5
:10253000008060000000e000d3003a0018c8bf002f
:10254000f4020700e40f50000500360020c0b3007d
:1025500016e8b70018c8bf00e4020700d300370030
:102560001668ef00d10037005116800000002200ed
:10257000008060000000e000c500320018c8bf0005
:10258000e4020700e40f500002003e001668ef006e
:10259000c600370018c8bf00de020700ed0f50006c
:1025a00002003e001668ef00c00037001f68ef0011
:1025b0001e68ef0018c8bf00cc02070030c0b3008f
:1025c00016e8b7001a28ef00b800370018c8bf0097
:1025d000d0020700e10f500004003a0050168000be
:1025e0004d00de006140600017e8b7005016800023
:1025f0004d00de00614060008080fb0017c8bf0016
:102600000080fb000000e9004f00de00808f5000da
:10261000a1003a0018c8bf00be020700e10f500039
:102620009f00360018c8bf00b002070040c0b300ca
:1026300016e8b7009d00370018c8bf00b5020700b4
:10264000e40f5000980036001ec8bf00e64f50004f
:102650000a003e0030c0b30016e8b7001ec8bf0035
:102660000040e8001ee8b70017c8bf0078ff070069
:1026700018c8bf009d0207008c00370019c8bf00b2
:10268000e14f500003003a0050c0b30016e8b70015
:102690008600370060c0b30016e8b700830037003b
:1026a000f18120009140780000c4b30080cf500039
:1026b00004003a001968ef0070c0b30016e8b700d4
:1026c0000a003700d0408000f281200012417800db
:1026d0002197200082707800d04080000000e80040
:1026e000d040880030c0b30016e8b7001f68ef0084
:1026f0001e68ef0017c8bf0055ff070018c8bf00cd
:102700007a02070069003700f181200091407800cb
:1027100000c4b30080cf500006003a0020c0b300d0
:1027200019e8b70030c0b30016e8b7001a28ef0068
:1027300038003700d0408000e20f50000b003c0012
:10274000d0408000f281200012417800e1aa2000f0
:1027500082707800d04080000000e800d0408800ff
:1027600030c0b30016e8b7002a0037000040eb0085
:10277000befc07008000fb00e0aa200010407800ab
:102780000080fb00808f50001f003a0010c0b30093
:10279000b6fc07008000fb00f0aa20001040780083
:1027a0000080fb00808f500017003a0020c0b3006b
:1027b000aefc07008000fb0000ab2000104078005a
:1027c0000080fb00808f50000f003a0010c0b30063
:1027d00019e8b70030c0b30016e8b70000012000c8
:1027e000d0408800d0408000f28120001241780063
:1027f0002197200082707800d04080000000e8001f
:10280000d0408800030037001668ef00c0b32000f6
:10281000f9fe07001f68ef001e68ef0017c8bf0031
:102820000bff070018c8bf00300207001f00370069
:10283000a0b32000f0fe0700c0b32000eefe0700aa
:102840001668ef007cfd070020c0b300b8fe07004b
:10285000d0408000e0408800d1408000e0012000ae
:1028600000017800110009008200d80000407800c3
:1028700052020700a1020700000000000b00370011
:1028800000000000090037000000000007003700ca
:1028900000000000050037000000000003003700c2
:1028a0000000000001003700000000000080fa0076
:1028b000000006000000fa00c0b320000080fa000b
:1028c000000006000000fa00a0b320000080fa001b
:1028d000000006000000fa00209720000080fa00a7
:1028e000000006000000fa00e04080000080fa00ce
:1028f000000006000000fa00113a8000f00b2000f2
:102900000081600060042000710520002374200015
:10291000804978008149780082497800113680002a
:1029200000fe2f00008060003000b30010368800e9
:102930002135800000fe2f00008060000020a000f4
:1029400020358800103a8000000178000260a00065
:102950006004200071052000237420008049780065
:102960008149780082497800700620004011880073
:1029700021e2a80001118000f0cf2f00008060004c
:10298000001188002062a9000111800090ff2f0033
:1029900000806000001188002002a9002342a800e6
:1029a0001268ef009560a8000e68ef000ec8bf0027
:1029b0000fe8b7000fc8bf000ce8b7000cc8bf0095
:1029c0000de8b7000dc8bf0010e8b70010c8bf0081
:1029d00011e8b7000080fa00000006000000fa00cd
:1029e00012c8bf000000fb00e10f500010003200d1
:1029f000e10f500003003c000000e0000600320040
:102a00002b003700e20f50000e003200e30f5000a1
:102a1000150032002600370011c8bf000004e00096
:102a20002000320010c0b30012e8b70020003700c9
:102a300060000700a040880020c0b30012e8b70083
:102a40001b003700a0408000104078000004e00028
:102a50000300320030c0b30012e8b70014003700a2
:102a60001268ef00120037001111800000102000e2
:102a7000008060000000e0000c003200a0408000f8
:102a8000904078008100fb00211188000000e800e0
:102a9000a04088002342a80020c0b30012e8b7007d
:102aa00003003700000000000100370000000000b4
:102ab0000080fa00000006000200fa00000f780013
:102ac000040037001e007800104078001e0fe80058
:102ad000150007001e007800104078000004e00098
:102ae000f8ff3a000080fa00000006000200fa0039
:102af000000f78001e007800190007000080fa001f
:102b0000000006000000fa0010c8bf000080fb00b3
:102b10000080fa00000006000000fa004e000700e6
:102b20000080fa00000006000200fa00004f780062
:102b3000010037000060fe0011118000001020002d
:102b4000008060000000e000faff32001e00fb0081
:102b5000201188002342a8000080fa00000006002f
:102b60000200fa00000f78000cc8bf008080fb0054
:102b70000181400021872000810041009e087800eb
:102b80000040e8000ce8b700c180200091407800c8
:102b900000c8b30080cf500001003a000c68ef007d
:102ba00011c8bf000040e80011e8b7000080fa003b
:102bb000000006000200fa000ec8bf008080fb0083
:102bc000018140002187200081004100110f780021
:102bd0000040e8000ee8b700e18020009140780056
:102be00000c8b30080cf500001003a000e68ef002b
:102bf00011c8bf000040e90011e8b7001e007800ce
:102c00000080fa00000006000200fa00004f780081
:102c10000dc8bf008080fb00228320009e41780009
:102c200003f178000040e8000de8b700d1802000f3
:102c30009140780000c4b30080cf500001003a00fa
:102c40000d68ef0010c8bf000040e80010e8b700b2
:102c50000080fa00000006000200fa000fc8bf0062
:102c60008080fb002283200062cf78000040e800d3
:102c70000fe8b700f18020009140780000c4b30055
:102c800080cf500001003a000f68ef0010c8bf006d
:102c90000040e90010e8b7001e4078000080fa000c
:102ca000000006003600f800809fbe00829fbe0034
:102cb000849fbe00869fbe000000fa008560a900c8
:102cc00010118000620060000000e000010032008e
:102cd0002222a9003011800000407800caff0700be
:102ce0000080fa004f03be004f02be004f01be003d
:102cf0004f00be003600f900004006000000fa0058
:102d0000df000700004078002fe8b7002e68ef00d2
:102d100060b3200001c3b3000148780070b3200005
:102d200001c3b3000148780080b3200001c3b300a1
:102d300001487800c942a900c962a900c982a90056
:102d40000080fa00000006000200fa00881f7800e8
:102d5000000f78002ec8bf000000fb00e10f5000fc
:102d60001a003200e20f50005e0032000000e00066
:102d700079003a0060b320001e00400090407800c7
:102d800090c3b30080cf500004003c0060b320002b
:102d90001e004000104078000100370000c3b3005f
:102da00061b320009e804000804878002fc8bf009b
:102db000ce0007001e007800e20f500061003a00cc
:102dc00010c0b3002ee8b700630037002fc8bf0063
:102dd000d00007000000d1000040780091c3b3008c
:102de00000c0500030e8b7002fc8bf00c90007007e
:102df000f30f50000300360020c0b3002ee8b700e8
:102e0000550037001e007800e10f5000140032001a
:102e1000e20f5000220032000000e0004b003a00b8
:102e200060b32000104178000183200091407800b9
:102e300010c0b300814f510001003d000040eb0085
:102e40000080fb00610060004a00dd006116800028
:102e500001a0a1000100700060168800200037006a
:102e600070b3200010417800018320009140780069
:102e700010c0b300814f510001003d000040eb0045
:102e80000080fb00610060004b00dd0061168000e7
:102e900001b0a1000100700060168800100037002a
:102ea00080b3200010417800018320009140780019
:102eb00010c0b300814f510001003d000040eb0005
:102ec0000080fb00610060004c00dd0061168000a6
:102ed00001c0a10001007000601688000000000021
:102ee0001d00370060b320001e0040001044780031
:102ef0001e00780000407800dcfa0700804f540084
:102f00000500320060b320001e0040001040780031
:102f10000040e8000300370060b320001e004000be
:102f20001040780061b320009e8040008048780007
:102f30001e007800e20f500006003a002e68ef00f5
:102f4000050037000000000003003700000000000b
:102f500001003700000000004f0478000080fa00f4
:102f6000000006000000fa000080fa0000000600e1
:102f7000809fbe00821f78000000fa008460a900d4
:102f8000304180000000e80030418800314180007d
:102f9000f0522700808f50001d0036002828ef00d7
:102fa00017003700404180004200dd008080e800cb
:102fb00020ab20000080400010407800e14f50001e
:102fc0000c003a0040418000414180004209dd0090
:102fd00021ab2000810041001101780031418000c7
:102fe000810051004201dd0020ab200000004100c3
:102ff00001087800404180000000e800404188005e
:1030000040418000f80f5000e6ff34002628ef0012
:103010000080fa004f0178004f00be00004006001b
:103020000200fa000040eb00004f78000700370074
:103030001e80fb00c200dd0040ab2000008040008d
:103040008040eb00014878001e4fe8001e407800e9
:10305000f84f5000f6ff36002628ef0004a1a90023
:103060000481a800007d20001008880005e1a80068
:103070008460a9009460a8000080fa0000000600a7
:103080000200fa000040eb00004f78000600370015
:103090001e4fe8001e407800f94f500002003a0031
:1030a0000080eb000f0037001e80fb004200dd00b7
:1030b0008080e80020ab20000080400010407800b5
:1030c000e14f5000f2ff32001e80fb00c200dd0025
:1030d00040ab20000080400011c0b30001487800e0
:1030e0001e80fb000080fa00000006000200fa00cb
:1030f000004f78001e80fb00314180004201dd005e
:1031000020ab200000004100010878000080fa0098
:10311000000006000400fa002047980030418000bb
:10312000000f78009e0078002e4090000080fb0089
:103130004201dd0020ab20000000410010007800bb
:10314000008050000080fa00000006000200fa0033
:10315000004f78001e80fb00c200dd0040ab200065
:10316000008040008040eb00014878000080fa00b9
:10317000000006000000fa000080fa0000000600cf
:103180000000fa00c022a900c422a900bcff070069
:10319000004078002ae8b70020c0b3002be8b70051
:1031a0002c68ef000080fa00000006000000fa0022
:1031b00020b320000080fa00000006000200fa00a0
:1031c000004f78009e40780020b32000014878002e
:1031d0001e4078008040e80030b3200001487800ad
:1031e0001e40780080c0e80040b32000014878000d
:1031f0001e407800e340400050b3200001487800b2
:103200000080fa00000006000000fa0020c0b300b1
:103210002be8b7000080fa00000006000000fa006a
:103220002bc8bf000014a2000080fb000000ea00d1
:103230004f00de00004078000080fa000000060029
:103240000000fa002bc8bf000080fb00e10f500017
:1032500014003200e20f5000210032000000e000b4
:1032600024003a002ac8bf00aaff0700c18220003c
:10327000914078008180fb0022b32000e2c07800fa
:103280008180fb00810f5000170039002ac8bf0061
:1032900096ff0700c422a80010c0b3002be8b700b7
:1032a000140037002ac8bf009aff0700c18220001f
:1032b000914078008180fb0022b32000e2c07800ba
:1032c0008180fb00810f5000090039002ac8bf002f
:1032d00086ff0700c422a9002b68ef000500370015
:1032e000000000000300370000000000010037006c
:1032f000000000000080fa00000006000000fa0054
:103300002bc8bf00e24f500002003a002b68ef00cc
:103310000300370020c0b3002be8b700c422a90087
:103320002bc8bf000080fb000000e9004f00de005a
:10333000004078000080fa00000006000000fa005b
:103340002cc8bf00e34f500002003a002c68ef0089
:10335000030037002cc8bf000040e8002ce8b7008d
:103360000080fa00000006000000fa00c002a80079
:1033700021a3a8002103a900001980004800de0055
:10338000614060000080fb00610060004900dd00da
:10339000011980000190a10001007000001988004f
:1033a00020e3a800001980004700de0061406000b3
:1033b0000080fb00610060004600dd000119800014
:1033c0000160a10001007000001988000019800050
:1033d0004600de00614060000080fb00610060008c
:1033e0004500dd00011980000150a10001007000be
:1033f0000019880011198000f0ff21000080600092
:10340000101988002343a9002223a80000102000df
:10341000201988002823ef00100020008019880060
:1034200021e3a8002023a8002043a8000080fa0080
:10343000000006000000fa00001880000080fa007a
:043440000000060082
:020000040000fa
:10344400b20a00006400000000000000260800002a
:103454000400000000000000200800000600000036
:1034640000000000320b0000040000000200000015
:1034740001010100010000002a080000040000000e
:1034840000000000320800004001000000000000bd
:103494000c0800000a000000000000002c0b0000d3
:1034a400060000000200000030303000300d000043
:1034b400160b0000160000000000000000080000c9
:1034c4000c00000000000000360b000004000000a7
:1034d400000000002e0800000400000000000000ae
:1034e4003a0b0000040000000200000030303000fd
:1034f40030000000720900004001000000000000dc
:10350400160800000a00000000000000000000008f
:020000040000fa
:103514000000fa004427ef0040a7a9000080fa0049
:10352400000006000000fa00f9ff0700bbfe0700d8
:1035340001c1b30020c0b30068f607000fff070005
:103544009ffb070087ff0700e9fc0700eafd07006f
:10355400baf60700c8f607008040eb000040eb0015
:10356400cbf607004076280045f7070001fa07006c
:103574001ff907000000eb00f2fd07001000200017
:10358400f0fd070020002000eefd0700c4fb07004b
:103594004dfa070029ff070043f907000efd070055
:0435a400f4ff3700f9
:020000040000fa
:04aff8008b69000061
:020000040000fa
:04affc003b3f0000d7
:00000001FF
