:020000040000fa
:080000000002040000000000f2
:020000040000fa
:04000800c80200002a
:020000040000fa
:04000c00c802000026
:020000040000fa
:04001000c802000022
:020000040000fa
:04001400c80200001e
:020000040000fa
:04001800c80200001a
:020000040000fa
:04001c00c802000016
:020000040000fa
:04002000c802000012
:020000040000fa
:04002400c80200000e
:020000040000fa
:04002800c80200000a
:020000040000fa
:04002c00c802000006
:020000040000fa
:04003000c802000002
:020000040000fa
:04003400a21800000e
:020000040000fa
:04003800c8020000fa
:020000040000fa
:04003c00c8020000f6
:020000040000fa
:04004000c8020000f2
:020000040000fa
:04004400c8020000ee
:020000040000fa
:04004800c8020000ea
:020000040000fa
:04004c00c8020000e6
:020000040000fa
:04005000c8020000e2
:020000040000fa
:040054000817000089
:020000040000fa
:04005800c8020000da
:020000040000fa
:04005c00c8020000d6
:020000040000fa
:04006000c8020000d2
:020000040000fa
:04006400c8020000ce
:020000040000fa
:04006800c8020000ca
:020000040000fa
:04006c00c8020000c6
:020000040000fa
:04007000c8020000c2
:020000040000fa
:04007400c8020000be
:020000040000fa
:04007800c8020000ba
:020000040000fa
:04007c00c8020000b6
:020000040000fa
:04008000c8020000b2
:020000040000fa
:04008400c8020000ae
:020000040000fa
:04008800c8020000aa
:020000040000fa
:04008c00c8020000a6
:020000040000fa
:04009000c8020000a2
:020000040000fa
:04009400c80200009e
:020000040000fa
:04009800c80200009a
:020000040000fa
:04009c00c802000096
:020000040000fa
:0400a000c802000092
:020000040000fa
:0400a400c80200008e
:020000040000fa
:0400a800c80200008a
:020000040000fa
:0400ac00c802000086
:020000040000fa
:0400b000c802000082
:020000040000fa
:0400b400c80200007e
:020000040000fa
:0400b800c80200007a
:020000040000fa
:0400bc00c802000076
:020000040000fa
:0400c000c802000072
:020000040000fa
:0400c400c80200006e
:020000040000fa
:0400c800c80200006a
:020000040000fa
:0400cc00c802000066
:020000040000fa
:0400d000c802000062
:020000040000fa
:0400d400c80200005e
:020000040000fa
:0400d800c80200005a
:020000040000fa
:0400dc00c802000056
:020000040000fa
:0400e000c802000052
:020000040000fa
:0400e400c80200004e
:020000040000fa
:0400e800c80200004a
:020000040000fa
:0400ec00c802000046
:020000040000fa
:0400f000c802000042
:020000040000fa
:0400f400c80200003e
:020000040000fa
:0400f800c80200003a
:020000040000fa
:0400fc00c802000036
:020000040000fa
:04010000c802000031
:020000040000fa
:04010400c80200002d
:020000040000fa
:04010800c802000029
:020000040000fa
:04010c00c802000025
:020000040000fa
:04011000c802000021
:020000040000fa
:04011400c80200001d
:020000040000fa
:04011800c802000019
:020000040000fa
:04011c00c802000015
:020000040000fa
:04012000c802000011
:020000040000fa
:04012400c80200000d
:020000040000fa
:04012800c802000009
:020000040000fa
:04012c00c802000005
:020000040000fa
:04013000c802000001
:020000040000fa
:04013400c8020000fd
:020000040000fa
:04013800c8020000f9
:020000040000fa
:04013c00c8020000f5
:020000040000fa
:04014000c8020000f1
:020000040000fa
:04014400c8020000ed
:020000040000fa
:04014800c8020000e9
:020000040000fa
:04020800c802000028
:020000040000fa
:04020c00c802000024
:020000040000fa
:04021000c802000020
:020000040000fa
:04021400c80200001c
:020000040000fa
:04021800c802000018
:020000040000fa
:04021c00c802000014
:020000040000fa
:04022000c802000010
:020000040000fa
:04022400c80200000c
:020000040000fa
:04022800c802000008
:020000040000fa
:04022c00c802000004
:020000040000fa
:04023000c802000000
:020000040000fa
:04023400c8020000fc
:020000040000fa
:04023800c8020000f8
:020000040000fa
:04023c00c8020000f4
:020000040000fa
:04024000c8020000f0
:020000040000fa
:04024400c8020000ec
:020000040000fa
:04024800c8020000e8
:020000040000fa
:04024c00c8020000e4
:020000040000fa
:04025000c8020000e0
:020000040000fa
:04025400c8020000dc
:020000040000fa
:04025800c8020000d8
:020000040000fa
:04025c00c8020000d4
:020000040000fa
:04026000c8020000d0
:020000040000fa
:04026400c8020000cc
:020000040000fa
:04026800c8020000c8
:020000040000fa
:04026c00c8020000c4
:020000040000fa
:04027000c8020000c0
:020000040000fa
:04027400c8020000bc
:020000040000fa
:04027800c8020000b8
:020000040000fa
:04027c00c8020000b4
:020000040000fa
:04028000c8020000b0
:020000040000fa
:04028400c8020000ac
:020000040000fa
:04028800c8020000a8
:020000040000fa
:04028c00c8020000a4
:020000040000fa
:04029000c8020000a0
:020000040000fa
:04029400c80200009c
:020000040000fa
:04029800c802000098
:020000040000fa
:04029c00c802000094
:020000040000fa
:0402a000c802000090
:020000040000fa
:0402a400c80200008c
:020000040000fa
:0402a800c802000088
:020000040000fa
:0402ac00c802000084
:020000040000fa
:0402b000c802000080
:020000040000fa
:0402b400c80200007c
:020000040000fa
:0402b800c802000078
:020000040000fa
:0402bc00c802000074
:020000040000fa
:0402c000c802000070
:020000040000fa
:0402c400c80200006c
:020000040000fa
:0402c800c802000068
:020000040000fa
:0402cc00c802000064
:020000040000fa
:0402d000c802000060
:020000040000fa
:0402d400c80200005c
:020000040000fa
:0402d800c802000058
:020000040000fa
:0402dc00c802000054
:020000040000fa
:0402e000c802000050
:020000040000fa
:0402e400c80200004c
:020000040000fa
:0402e800c802000048
:020000040000fa
:0402ec00c802000044
:020000040000fa
:0402f000c802000040
:020000040000fa
:0402f400c80200003c
:020000040000fa
:0402f800c802000038
:020000040000fa
:0402fc00c802000034
:020000040000fa
:04030000c80200002f
:020000040000fa
:04030400c80200002b
:020000040000fa
:04030800c802000027
:020000040000fa
:04030c00c802000023
:020000040000fa
:04031000c80200001f
:020000040000fa
:04031400c80200001b
:020000040000fa
:04031800c802000017
:020000040000fa
:04031c00c802000013
:020000040000fa
:04032000c80200000f
:020000040000fa
:04032400c80200000b
:020000040000fa
:04032800c802000007
:020000040000fa
:04032c00c802000003
:020000040000fa
:04033000c8020000ff
:020000040000fa
:04033400c8020000fb
:020000040000fa
:04033800c8020000f7
:020000040000fa
:04033c00c8020000f3
:020000040000fa
:04034000c8020000ef
:020000040000fa
:04034400c8020000eb
:020000040000fa
:04034800c8020000e7
:020000040000fa
:10040000cfb320000e7f22000e0188000000000004
:10041000000020000000e000020032000001200087
:1004200020028800140007005b0007000000e000c5
:1004300003003a00c0b02100010020000200370094
:100440000000200001002000810f70000100320038
:1004500014000700000020000000e000020032004d
:1004600000000200000000007e1b020000000000ef
:100470000040da000000fe004440a90020212000d6
:100480000000e0000300320000002000a00188000e
:100490004440a800000006008a1f78008b1f7800e7
:1004a0000000060091018800800478000000eb0045
:1004b0001a003700e284440032a0b4009905ba0063
:1004c000e284440032a0b4009906ba00e2844400f9
:1004d00032a0b4000006eb00476fde00fd07b2005b
:1004e000636ce10003003a00ebff07000000eb0043
:1004f0000a003700606ce10004003a00005deb0088
:100500008b05e900fdff3e00040037006168e10053
:10051000010032000086eb000b00070019c7ba008b
:100520001905ba000e04e00003003a000a00e000da
:10053000e0ff3a0000000600fe07b2009e018800be
:100540008a047800f5ff3700395dba008b05e900b1
:100550000c003200295dba008b05e900080032006a
:100560000c00e00003003a00e284440032a0b40032
:10057000f5ff370019ddba008b05e900faff3a00f4
:100580008904e800e184440032a0b40000000600c1
:100590000040da000000fe000000050003f0a200a9
:1005a000889fbe008a9fbe008c1f7800b80007009d
:1005b000bf0033006450e1004f0032006420e100ce
:1005c0005200320003826c0007003b000905d00096
:1005d0000306d000820f54000c065d0002003900b3
:1005e00002003200890178000306780085825500f8
:1005f00004003d000003fd008103fd008502ea00c8
:100600008b854200840f720002003b0060001000e6
:10061000e08018006011b8000005eb007a28e100c6
:100620000a00390006007800c75ddd00f707b20058
:10063000878075002d003700828171000a017800e3
:10064000610560008180d1000080d3008502e9004f
:10065000f9ff3b00060440008784480002003b008d
:1006600060041400e0841c000988a3000700320025
:100670008a81710082817100610164008904d10066
:100680000884d3008b05e800170037000978a30021
:1006900013003a000b00e000130034008b05e90062
:1006a0000804440089844c000a4474000978a300bb
:1006b0000d003a000b00e000070034008b05e90054
:1006c0000804440089844c0001003a000b0020001b
:1006d0000978a300f7ff32000001eb0002003700a9
:1006e000828171000a0178002e0007000cf0a7003b
:1006f00001f0a000770037006420e10002003a001a
:10070000838f6c00770033000801be000200be003a
:10071000700037000001be00480007000470a70009
:1007200003f0a1006509b100160032000d0035008c
:100730006828e10006003500f0ff2f00f1ff2700d8
:100740000300e00013003b0001002800000005004a
:1007500000004000818048008502e900fcff3a006b
:1007600008003700f88f420002003c008000eb00d8
:10077000000005008100d1000080d3008502e80060
:10078000fcff3a000300e00002003b0060001000a4
:10079000e0801800000006004f89de00820178002a
:1007a0008700370081002000618055000b003d006c
:1007b0000b00200061fe2f000100e1001d0034004d
:1007c00082817100610164008904d1000884d30032
:1007d0000000e800faff3a007100200061006400a8
:1007e0000300700002006000090032006104440050
:1007f000e0844c000988a500050032008b05e80064
:100800006808e10002003a008904d1000884d3009e
:10081000f20f20000258e10005003d00c75ddd0039
:10082000f907b20089807500080078000000060012
:100830000bf827008b00780000000500c70ade00d7
:10084000f107b200f50fb20008003200e1cf42001c
:10085000020032000170a00024000500810f70002a
:10086000010032000408050044000500810f7000fb
:1008700002003a00140005008502e9000000400073
:1008800081c04800fcff3b000170a000240005006f
:100890000004be00e9ff07000003be000405be001f
:1008a0000200be00e5ff0700844f7500000006004f
:1008b0000200be006450e100050036006420e10043
:1008c000020036000968a30001003a000800be00db
:1008d0000160a0004f0678004f05be004f04be0027
:1008e00000000600f0ff2f00f1ff2700f9ff37009e
:1008f000889fbe008a9fbe008c1f7800e4ff07001f
:10090000ebff330003866c006450e10024003200ea
:100910006420e100270032006150e1002200320033
:100920006120e100210032008b854200eb07b1001d
:100930000134b800003ab8000804420089844a0033
:10094000013ab8000030b8008880400009014a0030
:10095000040033000000400081804800020149008b
:100960008b05e900c909dd00830170000100320038
:1009700013002000c814de004814dd004709de0023
:100980001200b200c808de000884700085ff07006e
:1009900001f0a1000cf0a70001f0a000cdff37008e
:1009a0006120e100cfff32000801be000200be005e
:1009b000f7ff37006150e100fcff3a00c9ff370044
:1009c000881f7800030478000300e00007003d0062
:1009d00060001000e080180060011900e08119003b
:1009e00002003b0001f02d00030037000400070067
:1009f00008f0a70001f0a0004f04780000000600f6
:100a0000889fbe008a9fbe000082700004027100b1
:100a100004827100260032000004be000200be0005
:100a20006011b8006b092000950220000182cf0000
:100a30000a0039000541b1000082cf0007003900eb
:100a40000541b1000982cf00040039000541b10021
:100a50000882cf00010039000541b1000542520073
:100a6000120032000a003b008281710061016400c3
:100a70008100d1000080d3008984d3000884d30092
:100a80008b05e8000442e800f7ff3a000700370052
:100a90000804440089844c0000004800818048001c
:100aa0008b05e9000442e900f9ff3a003dff070029
:0c0ab0004f05be004f04be000000060011
:020000040000fa
:100abc000d0a00004c650000732000006f700000f0
:100acc00636900006f6e0000732000006465000015
:100adc00207400006573000074200000736f000028
:100aec006e3a00000d0a0000000000000d0a000024
:100afc0000000000312d0000496e000074720000ef
:100b0c006f6400007569000072200000756e0000b3
:100b1c00206e00006f750000206900006465000005
:100b2c006e74000069660000696300006164000077
:100b3c006f7200000d0a000000000000322d000052
:100b4c00436f00006e730000756c00007461000050
:100b5c007220000049440000206100006374000012
:100b6c00756100006c0d00000a00000000330000ed
:100b7c002d4300006f6e0000737500006c74000054
:100b8c006172000020740000726100006d6500004d
:100b9c007320000069640000656e00007469000039
:100bac00666900006361000064650000730d00005d
:100bbc000a000000003400002d4300006f6e00009e
:100bcc00737500006c7400006172000020740000ea
:100bdc00726100006d6500007320000072650000fa
:100bec006275000064650000730d00000a000000cf
:100bfc00003500002d56000069730000756100007f
:100c0c006c6900007a610000722000006c27000003
:100c1c00756c0000746900006d2000006d690000a7
:100c2c00737300006174000067650000207200009f
:100c3c0065620000757400000d0a000000000000e1
:100c4c000d0a0000005000006572000020730000c7
:100c5c006f7200007469000072200000646500006f
:100c6c0020710000756100006c7300006576000057
:100c7c006f6c0000206f000070630000696f000053
:100c8c002c20000070720000656d000020450000f3
:100c9c00534300000d0a0000000a00000d50000034
:100cac006c61000063610000206700007275000039
:100cbc007020000037370000392e00002053000050
:100ccc0069730000746500006d65000073200000fe
:100cdc004469000067690000746100006c730000d7
:100cec002069000020750000507200006f63000046
:100cfc006573000073610000646f00007273000084
:100d0c000d0a0000000000004d6500006e7500002b
:100d1c002064000065200000736500006c65000015
:100d2c0063630000696f00000d0a00000000000002
:100d3c00494400003a200000005400007261000099
:100d4c006d6500007320000069640000656e000092
:100d5c00746900006669000063610000646500004e
:100d6c00733a00002000000054720000616d000016
:100d7c00657300002072000065620000756400005d
:100d8c00657300003a200000004c0000277500003d
:100d9c006c740000696d0000206d00006973000028
:100dac00736100007467000065200000726500002c
:100dbc006275000074200000657300003a2000008a
:100dcc000048000061730000206900006e74000090
:100ddc00726f0000647500006974000020650000eb
:100dec006c200000494400003a200000004a00003a
:100dfc00612000006861000073200000696e000033
:100e0c00747200006f6400007569000074200000ab
:100e1c00656c000020490000442100000020000007
:100e2c0050720000656d0000204500005343000027
:100e3c002070000065720000207400006f720000ca
:100e4c006e61000072200000616c0000204d0000fb
:100e5c00656e0000752100000057000061690000fc
:100e6c00746900006e670000206600006f7200005d
:100e7c0020490000442000002049000044200000cc
:100e8c00736500007420000020200000202000006a
:100e9c002020000020200000204e0000657700007c
:100eac00204d000065730000736100006765000051
:100ebc00202000002020000020000000426f0000d5
:100ecc006f740000696e0000672e00002e2e00006b
:040edc000000000012
:020000040000fa
:100ee0000000fa00e05528005b070700c057280003
:100ef000590707000058280057070700405a2800e4
:100f000055070700d05b280053070700105e280034
:100f100051070700f05f28004f07070060622800b4
:100f20004d070700906228004b0707000080fa0079
:100f3000000006000000fa003065280046070700a0
:100f4000a068280044070700e5ff0700c108070064
:100f50000040780000e8b7000168ef0060b12000b1
:100f6000a1c3b3000148780070b12000a1c3b30051
:100f70000148780080b12000a1c3b3000148780087
:100f800090b1200001c3b30001487800a0b1200057
:100f9000a1c0b30001487800b0b120008040eb0050
:100fa000014878000080fa00000006000200fa0004
:100fb000004f78001e80fb0061b120006140780086
:100fc0000080fa00000006000400fa00000f78001c
:100fd00021479800ae40900060b120001e00400004
:100fe000014878000080fa00000006000000fa00c6
:100ff00001c8bf000000fb00cf80de0022032000fc
:1010000003002000820f5000838f5800c0003e0074
:1010100000600100320037004b00370069003700e4
:101020006f003700750037007b003700b8003700cd
:10103000b7003700b6003700b5003700b4003700fe
:10104000b3003700b2003700b1003700b0003700fe
:10105000af003700ae003700ad0037007500370035
:10106000810037008c003700a9003700a800370046
:10107000a7003700a6003700a5003700a4003700fe
:10108000a3003700a2003700a1003700a0003700fe
:101090009f0037009e0037009d0037009c003700fe
:1010a0009b0037009a0037009900370098003700fe
:1010b00097003700960037009500370094003700fe
:1010c00093003700920037009100370090003700fe
:1010d0008f0037008e0037008d0037008700370003
:1010e000e30607000000e0008d003200e50607007f
:1010f00002e8b700218020009140780070c3b3005f
:1011000080cf50000b003c002180200091407800ef
:1011100000c3b30080cf50000600340002c8bf00f7
:101120008040780000cdb30000c0400001e8b70067
:1011300084003700d0c0b300d606070002c8bf0045
:10114000d40607007f003700c90607000000e00052
:101150007500320090b120009040780000c3b300c9
:1011600080cf50000a003a00c60607008040780091
:101170000000eb0094ff07000040eb008bff07002e
:10118000c406070020c1b30001e8b7006d003700b6
:1011900090b1200001c3b3000148780060b1200085
:1011a000a1c3b3000148780070b12000a1c3b3000f
:1011b0000148780080b12000a1c3b3000148780045
:1011c00060003700e0692800a306070060b1200036
:1011d000a106070020c3b30001e8b700590037009b
:1011e000306a28009c0607000d0607009a060700d3
:1011f00020c3b30001e8b70052003700a06b2800fd
:10120000950607000a0607009306070020c3b300ef
:1012100001e8b7004b003700b06c28008e060700cd
:10122000070607008c06070020c3b30001e8b700db
:10123000440037008e0607000000e0003c0032004a
:101240009006070080407800100020005eff070035
:1012500010c0b30055ff07008e06070030c1b30071
:1012600001e8b70037003700810607000000e00002
:101270003100320083060700804078002000200003
:1012800051ff070020c0b30048ff07008106070098
:101290000168ef002b003700750607000000e00032
:1012a0002700320077060700fb4f50000c003a0081
:1012b00090b12000d1c0b30001487800706e2800c2
:1012c0006506070060b120006306070010c0b30088
:1012d000b101070020c3b30001e8b70019003700cf
:1012e000d06f28005c060700507128005a060700de
:1012f000606228005806070012003700c057280017
:1013000055060700f6fe07000168ef000d003700e4
:10131000f3fe07000168ef0000000000090037003d
:101320000000000007003700000000000500370043
:10133000000000000300370000000000010037003b
:10134000000000000080fa00000006000000fa0023
:10135000c00707000040780004e8b700bd07070099
:10136000004078000ae8b7000568ef00e9010700cf
:101370000768ef000868ef000668ef000968ef00f3
:10138000c0b1200001c2b30001487800d0b12000f4
:1013900001c2b30001487800e0b12000f1c2b300ff
:1013a0000148780010b2200001c2b3000148780063
:1013b00020b2200001c2b3000148780030b2200002
:1013c00001c2b3000148780040b2200001c2b3005e
:1013d0000148780050b2200001c2b30001487800f3
:1013e00060b2200001c2b3000148780070b2200052
:1013f00001c2b3000148780080b2200001c2b300ee
:10140000014878000080fa00000006000000fa00a1
:101410000ac8bf00aa0707000080fa000000060003
:101420000000fa008a0507000000e0000800340010
:101430000ac8bf00ac07070071382100810f5000b7
:1014400003003600e507070010c0b30003003700b3
:101450000768ef000568ef000040eb000080fa002d
:10146000000006000200fa00000f78001e0078005d
:10147000cf80de00c8fc07000200200003fe23002e
:101480001bfd0700020020008334240044fc0700f9
:10149000a0fc0700000078000080fa0000000600b1
:1014a0000000fa0060b1200090407800a0c3b300b3
:1014b00080cf500025003a0000b320009040780013
:1014c00080c3b30080cf500004003c0000b3200074
:1014d000104078000040e8000100370000c3b3006e
:1014e00001b320008048780010b3200090407800bd
:1014f00080c3b30080cf500004003c0010b3200034
:10150000104078000040e8000100370000c3b3003d
:1015100011b320008048780020b32000904078006c
:1015200080c3b30080cf500004003c0020b32000f3
:10153000104078000040e8000100370000c3b3000d
:1015400021b32000804878003600370000b3200027
:101550009040780060b120001040780080cf5000ab
:101560000c00320000b320009040780080c3b3002c
:1015700080cf500004003c0000b3200010407800f1
:101580000040e8000100370000c3b30001b32000b1
:101590008048780010b320009040780070b120009f
:1015a0001040780080cf50000c00320010b32000b3
:1015b0009040780080c3b30080cf500004003c000e
:1015c00010b32000104078000040e8000100370010
:1015d00000c3b30011b320008048780020b320007e
:1015e0009040780080b120001040780080cf5000fb
:1015f0000c00320020b320009040780080c3b3007c
:1016000080cf500004003c0020b320001040780040
:101610000040e8000100370000c3b30021b3200000
:10162000804878000080fa00000006000000fa0000
:10163000ff0407000000e8001040780080407800b8
:10164000c0b1200001487800f9040700104078007c
:1016500080407800d0b1200001487800f0040700f5
:101660000000e8001040780080407800f0b12000d1
:1016700001487800ea0407001040780080407800b4
:1016800000b22000014878000080fa000000060047
:101690000000fa0000b3200010407800804078007d
:1016a00090b220000148780010b32000104078006c
:1016b00080407800a0b220000148780020b32000cc
:1016c0001040780080407800b0b2200001487800d7
:1016d0000080fa00000006000000fa00881f780071
:1016e00005c8bf000040e80005e8b70005c8bf0016
:1016f0000084fb00d6040700800f54000100350071
:101700000568ef0005c8bf0007e8b7004f04780080
:101710000080fa00000006000000fa00881f780030
:1017200003c8bf000000fb00e40f50005c00320063
:10173000e40f50000c003c00e10f50002300320089
:10174000e10f500003003c000000e0000f003200f9
:101750008e003700e20f50002f003200e30f5000e0
:101760003f00320089003700e60f5000550032007c
:10177000e60f50004e003500e70f50005c003200cd
:10178000e80f50006a0032008000370004c8bf0034
:10179000d5060700000478009b07070031ff07000b
:1017a000800f5400720036001dff07000004e000a7
:1017b0000300320010c0b30003e8b7007300370025
:1017c00020c0b30003e8b700700037009c04070096
:1017d00071802000914078008180fb000100400072
:1017e000104078001d01070007c8bf000040e80056
:1017f00007e8b70007c8bf000084fb009404070097
:10180000800f5400010035000768ef0030c0b300be
:1018100003e8b7005d00370009c8bf008080fb0007
:1018200008c8bf000080fb00c408dd000080400045
:1018300031732800614078000801070008c8bf0024
:101840000040e80008e8b70008c8bf00f04f5000ab
:1018500001003a000868ef0030c0b30003e8b700a9
:1018600006c8bf000040e80006e8b70006c8bf0091
:10187000f04f50000800360040c0b30003e8b70046
:1018800004c8bf008e06070011c0b3000040eb0083
:10189000b50007003d0037000368ef003b0037004c
:1018a000fffe070050c0b30003e8b7003700370061
:1018b0005eff070076ff070060c0b30003e8b700d3
:1018c0003200370004c8bf0087060700210320004c
:1018d000810f50002800360004c8bf0078060700ba
:1018e0000668ef0070c0b30003e8b70027003700b8
:1018f00006c8bf008080fb00c2b12000e2c07800b3
:101900000040e80006e8b70001407800d300070077
:1019100006c8bf00f04f50001900360080c0b30069
:1019200003e8b70004c8bf006506070017003700ca
:1019300004c8bf006c060700910f2000810f500003
:1019400011003600420407000000e00001003400ee
:1019500061ff07000368ef008040eb000040eb00f0
:10196000810007000668ef000868ef0007003700f5
:1019700000000000050037000000000003003700f1
:101980000000000001003700000000004f04780054
:101990000080fa00000006000200fa00004f780004
:1019a0001e41780091802000824878000080fa0073
:1019b000000006000400fa00204798003147980014
:1019c00024060700204188002e40900020e8b70040
:1019d0003e40900021e8b7002368ef0023c8bf0015
:1019e00022e8b700c8a2a900401680004500de002a
:1019f000614060000080fb004f00dd004216800067
:101a0000f1ff27008100610001007000401688008e
:101a1000401680004f00de00004078000080fb0090
:101a2000610060004300dd00411680000130a1002c
:101a300001007000401688000000eb00000f7800e5
:101a4000290037002041800041062000cf00070018
:101a500030c0b3002a02070020418000510020005e
:101a6000ca00070030c0b3002502070020418000f3
:101a700011002000c500070030c0b300200207009d
:101a80002041800011002000c000070020c0b300ea
:101a90001b0207002041800011002000bb0007004e
:101aa00080c2b3003b010700d801070080c0b3002b
:101ab00038010700d501070010c0b3003501070049
:101ac0002041800031002000b0000700cf01070056
:101ad00060c0b3002f010700cc010700f0c0b300c5
:101ae0002c0107001e0fe8001e007800e10f5000d7
:101af000d4ff34000080fa00000006000000fa0065
:101b00002041800000407800050607000080fa00b0
:101b1000000006000000fa00bc01070010c0b3007e
:101b20001c010700204180003100200097000700c1
:101b30000080fa00000006000000fa00b301070070
:101b4000e0c0b300130107000080fa0000000600a7
:101b50000000fa00ad010700c0c0b3000d0107008e
:101b60000080fa00000006000400fa0020479800f8
:101b70003147980020c8bf000080fb00e20f5000f2
:101b800003003200e40f50000b0032002200370047
:101b90002e4090008000fb003e4090000004e000da
:101ba00002003a000000eb000100370000042000b2
:101bb000008f40001d0037002e4090000000fb0009
:101bc000000f78003e409000e14f500003003a00c3
:101bd000010420001e8f4000140037003e4090009a
:101be000e24f500004003a0021c8bf000080fb0013
:101bf0001e0f40000d0037003e409000e34f5000a4
:101c000009003a0021c8bf000080fb000004b000ba
:101c10001e0f4000050037002e4090000000fb0022
:101c2000000f780001003700000000007701070076
:101c30001e0078008040780000c8b30000c070002b
:101c4000d40007003e40900022e8b7002e409000ec
:101c500023e8b7000080fa00000006000200fa0046
:101c6000004f7800690107001e4078001801070046
:101c700023c8bf000040e80023e8b70020c8bf0029
:101c8000e34f500010003a0023c8bf00f34f50004c
:101c90002f0036002368ef0022c8bf000040e80094
:101ca00022e8b70022c8bf00e34f50000100360011
:101cb0002268ef0022c8bf008040780023c8bf0020
:101cc000a9ff07002200370020c8bf00e24f5000e4
:101cd00012003a00318220009140780070c2b300b7
:101ce00080cf50001a0036002368ef0022c8bf00e2
:101cf0000040e80022e8b70022c8bf00e14f5000d2
:101d0000010036002268ef0022c8bf008040780042
:101d100023c8bf0094ff07000d00370022c8bf0092
:101d2000e14f50000a003a003182200091407800d3
:101d300070c2b30080cf5000010036002368ef006e
:101d400022c8bf008040780023c8bf0086ff07007c
:101d50000080fa00000006000200fa00000f780080
:101d6000040037001e007800104078001e0fe800c5
:101d7000baff07001e007800104078000004e00061
:101d8000f8ff3a000080fa00000006000400fa00a4
:101d9000000f7800110798001e00780000407800be
:101da00047050700000000001e0078000040780092
:101db0004d0507009e009000810f5000faff39008a
:101dc0000080fa00000006000200fa00004f7800d0
:101dd0001e80fb004700de00004078000080fb0012
:101de000610060004900dd00611680000190a100e3
:101df00001007000601688009e00fb0000042000b7
:101e00000080600000f0a7000000ea000000ea0087
:101e10004f00de00004078000080fb0061006000a1
:101e20004800dd00611680000180a1000100700003
:101e3000601688009e00fb00000220000080600009
:101e400000f0a7000000ea000000ea004f00de00fa
:101e5000004078000080fb00610060004700dd006a
:101e6000611680000170a1000100700060168800fa
:101e70001e00fb007000600000f0a7000000ea00f8
:101e80000000ea004f00de00004078000080fb0008
:101e9000610060004600dd00611680000160a10065
:101ea00001007000601688000080fa000000060043
:101eb0000200fa00004f78001e00fb00680060007e
:101ec00000f0a7000000ea000000ea004f00de007a
:101ed000004078000080fb00610060004900dd00e8
:101ee000611680000190a10001007000601688005a
:101ef0001e00fb006400600000f0a7000000ea0084
:101f00000000ea004f00de00004078000080fb0087
:101f1000610060004800dd00611680000180a100c2
:101f200001007000601688001e00fb006200600067
:101f300000f0a7000000ea000000ea004f00de0009
:101f4000004078000080fb00610060004700dd0079
:101f5000611680000170a100010070006016880009
:101f60001e40780061406000614060006140600098
:101f70000080fb00610060004600dd00611680000b
:101f80000160a10001007000601688000080fa0066
:101f9000000006000200fa00004f7800c922a900e4
:101fa000401680004900de00614060000080fb00b8
:101fb000610060004800dd00411680000180a10042
:101fc0000100700040168800401680004800de00c6
:101fd000614060000080fb00610060004700dd00a0
:101fe000411680000170a1000100700040168800b9
:101ff000401680004700de00614060000080fb006a
:10200000610060004600dd00411680000160a10013
:102010000100700040168800cc62a900cde2a90042
:10202000cca2a8001e40780067ff0700cca2a80041
:10203000cca2a900cca2a900cca2a8001e40780086
:102040009bff0700cca2a800cca2a900c922a8002f
:10205000401680004900de00614060000080fb0007
:10206000610060004800dd00411680000180a10091
:102070000100700040168800401680004800de0015
:10208000614060000080fb00610060004700dd00ef
:10209000411680000170a100010070004016880008
:1020a000401680004700de00614060000080fb00b9
:1020b000610060004600dd00411680000160a10063
:1020c00001007000401688000080fa000000060041
:1020d0000200fa00004f7800c922a90040168000d3
:1020e0004900de00614060000080fb00610060008c
:1020f0004800dd00411680000180a1000100700051
:1021000040168800401680004800de0061406000f4
:102110000080fb00610060004700dd004116800088
:102120000170a10001007000401688004016800078
:102130004700de00614060000080fb00610060003d
:102140004600dd00411680000160a1000100700022
:1021500040168800cc62a800cde2a900cca2a8005d
:102160001e40780018ff0700cca2a800cca2a9004e
:10217000cca2a900cca2a8001e4078004cff07000a
:10218000cca2a800cca2a900c922a80040168000b9
:102190004900de00614060000080fb0061006000db
:1021a0004800dd00411680000180a10001007000a0
:1021b00040168800401680004800de006140600044
:1021c0000080fb00610060004700dd0041168000d8
:1021d0000170a100010070004016880040168000c8
:1021e0004700de00614060000080fb00610060008d
:1021f0004600dd00411680000160a1000100700072
:10220000401688000080fa00000006000200fa0074
:10221000c922a800401680004900de00614060002d
:102220000080fb00610060004800dd004116800076
:102230000180a10001007000401688004016800057
:102240004800de00614060000080fb00610060002b
:102250004700dd00411680000170a1000100700000
:1022600040168800401680004700de006140600094
:102270000080fb00610060004600dd004116800028
:102280000160a1000100700040168800cc62a90026
:10229000cde2a8002041800000407800080407003b
:1022a000cca2a800cca2a800501680004900de00f5
:1022b00061406000004f7800cca2a900cca2a90028
:1022c000cca2a800cca2a800cca2a900cca2a900b4
:1022d0002041800000407800030407000000e00077
:1022e00004003a001e4078000004e000ecff3a00d1
:1022f00001003700000000000080fa000000060026
:102300000200fa00004f7800c922a90040168000a0
:102310004900de00614060000080fb006100600059
:102320004800dd00411680000180a100010070001e
:1023300040168800401680004800de0061406000c2
:102340000080fb00610060004700dd004116800056
:102350000170a10001007000401688004016800046
:102360004700de00614060000080fb00610060000b
:102370004600dd00411680000160a10001007000f0
:1023800040168800cc62a900cde2a900cca2a8002a
:10239000cca2a8001e00fb006800600000f0a700af
:1023a0000000ea000000ea004f00de000040780074
:1023b0000080fb00610060004900dd0061168000c4
:1023c0000190a10001007000601688001e00fb0053
:1023d0006400600000f0a7000000ea000000ea00ce
:1023e0004f00de00004078000080fb0061006000cc
:1023f0004800dd00611680000180a100010070002e
:10240000601688001e00fb006200600000f0a7005c
:102410000000ea000000ea004f00de000040780003
:102420000080fb00610060004700dd006116800055
:102430000170a10001007000601688001e40780045
:102440006140600061406000614060000080fb000e
:10245000610060004600dd00611680000160a1009f
:102460000100700060168800cca2a9000080fa006c
:10247000000006000000fa001a28ef0007003700ed
:10248000d04080002197200002c2b3008270780003
:10249000d04080000000e800d0408800d04080009c
:1024a000ef0f5000f6ff34000080fa000000060035
:1024b0000000fa001a28ef0007003700d040800023
:1024c000e1aa2000a2c3b30082707800d04080004f
:1024d0000000e800d0408800d0408000e20f5000ab
:1024e000f6ff34000080fa00000006000000fa0049
:1024f000c9a2a900570307000040780018e8b700f8
:102500001668ef001968ef001e68ef001c28ef0046
:10251000e7ff0700d7ff07000080fa000000060071
:102520000200fa00000f78001e007800904078004a
:1025300090c3b30080cf500008003a001e0078001e
:1025400001c3b300014878001e00e8009040780005
:102550008140e80001487800050037001e0078003f
:10256000104078008040e8001e00780001487800a4
:102570000080fa00000006000200fa00004f780018
:102580001e407800e14f500006003a001fc8bf000f
:102590000080fb000000d100004078001fe8b70079
:1025a00008003700f18120009140780000c8b30096
:1025b00000c070000080fb000000d10000407800e7
:1025c0001fe8b7000080fa00000006000000fa00d3
:1025d00080b32000d2ff0700a0b32000d0ff070087
:1025e0008afb070020c0b300ebfc0700d04080004e
:1025f000e0408800d1408000e00120000001780028
:10260000110009008200d800004078006003070034
:10261000af0307000080fa00000006000000fa0087
:102620001f68ef001e68ef0017c8bf00d2ff070049
:1026300018c8bf00220307000080fa00000006004f
:102640000000fa000040eb0058fa07008000fb0091
:10265000e0aa2000104078000080fb00808f50002e
:1026600012003a0010c0b30050fa07008000fb00cf
:10267000f0aa2000104078000080fb00808f5000fe
:102680000a003a0020c0b30048fa07008000fb00af
:1026900000ab2000104078000080fb00808f5000cd
:1026a00002003a0010002000010037000000eb009b
:1026b000004078000080fa00000006000000fa00e8
:1026c00016c8bf000000fb00e40f50005f0032009e
:1026d000e40f50000c003c00e10f50001d003200e0
:1026e000e10f500003003c000000e0000f0032004a
:1026f000c9003700e20f500026003200e30f5000ff
:1027000037003200c4003700e60f50007e00320070
:10271000e60f500067003500e70f500098003200c8
:10272000e80f5000ad003200bb00370051168000aa
:1027300000002200008060000000e000ab003200da
:1027400018c8bf00de02070010c0b30016e8b700cb
:10275000b1003700511680000000220000806000a8
:102760000000e000a3003a0018c8bf00de02070026
:10277000e40f50000500360020c0b30016e8b70093
:1027800018c8bf00ce020700a30037001668ef008c
:10279000a100370051168000000022000080600078
:1027a0000000e0009500320018c8bf00ce0207000c
:1027b000ed0f500002003e001668ef009600370053
:1027c0001f68ef001e68ef0018c8bf00bc020700ba
:1027d00030c0b30016e8b7001a28ef008e003700ab
:1027e00018c8bf00c0020700e10f500004003a0003
:1027f000501680004d00de006140600017e8b70011
:10280000501680004d00de00614060008080fb00bb
:1028100017c8bf000080fb000000e9004f00de0089
:10282000808f500077003a0018c8bf00ae02070042
:10283000e10f50007500360018c8bf00a002070065
:1028400040c0b30016e8b7007300370018c8bf00d7
:10285000a5020700e40f50006e0036001ec8bf003e
:10286000e64f50000a003e0030c0b30016e8b70043
:102870001ec8bf000040e8001ee8b70017c8bf0030
:102880003dff070018c8bf008d0207006200370037
:1028900019c8bf00e14f500003003a0050c0b30018
:1028a00016e8b7005c00370060c0b30016e8b70058
:1028b00059003700f18120009140780000c4b30036
:1028c00080cf500004003a001968ef0080c0b300c8
:1028d00016e8b7000a003700d0408000f2812000df
:1028e000124178002197200082707800d04080004b
:1028f0000000e800d040880030c0b30016e8b70000
:1029000046ff070044003700f18120009140780025
:1029100000c4b30080cf500007003a0020c0b300cd
:1029200019e8b70030c0b30016e8b7001a28ef0066
:102930003aff070038003700d0408000e20f500017
:102940000c003c00d0408000f28120001241780051
:10295000e1aa200082707800d04080000000e800ea
:10296000d040880030c0b30016e8b7002bff070046
:102970002900370070c0b30016e8b7002600370002
:102980002fff07000004e0000f00320010c0b3006a
:1029900019e8b70030c0b30016e8b7000001200006
:1029a000d0408800d0408000f281200012417800a1
:1029b0002197200082707800d04080000000e8005d
:1029c000d0408800030037001668ef00a0b3200055
:1029d000d3fe070011ff07000f003700fbfe0700c2
:1029e0001668ef00000000000b0037000000000038
:1029f0000900370000000000070037000000000059
:102a00000500370000000000030037000000000050
:102a100001003700000000000080fa0000000600fe
:102a20000000fa00a0b320000080fa0000000600b9
:102a30000000fa0080b320000080fa0000000600c9
:102a40000000fa00209720000080fa000000060035
:102a50000000fa00e04080000080fa00000006005c
:102a60000000fa00113a8000f00b200000816000a5
:102a70006004200071052000237420008049780044
:102a800081497800824978001136800000fe2f00cd
:102a9000008060003000b3001036880021358000cf
:102aa00000fe2f00008060000020a000203588007c
:102ab000103a8000000178000260a000600420004d
:102ac0007105200023742000804978008149780036
:102ad00082497800700620004011880021e2a80099
:102ae00001118000f0cf2f000080600000118800ed
:102af0002062a9000111800090ff2f00008060007b
:102b0000001188002002a9002342a8001268ef00eb
:102b10009560a8000e68ef000ec8bf000fe8b70070
:102b20000fc8bf000ce8b7000cc8bf000de8b70025
:102b30000dc8bf0010e8b70010c8bf0011e8b7000b
:102b40000080fa00000006000000fa0012c8bf0072
:102b50000000fb00e10f500010003200e10f5000b8
:102b600003003c000000e000060032002b003700ac
:102b7000e20f50000e003200e30f5000150032004b
:102b80002600370011c8bf000004e000200032001a
:102b900010c0b30012e8b700200037006000070043
:102ba000a040880020c0b30012e8b7001b00370027
:102bb000a0408000104078000004e00003003200d4
:102bc00030c0b30012e8b700140037001268ef00fd
:102bd00012003700111180000010200000806000fa
:102be0000000e0000c003200a0408000904078001f
:102bf0008100fb00211188000000e800a04088004f
:102c00002342a80020c0b30012e8b7000300370039
:102c10000000000001003700000000000080fa0002
:102c2000000006000200fa00000f780004003700e0
:102c30001e007800104078001e0fe8001500070005
:102c40001e007800104078000004e000f8ff3a0011
:102c50000080fa00000006000200fa00000f780071
:102c60001e007800190007000080fa00000006002e
:102c70000000fa0010c8bf000080fb000080fa00ce
:102c8000000006000000fa004e0007000080fa0075
:102c9000000006000200fa00004f78000100370033
:102ca0000060fe0011118000001020000080600014
:102cb0000000e000faff32001e00fb002011880037
:102cc0002342a8000080fa00000006000200fa007b
:102cd000000f78000cc8bf008080fb00018140001d
:102ce00021872000810041009e0878000040e80014
:102cf0000ce8b700c18020009140780000c8b30004
:102d000080cf500001003a000c68ef0011c8bf00ee
:102d10000040e80011e8b7000080fa00000006005b
:102d20000200fa000ec8bf008080fb000181400055
:102d30002187200081004100110f78000040e80049
:102d40000ee8b700e18020009140780000c8b30091
:102d500080cf500001003a000e68ef0011c8bf009c
:102d60000040e90011e8b7001e0078000080fa007a
:102d7000000006000200fa00004f78000dc8bf00f6
:102d80008080fb00228320009e41780003f17800c0
:102d90000040e8000de8b700d180200091407800a5
:102da00000c4b30080cf500001003a000d68ef006e
:102db00010c8bf000040e80010e8b7000080fa002b
:102dc000000006000200fa000fc8bf008080fb0070
:102dd0002283200062cf78000040e8000fe8b700af
:102de000f18020009140780000c4b30080cf5000f3
:102df00001003a000f68ef0010c8bf000040e90072
:102e000010e8b7001e4078000080fa0000000600bd
:102e10003600f800809fbe00829fbe00849fbe00e7
:102e2000869fbe000000fa008560a9001011800096
:102e3000620060000000e000010032002222a900d0
:102e40003011800000407800caff07000080fa00bf
:102e50004f03be004f02be004f01be004f00be0038
:102e60003600f900004006000000fa00f9000700f3
:102e7000004078002fe8b7002e68ef0040b3200034
:102e800001c3b3000148780050b3200001c3b30070
:102e90000148780060b3200001c3b3000148780006
:102ea000c942a900c962a900c982a9000080fa002c
:102eb000000006000200fa00881f7800000f78006a
:102ec0002ec8bf000000fb00e20f5000430032009c
:102ed000e20f500005003c000000e0000a00320054
:102ee000e10f50001e00320090003700e40f500048
:102ef00064003200e40f500050003500e50f500030
:102f0000720032008900370040b320001e004000ec
:102f10009040780090c3b30080cf500004003c0084
:102f200040b320001e004000104078000100370030
:102f300000c3b30041b320009e8040008048780069
:102f40001e007800e20f500073003a0010c0b3007a
:102f50002ee8b7002fc8bf00d90007007300370064
:102f60002fc8bf00e0000700f30f50000300360039
:102f700020c0b3002ee8b7006c0037002fc8bf0098
:102f8000d90007000000d1000040780091c3b300d1
:102f900000c0500030e8b7001e007800e10f50007c
:102fa00007003200e20f5000080032000000e0008d
:102fb0005b003a0030c0b3002ee8b70006003700cf
:102fc00040c0b3002ee8b7000300370050c0b30084
:102fd0002ee8b700000000005400370040b3200086
:102fe0001e004000104478001e0078000040780069
:102ff000eef70700804f54000500320040b3200078
:103000001e004000104078000040e8000300370038
:1030100040b320001e0040001040780041b3200063
:103020009e804000804878001e007800e20f50002b
:103030003d003a002e68ef003c00370040b320000e
:1030400010417800018320009140780010c0b30047
:10305000814f510001003d000040eb000080fb006b
:10306000610060004a00dd006116800001a0a1003f
:10307000010070006016880010c0b3002ee8b70091
:103080002a00370050b3200010417800018320004f
:103090009140780010c0b300814f510001003d0005
:1030a0000040eb000080fb00610060004b00dd0091
:1030b0006116800001b0a100010070006016880058
:1030c00010c0b3002ee8b7001800370060b320002e
:1030d00010417800018320009140780010c0b300b7
:1030e000814f510001003d000040eb000080fb00db
:1030f000610060004c00dd006116800001c0a1008d
:10310000010070006016880010c0b3002ee8b70000
:103110000000000005003700000000000300370039
:103120000000000001003700000000004f0478009c
:103130000080fa00000006000000fa000080fa009b
:1031400000000600809fbe00821f78000000fa0089
:103150008460a900304180000000e8003041880010
:1031600031418000f0522700808f50001d00360052
:103170002828ef0017003700404180004200dd00a2
:103180008080e80020ab20000080400010407800e4
:10319000e14f50000c003a00404180004141800066
:1031a0004209dd0021ab20008100410011017800bf
:1031b00031418000810051004201dd0020ab200040
:1031c0000000410001087800404180000000e80054
:1031d0004041880040418000f80f5000e6ff340075
:1031e0002628ef000080fa004f0178004f00be0053
:1031f000004006000200fa000040eb00004f78009b
:10320000070037001e80fb00c200dd0040ab20003d
:10321000008040008040eb00014878001e4fe8002d
:103220001e407800f84f5000f6ff36002628ef00c9
:1032300004a1a9000481a800007d200010088800d6
:1032400005e1a8008460a9009460a8000080fa004d
:10325000000006000200fa000040eb00004f78007a
:10326000060037001e4fe8001e407800f94f50005e
:1032700002003a000080eb000f0037001e80fb00c8
:103280004200dd008080e80020ab2000008040008c
:1032900010407800e14f5000f2ff32001e80fb002a
:1032a000c200dd0040ab20000080400011c0b30030
:1032b000014878001e80fb000080fa000000060034
:1032c0000200fa00004f78001e80fb0031418000b0
:1032d0004201dd0020ab2000000041000108780021
:1032e0000080fa00000006000400fa002047980061
:1032f00030418000000f78009e0078002e40900042
:103300000080fb004201dd0020ab200000004100f6
:1033100010007800008050000080fa0000000600d5
:103320000200fa00004f78001e80fb00c200dd00a2
:1033300040ab2000008040008040eb000148780056
:103340000080fa00000006000000fa000080fa0089
:10335000000006000000fa00c022a900c422a90053
:10336000bcff0700004078002ae8b70020c0b30087
:103370002be8b7002c68ef000080fa000000060080
:103380000000fa00c0b220000080fa000000060031
:103390000200fa00004f78009e407800c0b2200082
:1033a000014878001e4078008040e800d0b220003c
:1033b000014878001e40780080c0e800e0b220009c
:1033c000014878001e407800e3404000f0b2200041
:1033d000014878000080fa00000006000000fa00b2
:1033e00020c0b3002be8b7000080fa000000060000
:1033f0000000fa002bc8bf000014a2000080fb00f0
:103400000000ea004f00de00004078000080fa0073
:10341000000006000000fa002bc8bf000080fb007f
:10342000e10f500014003200e20f50002100320082
:103430000000e00024003a002ac8bf00aaff0700ed
:10344000c1822000914078008180fb00c2b2200040
:10345000e2c078008180fb00810f50001700390026
:103460002ac8bf0096ff0700c422a80010c0b300fe
:103470002be8b700140037002ac8bf009aff0700e6
:10348000c1822000914078008180fb00c2b2200000
:10349000e2c078008180fb00810f500009003900f4
:1034a0002ac8bf0086ff0700c422a9002b68ef00ce
:1034b0000500370000000000030037000000000096
:1034c00001003700000000000080fa000000060044
:1034d0000000fa002bc8bf00e24f500002003a0083
:1034e0002b68ef000300370020c0b3002be8b700c3
:1034f000c422a9002bc8bf000080fb000000e90027
:103500004f00de00004078000080fa000000060056
:103510000000fa002cc8bf00e34f500002003a0040
:103520002c68ef00030037002cc8bf000040e80003
:103530002ce8b7000080fa00000006000000fa0046
:10354000c002a80021a3a8002103a900001980003f
:103550004800de00614060000080fb006100600008
:103560004900dd00011980000190a10001007000f8
:103570000019880020e3a800001980004700de0041
:10358000614060000080fb00610060004600dd00db
:10359000011980000160a10001007000001988007d
:1035a000001980004600de00614060000080fb00e2
:1035b000610060004500dd00011980000150a1009c
:1035c000010070000019880011198000f0ff21002f
:1035d00000806000101988002343a9002223a8005e
:1035e00000102000201988002823ef001000200080
:1035f0008019880021e3a8002023a8002043a80008
:103600000080fa00000006000000fa0000188000a8
:083610000080fa000000060032
:020000040000fa
:10361800b20a000064000000000000002608000054
:103628000400000000000000200800000600000060
:10363800000000002c0b0000040000000200000045
:1036480001010100010000002a0800000400000038
:1036580000000000320800004001000000000000e7
:103668000c0800000a00000000000000300b0000f9
:1036780004000000020000003030300000000000ac
:10368800160b0000160000000000000000080000f3
:103698000c00000000000000340b000004000000d3
:1036a800000000002e0800000400000000000000d8
:1036b800380b000004000000020000003030300029
:1036c8003000000072090000400100000000000006
:1036d800160800000a0000000000000000000000ba
:020000040000fa
:1036e8000000fa004427ef0040a7a9000080fa0074
:1036f800000006000000fa00f9ff0700bbfe070003
:1037080001c1b30020c0b300a8f807000fff0700ed
:1037180074fb070087ff0700cffc0700d0fd0700f8
:10372800faf8070008f907008040eb000040eb00ba
:103738000bf907004076280085f9070001f7070014
:10374800faf507000000eb00d8fd07001000200084
:10375800d6fd070020002000d4fd0700d5fb070098
:10376800ebf7070029ff07001ef60700f4fc070027
:04377800f4ff370023
:020000040000fa
:04aff8008b69000061
:020000040000fa
:04affc003b3f0000d7
:00000001FF
