:020000040000fa
:080000000002040000000000f2
:020000040000fa
:04000800c80200002a
:020000040000fa
:04000c00c802000026
:020000040000fa
:04001000c802000022
:020000040000fa
:04001400c80200001e
:020000040000fa
:04001800c80200001a
:020000040000fa
:04001c00c802000016
:020000040000fa
:04002000c802000012
:020000040000fa
:04002400c80200000e
:020000040000fa
:04002800c80200000a
:020000040000fa
:04002c00c802000006
:020000040000fa
:04003000c802000002
:020000040000fa
:0400340008170000a9
:020000040000fa
:04003800c8020000fa
:020000040000fa
:04003c00c8020000f6
:020000040000fa
:04004000c8020000f2
:020000040000fa
:04004400c8020000ee
:020000040000fa
:04004800c8020000ea
:020000040000fa
:04004c00c8020000e6
:020000040000fa
:04005000c8020000e2
:020000040000fa
:040054008c13000009
:020000040000fa
:04005800c8020000da
:020000040000fa
:04005c00c8020000d6
:020000040000fa
:04006000c8020000d2
:020000040000fa
:04006400c8020000ce
:020000040000fa
:04006800c8020000ca
:020000040000fa
:04006c00c8020000c6
:020000040000fa
:04007000c8020000c2
:020000040000fa
:04007400c8020000be
:020000040000fa
:04007800c8020000ba
:020000040000fa
:04007c00c8020000b6
:020000040000fa
:04008000c8020000b2
:020000040000fa
:04008400c8020000ae
:020000040000fa
:04008800c8020000aa
:020000040000fa
:04008c00c8020000a6
:020000040000fa
:04009000c8020000a2
:020000040000fa
:04009400c80200009e
:020000040000fa
:04009800c80200009a
:020000040000fa
:04009c00c802000096
:020000040000fa
:0400a000c802000092
:020000040000fa
:0400a400c80200008e
:020000040000fa
:0400a800c80200008a
:020000040000fa
:0400ac00c802000086
:020000040000fa
:0400b000c802000082
:020000040000fa
:0400b400c80200007e
:020000040000fa
:0400b800c80200007a
:020000040000fa
:0400bc00c802000076
:020000040000fa
:0400c000c802000072
:020000040000fa
:0400c400c80200006e
:020000040000fa
:0400c800c80200006a
:020000040000fa
:0400cc00c802000066
:020000040000fa
:0400d000c802000062
:020000040000fa
:0400d400c80200005e
:020000040000fa
:0400d800c80200005a
:020000040000fa
:0400dc00c802000056
:020000040000fa
:0400e000c802000052
:020000040000fa
:0400e400c80200004e
:020000040000fa
:0400e800c80200004a
:020000040000fa
:0400ec00c802000046
:020000040000fa
:0400f000c802000042
:020000040000fa
:0400f400c80200003e
:020000040000fa
:0400f800c80200003a
:020000040000fa
:0400fc00c802000036
:020000040000fa
:04010000c802000031
:020000040000fa
:04010400c80200002d
:020000040000fa
:04010800c802000029
:020000040000fa
:04010c00c802000025
:020000040000fa
:04011000c802000021
:020000040000fa
:04011400c80200001d
:020000040000fa
:04011800c802000019
:020000040000fa
:04011c00c802000015
:020000040000fa
:04012000c802000011
:020000040000fa
:04012400c80200000d
:020000040000fa
:04012800c802000009
:020000040000fa
:04012c00c802000005
:020000040000fa
:04013000c802000001
:020000040000fa
:04013400c8020000fd
:020000040000fa
:04013800c8020000f9
:020000040000fa
:04013c00c8020000f5
:020000040000fa
:04014000c8020000f1
:020000040000fa
:04014400c8020000ed
:020000040000fa
:04014800c8020000e9
:020000040000fa
:04020800c802000028
:020000040000fa
:04020c00c802000024
:020000040000fa
:04021000c802000020
:020000040000fa
:04021400c80200001c
:020000040000fa
:04021800c802000018
:020000040000fa
:04021c00c802000014
:020000040000fa
:04022000c802000010
:020000040000fa
:04022400c80200000c
:020000040000fa
:04022800c802000008
:020000040000fa
:04022c00c802000004
:020000040000fa
:04023000c802000000
:020000040000fa
:04023400c8020000fc
:020000040000fa
:04023800c8020000f8
:020000040000fa
:04023c00c8020000f4
:020000040000fa
:04024000c8020000f0
:020000040000fa
:04024400c8020000ec
:020000040000fa
:04024800c8020000e8
:020000040000fa
:04024c00c8020000e4
:020000040000fa
:04025000c8020000e0
:020000040000fa
:04025400c8020000dc
:020000040000fa
:04025800c8020000d8
:020000040000fa
:04025c00c8020000d4
:020000040000fa
:04026000c8020000d0
:020000040000fa
:04026400c8020000cc
:020000040000fa
:04026800c8020000c8
:020000040000fa
:04026c00c8020000c4
:020000040000fa
:04027000c8020000c0
:020000040000fa
:04027400c8020000bc
:020000040000fa
:04027800c8020000b8
:020000040000fa
:04027c00c8020000b4
:020000040000fa
:04028000c8020000b0
:020000040000fa
:04028400c8020000ac
:020000040000fa
:04028800c8020000a8
:020000040000fa
:04028c00c8020000a4
:020000040000fa
:04029000c8020000a0
:020000040000fa
:04029400c80200009c
:020000040000fa
:04029800c802000098
:020000040000fa
:04029c00c802000094
:020000040000fa
:0402a000c802000090
:020000040000fa
:0402a400c80200008c
:020000040000fa
:0402a800c802000088
:020000040000fa
:0402ac00c802000084
:020000040000fa
:0402b000c802000080
:020000040000fa
:0402b400c80200007c
:020000040000fa
:0402b800c802000078
:020000040000fa
:0402bc00c802000074
:020000040000fa
:0402c000c802000070
:020000040000fa
:0402c400c80200006c
:020000040000fa
:0402c800c802000068
:020000040000fa
:0402cc00c802000064
:020000040000fa
:0402d000c802000060
:020000040000fa
:0402d400c80200005c
:020000040000fa
:0402d800c802000058
:020000040000fa
:0402dc00c802000054
:020000040000fa
:0402e000c802000050
:020000040000fa
:0402e400c80200004c
:020000040000fa
:0402e800c802000048
:020000040000fa
:0402ec00c802000044
:020000040000fa
:0402f000c802000040
:020000040000fa
:0402f400c80200003c
:020000040000fa
:0402f800c802000038
:020000040000fa
:0402fc00c802000034
:020000040000fa
:04030000c80200002f
:020000040000fa
:04030400c80200002b
:020000040000fa
:04030800c802000027
:020000040000fa
:04030c00c802000023
:020000040000fa
:04031000c80200001f
:020000040000fa
:04031400c80200001b
:020000040000fa
:04031800c802000017
:020000040000fa
:04031c00c802000013
:020000040000fa
:04032000c80200000f
:020000040000fa
:04032400c80200000b
:020000040000fa
:04032800c802000007
:020000040000fa
:04032c00c802000003
:020000040000fa
:04033000c8020000ff
:020000040000fa
:04033400c8020000fb
:020000040000fa
:04033800c8020000f7
:020000040000fa
:04033c00c8020000f3
:020000040000fa
:04034000c8020000ef
:020000040000fa
:04034400c8020000eb
:020000040000fa
:04034800c8020000e7
:020000040000fa
:100400004fa220000e7f22000e0188000000000095
:10041000000020000000e000020032000001200087
:1004200020028800140007005b0007000000e000c5
:1004300003003a0020aa210001002000020037003a
:100440000000200001002000810f70000100320038
:1004500014000700000020000000e000020032004d
:100460000000020000000000fc1a02000000000072
:100470000040da000000fe004440a900802820006f
:100480000000e0000300320000002000a00188000e
:100490004440a800000006008a1f78008b1f7800e7
:1004a0000000060091018800800478000000eb0045
:1004b0001a003700e284440032a0b4009905ba0063
:1004c000e284440032a0b4009906ba00e2844400f9
:1004d00032a0b4000006eb00476fde00fd07b2005b
:1004e000636ce10003003a00ebff07000000eb0043
:1004f0000a003700606ce10004003a00005deb0088
:100500008b05e900fdff3e00040037006168e10053
:10051000010032000086eb000b00070019c7ba008b
:100520001905ba000e04e00003003a000a00e000da
:10053000e0ff3a0000000600fe07b2009e018800be
:100540008a047800f5ff3700395dba008b05e900b1
:100550000c003200295dba008b05e900080032006a
:100560000c00e00003003a00e284440032a0b40032
:10057000f5ff370019ddba008b05e900faff3a00f4
:100580008904e800e184440032a0b40000000600c1
:100590000040da000000fe000000050003f0a200a9
:1005a000889fbe008a9fbe008c1f7800b80007009d
:1005b000bf0033006450e1004f0032006420e100ce
:1005c0005200320003826c0007003b000905d00096
:1005d0000306d000820f54000c065d0002003900b3
:1005e00002003200890178000306780085825500f8
:1005f00004003d000003fd008103fd008502ea00c8
:100600008b854200840f720002003b0060001000e6
:10061000e08018006011b8000005eb007a28e100c6
:100620000a00390006007800c75ddd00f707b20058
:10063000878075002d003700828171000a017800e3
:10064000610560008180d1000080d3008502e9004f
:10065000f9ff3b00060440008784480002003b008d
:1006600060041400e0841c000988a3000700320025
:100670008a81710082817100610164008904d10066
:100680000884d3008b05e800170037000978a30021
:1006900013003a000b00e000130034008b05e90062
:1006a0000804440089844c000a4474000978a300bb
:1006b0000d003a000b00e000070034008b05e90054
:1006c0000804440089844c0001003a000b0020001b
:1006d0000978a300f7ff32000001eb0002003700a9
:1006e000828171000a0178002e0007000cf0a7003b
:1006f00001f0a000770037006420e10002003a001a
:10070000838f6c00770033000801be000200be003a
:10071000700037000001be00480007000470a70009
:1007200003f0a1006509b100160032000d0035008c
:100730006828e10006003500f0ff2f00f1ff2700d8
:100740000300e00013003b0001002800000005004a
:1007500000004000818048008502e900fcff3a006b
:1007600008003700f88f420002003c008000eb00d8
:10077000000005008100d1000080d3008502e80060
:10078000fcff3a000300e00002003b0060001000a4
:10079000e0801800000006004f89de00820178002a
:1007a0008700370081002000618055000b003d006c
:1007b0000b00200061fe2f000100e1001d0034004d
:1007c00082817100610164008904d1000884d30032
:1007d0000000e800faff3a007100200061006400a8
:1007e0000300700002006000090032006104440050
:1007f000e0844c000988a500050032008b05e80064
:100800006808e10002003a008904d1000884d3009e
:10081000f20f20000258e10005003d00c75ddd0039
:10082000f907b20089807500080078000000060012
:100830000bf827008b00780000000500c70ade00d7
:10084000f107b200f50fb20008003200e1cf42001c
:10085000020032000170a00024000500810f70002a
:10086000010032000408050044000500810f7000fb
:1008700002003a00140005008502e9000000400073
:1008800081c04800fcff3b000170a000240005006f
:100890000004be00e9ff07000003be000405be001f
:1008a0000200be00e5ff0700844f7500000006004f
:1008b0000200be006450e100050036006420e10043
:1008c000020036000968a30001003a000800be00db
:1008d0000160a0004f0678004f05be004f04be0027
:1008e00000000600f0ff2f00f1ff2700f9ff37009e
:1008f000889fbe008a9fbe008c1f7800e4ff07001f
:10090000ebff330003866c006450e10024003200ea
:100910006420e100270032006150e1002200320033
:100920006120e100210032008b854200eb07b1001d
:100930000134b800003ab8000804420089844a0033
:10094000013ab8000030b8008880400009014a0030
:10095000040033000000400081804800020149008b
:100960008b05e900c909dd00830170000100320038
:1009700013002000c814de004814dd004709de0023
:100980001200b200c808de000884700085ff07006e
:1009900001f0a1000cf0a70001f0a000cdff37008e
:1009a0006120e100cfff32000801be000200be005e
:1009b000f7ff37006150e100fcff3a00c9ff370044
:1009c000881f7800030478000300e00007003d0062
:1009d00060001000e080180060011900e08119003b
:1009e00002003b0001f02d00030037000400070067
:1009f00008f0a70001f0a0004f04780000000600f6
:100a0000889fbe008a9fbe000082700004027100b1
:100a100004827100260032000004be000200be0005
:100a20006011b8006b092000950220000182cf0000
:100a30000a0039000541b1000082cf0007003900eb
:100a40000541b1000982cf00040039000541b10021
:100a50000882cf00010039000541b1000542520073
:100a6000120032000a003b008281710061016400c3
:100a70008100d1000080d3008984d3000884d30092
:100a80008b05e8000442e800f7ff3a000700370052
:100a90000804440089844c0000004800818048001c
:100aa0008b05e9000442e900f9ff3a003dff070029
:0c0ab0004f05be004f04be000000060011
:020000040000fa
:100abc000d0a00004c650000732000006f700000f0
:100acc00636900006f6e0000732000006465000015
:100adc00207400006573000074200000736f000028
:100aec006e3a00000d0a0000000000000d0a000024
:100afc0000000000312d00005669000073750000e5
:100b0c00616c0000697400007a6100006369000088
:100b1c006f200000646500006c2000007469000008
:100b2c006d65000073740000616d0000700d0000b5
:100b3c000a000000003200002d560000697300000e
:100b4c00756100006c690000747a0000616300003c
:100b5c00696f000020640000656c000073200000c9
:100b6c006d690000637200006f2d0000696e00005b
:100b7c00746500007272000075700000746f0000e4
:100b8c00727300000d0a000000000000332d0000fd
:100b9c005669000073750000616c000069740000f8
:100bac007a610000636900006f200000646500003a
:100bbc006c73000020700000756c00007361000005
:100bcc00646f0000727300000d0a0000000000004a
:100bdc00342d00004d6f0000737400007261000032
:100bec0072200000696e0000746500006e730000d6
:100bfc00697400006174000020640000656c0000e2
:100c0c0020620000616300006b6c000069670000eb
:100c1c00687400000d0a000000000000352d000073
:100c2c004d6f00006469000066690000636100009c
:100c3c0072200000696e0000746500006e73000085
:100c4c00697400006174000020640000656c000091
:100c5c0020620000616300006b6c0000696700009b
:100c6c00687400000d0a000000000000362d000022
:100c7c00456e0000636500006e6400007265000044
:100c8c002f6100007061000067610000722000009d
:100c9c00616c00007461000076650000750d000049
:100cac000a000000003700002d52000065730000a0
:100cbc00657400000d0a00000a000000000d000021
:100ccc000a0000005065000072200000736f0000e5
:100cdc00727400006972000020640000652000003e
:100cec0071750000616c000073650000766f000088
:100cfc006c2000006f700000636900006f2c000016
:100d0c0020700000726500006d200000455300004b
:100d1c00430d00000a000000312d0000496e000058
:100d2c00747200006f64000075690000722000008e
:100d3c00756e0000206e00006f75000020690000c9
:100d4c00646500006e740000696600006963000051
:100d5c00616400006f7200000d0a000000000000ca
:100d6c00322d0000436f00006e730000756c0000a4
:100d7c0074610000722000004944000020610000f2
:100d8c0063740000756100006c0d00000a00000027
:100d9c00003300002d4300006f6e000073750000df
:100dac006c7400006172000020740000726100001d
:100dbc006d6500007320000069640000656e000022
:100dcc0074690000666900006361000064650000de
:100ddc00730d00000a000000003400002d430000d9
:100dec006f6e0000737500006c740000617200007f
:100dfc0020740000726100006d650000732000001b
:100e0c00726500006275000064650000730d0000df
:100e1c000a000000003500002d5600006973000028
:100e2c00756100006c6900007a610000722000009e
:100e3c006c270000756c0000746900006d200000c8
:100e4c006d69000073730000617400006765000039
:100e5c002072000065620000757400000d0a00002d
:100e6c00000000000a0d0000506c000061630000df
:100e7c00612000004c530000363900002e20000089
:100e8c005369000073740000656d00006573000009
:100e9c00204400006967000069740000616c000068
:100eac00732000006920000075500000726f000074
:100ebc006365000073730000616400006f720000d2
:100ecc00730d00000a00000000760000436c000067
:100edc0069200000763100002e3000002e2000002a
:100eec00507200006f670000726100006d610000bd
:100efc00206400006520000074650000737400001d
:100f0c000d0a000000000000494400003a200000d7
:100f1c000000000050420000313a000020000000a8
:100f2c00000a00000d4900006e740000726f000092
:100f3c00647500006569000078200000766100008f
:100f4c006c6f00007220000064650000206c0000d3
:100f5c00612000006e6f00007661000020690000c7
:100f6c006e740000656e000073690000746100000f
:100f7c0074200000283000002d340000293a0000b5
:100f8c000a0d000000530000444d00002032000008
:100f9c0030310000332d00003134000020200000df
:100fac002020000020000000426f00006f74000041
:100fbc00696e0000672e00002e2e0000000000005d
:020000040000fa
:100fcc000400fa002047980031479800d107070029
:100fdc00004188002e4090001ce8b7003e40900075
:100fec001de8b7001f68ef001fc8bf001ee8b70060
:100ffc00c8a2a900401680004500de0061406000d8
:10100c000080fb004f00dd0042168000f1ff27003e
:10101c0081006100010070004016880040168000bd
:10102c004f00de00004078000080fb006100600093
:10103c004300dd00411680000130a100010070006a
:10104c00401688000000eb00000f780029003700e4
:10105c000041800041062000cf00070030c0b300e3
:10106c002a0207000041800051002000ca0007003e
:10107c0030c0b300250207000041800011002000a1
:10108c00c500070030c0b3002002070000418000fb
:10109c0011002000c000070020c0b3001b02070095
:1010ac000041800011002000bb00070080c2b3008b
:1010bc003b010700d801070080c0b30038010700ce
:1010cc00d501070010c0b3003501070000418000b6
:1010dc0031002000b0000700cf01070060c0b30052
:1010ec002f010700cc010700f0c0b3002c01070052
:1010fc001e0fe8001e007800e10f5000d4ff3400f2
:10110c000080fa00000006000000fa000041800098
:10111c0000407800b20707000080fa0000000600cb
:10112c000000fa00bc01070010c0b3001c0107004e
:10113c000041800031002000970007000080fa0079
:10114c00000006000000fa00b3010700e0c0b30085
:10115c00130107000080fa00000006000000fa00ee
:10116c00ad010700c0c0b3000d0107000080fa00fc
:10117c00000006000400fa00204798003147980050
:10118c001cc8bf000080fb00e20f500003003200bf
:10119c00e40f50000b003200220037002e4090006c
:1011ac008000fb003e4090000004e00002003a008a
:1011bc000000eb000100370000042000008f40000d
:1011cc001d0037002e4090000000fb00000f78003f
:1011dc003e409000e14f500003003a000104200013
:1011ec001e8f4000140037003e409000e24f50002c
:1011fc0004003a001dc8bf000080fb001e0f400019
:10120c000d0037003e409000e34f500009003a00bb
:10121c001dc8bf000080fb000004b0001e0f400082
:10122c00050037002e4090000000fb00000f7800f6
:10123c000100370000000000770107001e00780055
:10124c008040780000c8b30000c07000d4000700d4
:10125c003e4090001ee8b7002e4090001fe8b700fb
:10126c000080fa00000006000200fa00004f78002f
:10127c00690107001e407800180107001fc8bf0055
:10128c000040e8001fe8b7001cc8bf00e34f500047
:10129c0010003a001fc8bf00f34f50002f0036005b
:1012ac001f68ef001ec8bf000040e8001ee8b70032
:1012bc001ec8bf00e34f5000010036001e68ef004f
:1012cc001ec8bf00804078001fc8bf00a9ff0700e0
:1012dc00220037001cc8bf00e24f500012003a0039
:1012ec00f18120009140780070c2b30080cf500093
:1012fc001a0036001f68ef001ec8bf000040e8004f
:10130c001ee8b7001ec8bf00e14f500001003600b8
:10131c001e68ef001ec8bf00804078001fc8bf00c9
:10132c0094ff07000d0037001ec8bf00e14f5000ae
:10133c000a003a00f18120009140780070c2b3009d
:10134c0080cf5000010036001f68ef001ec8bf00a0
:10135c00804078001fc8bf0086ff07000080fa009d
:10136c00000006000200fa00000f780004003700ad
:10137c001e007800104078001e0fe800baff07002e
:10138c001e007800104078000004e000f8ff3a00de
:10139c000080fa00000006000400fa00000f78003c
:1013ac00110798001e00780000407800f406070032
:1013bc00000000001e00780000407800fa060700cc
:1013cc009e009000810f5000faff39000080fa0057
:1013dc00000006000200fa00004f78001e80fb009f
:1013ec004700de00004078000080fb0061006000d8
:1013fc004900dd00611680000190a1000100700021
:10140c00601688009e00fb00000420000080600035
:10141c0000f0a7000000ea000000ea004f00de0028
:10142c00004078000080fb00610060004800dd0097
:10143c00611680000180a100010070006016880018
:10144c009e00fb00000220000080600000f0a7005e
:10145c000000ea000000ea004f00de0000407800c7
:10146c000080fb00610060004700dd006116800019
:10147c000170a10001007000601688001e00fb00c6
:10148c007000600000f0a7000000ea000000ea0015
:10149c004f00de00004078000080fb00610060001f
:1014ac004600dd00611680000160a10001007000a3
:1014bc00601688000080fa00000006000200fa00a6
:1014cc00004f78001e00fb006800600000f0a700d1
:1014dc000000ea000000ea004f00de000040780047
:1014ec000080fb00610060004900dd006116800097
:1014fc000190a10001007000601688001e00fb0026
:10150c006400600000f0a7000000ea000000ea00a0
:10151c004f00de00004078000080fb00610060009e
:10152c004800dd00611680000180a1000100700000
:10153c00601688001e00fb006200600000f0a7002f
:10154c000000ea000000ea004f00de0000407800d6
:10155c000080fb00610060004700dd006116800028
:10156c000170a10001007000601688001e40780018
:10157c006140600061406000614060000080fb00e1
:10158c00610060004600dd00611680000160a10072
:10159c0001007000601688000080fa000000060050
:1015ac000200fa00004f7800c922a9004016800002
:1015bc004900de00614060000080fb0061006000bb
:1015cc004800dd00411680000180a1000100700080
:1015dc0040168800401680004800de006140600024
:1015ec000080fb00610060004700dd0041168000b8
:1015fc000170a100010070004016880040168000a8
:10160c004700de00614060000080fb00610060006c
:10161c004600dd00411680000160a1000100700051
:10162c0040168800cc62a900cde2a900cca2a8008b
:10163c001e40780067ff0700cca2a800cca2a9002e
:10164c00cca2a900cca2a8001e4078009bff0700ea
:10165c00cca2a800cca2a900c922a80040168000e8
:10166c004900de00614060000080fb00610060000a
:10167c004800dd00411680000180a10001007000cf
:10168c0040168800401680004800de006140600073
:10169c000080fb00610060004700dd004116800007
:1016ac000170a100010070004016880040168000f7
:1016bc004700de00614060000080fb0061006000bc
:1016cc004600dd00411680000160a10001007000a1
:1016dc00401688000080fa00000006000200fa00a4
:1016ec00004f7800c922a900401680004900de0096
:1016fc00614060000080fb00610060004800dd007c
:10170c00411680000180a100010070004016880085
:10171c00401680004800de00614060000080fb0045
:10172c00610060004700dd00411680000170a100df
:10173c000100700040168800401680004700de0053
:10174c00614060000080fb00610060004600dd002d
:10175c00411680000160a100010070004016880055
:10176c00cc62a800cde2a900cca2a8001e40780053
:10177c0018ff0700cca2a800cca2a900cca2a900fb
:10178c00cca2a8001e4078004cff0700cca2a800f9
:10179c00cca2a900c922a800401680004900de0096
:1017ac00614060000080fb00610060004800dd00cb
:1017bc00411680000180a1000100700040168800d5
:1017cc00401680004800de00614060000080fb0095
:1017dc00610060004700dd00411680000170a1002f
:1017ec000100700040168800401680004700de00a3
:1017fc00614060000080fb00610060004600dd007d
:10180c00411680000160a1000100700040168800a4
:10181c000080fa00000006000200fa00c922a800ad
:10182c00401680004900de00614060000080fb0033
:10183c00610060004800dd00411680000180a100bd
:10184c000100700040168800401680004800de0041
:10185c00614060000080fb00610060004700dd001b
:10186c00411680000170a100010070004016880034
:10187c00401680004700de00614060000080fb00e5
:10188c00610060004600dd00411680000160a1008f
:10189c000100700040168800cc62a900cde2a800bf
:1018ac000041800000407800b5050700cca2a800dc
:1018bc00cca2a800501680004900de0061406000f8
:1018cc00004f7800cca2a900cca2a900cca2a80001
:1018dc00cca2a800cca2a900cca2a90000418000f7
:1018ec0000407800b00507000000e00004003a005a
:1018fc001e4078000004e000ecff3a0001003700c5
:10190c00000000000080fa00000006000200fa004f
:10191c00004f7800c922a900401680004900de0063
:10192c00614060000080fb00610060004800dd0049
:10193c00411680000180a100010070004016880053
:10194c00401680004800de00614060000080fb0013
:10195c00610060004700dd00411680000170a100ad
:10196c000100700040168800401680004700de0021
:10197c00614060000080fb00610060004600dd00fb
:10198c00411680000160a100010070004016880023
:10199c00cc62a900cde2a900cca2a800cca2a800e0
:1019ac001e00fb006800600000f0a7000000ea00c9
:1019bc000000ea004f00de00004078000080fb00d1
:1019cc00610060004900dd00611680000190a100fb
:1019dc0001007000601688001e00fb0064006000af
:1019ec0000f0a7000000ea000000ea004f00de0053
:1019fc00004078000080fb00610060004800dd00c2
:101a0c00611680000180a100010070006016880042
:101a1c001e00fb006200600000f0a7000000ea005e
:101a2c000000ea004f00de00004078000080fb0060
:101a3c00610060004700dd00611680000170a100ac
:101a4c0001007000601688001e4078006140600044
:101a5c0061406000614060000080fb00610060003c
:101a6c004600dd00611680000160a10001007000dd
:101a7c0060168800cca2a9000080fa0000000600c5
:101a8c000200fa00000f78009e007800803e2000d3
:101a9c0000017800110009008200d8008040780015
:101aac00a09d200001487800a09d200010407800e7
:101abc008000fb0080c12f000088b9000000780076
:101acc001e0f40009e0078004006200000017800a8
:101adc00110009008200d80080407800b09d2000e1
:101aec0001487800b09d2000104078008000fb0079
:101afc00c0f92f000088b900000078001e0f4000cc
:101b0c009e007800a0002000000178001100090060
:101b1c008200d80080407800c09d200001487800e9
:101b2c00c09d2000104078008000fb0060ff2f005b
:101b3c000088b900000078001e0f40001e007800dd
:101b4c00004078000043b00080407800d09d200019
:101b5c0001487800e09d20008040eb0001487800af
:101b6c00c09d2000104078000043b00080407800f9
:101b7c00c09d200001487800b09d200010407800e6
:101b8c000043b00080407800b09d200001487800f0
:101b9c00a09d2000104078000043b00080407800e9
:101bac00a09d2000014878000080fa00000006008b
:101bbc000000fa00e055280066020700c057280014
:101bcc00640207000058280062020700105a28001f
:101bdc0060020700c05c28005e020700e05e28007f
:101bec005c020700406128005a020700c06328000d
:101bfc00580207009065280056020700506628001e
:101c0c00540207008066280052020700e0552800a5
:101c1c0050020700c05728004e0207002069280018
:101c2c004c020700606b28004a020700f06c280089
:101c3c0048020700306f2800460207001071280088
:101c4c004402070050662800420207008066280004
:101c5c00400207000080fa00000006000200fa00b3
:101c6c00004f7800c0a02000104078000080fa00df
:101c7c00000006000000fa008073280035020700ff
:101c8c00b076280033020700c9ff07000028ef00d8
:101c9c00a00407000040780002e8b7000368ef00da
:101cac000080fa00000006000000fa0003c8bf0024
:101cbc000000fb00e20f50006e003200e20f5000fb
:101ccc0005003c000000e0000a003200e10f50006b
:101cdc0031003200d8003700e40f5000950032007c
:101cec00e40f500072003500e50f5000b9003200cf
:101cfc00d10037001d0207000000e0001600320082
:101d0c001f02070004e8b7004180200091407800d2
:101d1c0070c3b30080cf50000b003c00418020000a
:101d2c009140780000c3b30080cf5000060034000f
:101d3c0004c8bf008040780000cdb30000c0400054
:101d4c0003e8b70004003700d0c0b300100207004e
:101d5c0004c8bf000e02070002c8bf0092040700af
:101d6c00813e2000810f5000a000360002c8bf0049
:101d7c0083040700004080000000e8000040880059
:101d8c000140800000712200808f500099003a00c1
:101d9c000028ef00a8003700f40107000000e00065
:101dac002b003200f1010700e20f50000e00320050
:101dbc00e30f500016003200e10f50001e003a00f5
:101dcc00ef010700c1a0200080487800d0a02000bf
:101ddc0001c3b30001487800e0a0200001c3b300a8
:101dec00014878001a003700e5010700c1a0200067
:101dfc0080487800e2010700d1a0200080487800dc
:101e0c00e0a0200001c3b3000148780010003700a7
:101e1c00db010700c1a0200080487800d801070032
:101e2c00d1a0200080487800d5010700e1a0200057
:101e3c008048780006003700d0c0b300d4010700fa
:101e4c00ca01070000407800d10107000000000023
:101e5c00c60107000000e00068003200c80107005e
:101e6c00fb4f500067003a0051ff07000368ef007a
:101e7c0071003700d0c0b300c5010700a07828005e
:101e8c00b4010700c0a02000b2010700b701070091
:101e9c000000e0005d003200b9010700fb4f50006c
:101eac005c003a0042ff07000368ef006200370055
:101ebc0002c8bf003c040700813e2000810f500087
:101ecc001300360002c8bf002d040700004080003c
:101edc000000e800004088000140800000712200f2
:101eec00808f500001003a000028ef00d0c0b300f2
:101efc00a70107000079280096010700e7020700f8
:101f0c000043b000a2010700f0c1b30003e8b70022
:101f1c00960107000000e000400032009801070025
:101f2c00fb4f50003f003a0021ff07000368ef0011
:101f3c004100370002c8bf001b040700813e20008f
:101f4c00810f50001a00360002c8bf000c040700b5
:101f5c00004080000000e800004088000140800044
:101f6c0000712200808f500001003a000028ef0021
:101f7c00d0c0b300860107002e0507000000fb004f
:101f8c006500b90000007800bdfe0700b09d200080
:101f9c00104078007e010700c09d200010407800a2
:101fac007b010700d09d20001040780078010700cd
:101fbc006e0107000000e0001c00320070010700f9
:101fcc00fb4f50001b003a00f9fe07000368ef00be
:101fdc0019003700707928005e01070030c3b30088
:101fec0003e8b700000000001300370000000000f9
:101ffc0011003700000000000f0037000000000047
:10200c000d003700000000000b003700000000003e
:10201c000900370000000000070037000000000036
:10202c00050037000000000003003700000000002e
:10203c0001003700000000000080fa0000000600dc
:10204c000200fa00000f78001e007800cf80de003e
:10205c00cef907000200200003fe230021fa07003e
:10206c0002002000833424004af90700a6f9070077
:10207c00000078000080fa00000006000000fa0062
:10208c00a40307000040780006e8b7000768ef00db
:10209c0023fc0700f0a0200081c5b30001487800a4
:1020ac0000a12000f1c2b3000148780010a120006b
:1020bc0091c5b3000148780040a1200001c2b300d3
:1020cc000148780050a1200001c2b30001487800fb
:1020dc0060a1200001c2b3000148780070a120006b
:1020ec0001c2b30001487800a0a1200001c2b300d6
:1020fc00014878000080fa00000006000000fa0099
:10210c0005c8bf000000fb00e20f50004500320084
:10211c00e20f500005003c000000e0000a00320015
:10212c00e10f5000280032008a003700e40f500005
:10213c005d003200e40f500050003500e50f5000f8
:10214c00690032008300370009c8bf008080fb00a3
:10215c00927c2800e2c078000040e80009e8b70053
:10216c000140780040fc070009c8bf00f04f500048
:10217c0001003a000968ef0081802000914078004e
:10218c0010c0b300f0cf500001003e000040eb0047
:10219c008140e8008141780082802000034978006a
:1021ac000004e0006400320010c0b30005e8b70082
:1021bc0006c8bf007203070011c0b3000040eb005b
:1021cc00ecfb0700630037003105070002c3b300c6
:1021dc008240400020a1200001487800370507000c
:1021ec0003c3b3008340400030a1200001487800b5
:1021fc002a02070002c3b3008240400080a12000e5
:10220c00014878002f02070003c3b300834040004d
:10221c0090a120000148780020c0b30005e8b70069
:10222c004c003700c004070050408800504080002c
:10223c0013fe0700b0a1200001c2b30001487800d2
:10224c00e902070080407800c0a120000148780016
:10225c00e502070080407800d0a1200001487800fa
:10226c00e102070080407800e0a1200001487800de
:10227c0030c0b30005e8b7003600370006c8bf0011
:10228c004903070021032000810f50002c00360069
:10229c0006c8bf003a0307000868ef0040c0b3004f
:1022ac0005e8b7002b00370008c8bf008080fb0092
:1022bc00f2a02000e2c078000040e80008e8b70077
:1022cc0001407800e8fb070008c8bf00f04f500041
:1022dc001d00360050c0b30005e8b70006c8bf00ab
:1022ec00270307001b00370006c8bf002e0307009a
:1022fc00910f2000810f50001500360007c8bf0059
:10230c000040e80007e8b70007c8bf00f04f5000d6
:10231c0001003a000768ef000568ef008040eb0011
:10232c000040eb0093fb070007c8bf0009e8b700ab
:10233c000868ef00070037000000000005003700b8
:10234c00000000000300370000000000010037000f
:10235c00000000000080fa00000006000000fa00f7
:10236c00113a8000f00b2000008160006004200016
:10237c007105200023742000804978008149780081
:10238c00824978001136800000fe2f00008060002a
:10239c003000b300103688002135800000fe2f007d
:1023ac00008060000020a00020358800103a8000da
:1023bc00000178000260a00060042000710520007c
:1023cc002374200080497800814978008249780084
:1023dc00700620004011880021e2a8000111800045
:1023ec00f0cf2f0000806000001188002062a9004f
:1023fc000111800090ff2f00008060000011880008
:10240c002002a9002342a8001268ef009560a800e2
:10241c000e68ef000ec8bf000fe8b7000fc8bf0072
:10242c000ce8b7000cc8bf000de8b7000dc8bf0022
:10243c0010e8b70010c8bf0011e8b7000080fa0020
:10244c00000006000000fa0012c8bf000000fb00ec
:10245c00e10f500010003200e10f500003003c006f
:10246c000000e000060032002b003700e20f5000a5
:10247c000e003200e30f500015003200260037002a
:10248c0011c8bf000004e0002000320010c0b300ef
:10249c0012e8b7002000370060000700a040880059
:1024ac0020c0b30012e8b7001b003700a04080002a
:1024bc00104078000004e0000300320030c0b3008c
:1024cc0012e8b700140037001268ef001200370052
:1024dc001111800000102000008060000000e0005e
:1024ec000c003200a0408000904078008100fb007e
:1024fc00211188000000e800a04088002342a800b9
:10250c0020c0b30012e8b700030037000000000041
:10251c0001003700000000000080fa0000000600f7
:10252c000200fa00000f7800040037001e0078004b
:10253c00104078001e0fe800150007001e00780000
:10254c00104078000004e000f8ff3a000080fa0028
:10255c00000006000200fa00000f78001e00780050
:10256c00190007000080fa00000006000000fa00c5
:10257c0010c8bf000080fb000080fa0000000600bd
:10258c000000fa004e0007000080fa000000060070
:10259c000200fa00004f7800010037000060fe00d6
:1025ac001111800000102000008060000000e0008d
:1025bc00faff32001e00fb00201188002342a80005
:1025cc000080fa00000006000200fa00000f7800fc
:1025dc000cc8bf008080fb00018140006187200097
:1025ec00810041009e0878000040e8000ce8b7002c
:1025fc00c18020009140780000c8b30080cf50000b
:10260c0001003a000c68ef0011c8bf000040e80060
:10261c0011e8b7000080fa00000006000200fa0082
:10262c000ec8bf008080fb00018140006187200044
:10263c0081004100110f78000040e8000ee8b7005f
:10264c00e18020009140780000c8b30080cf50009a
:10265c0001003a000e68ef0011c8bf000040e9000d
:10266c0011e8b7001e0078000080fa000000060098
:10267c000200fa00004f78000dc8bf008080fb00fc
:10268c00628320009e41780003f178000040e8004e
:10269c000de8b700d18020009140780000c4b30051
:1026ac0080cf500001003a000d68ef0010c8bf0049
:1026bc000040e80010e8b7000080fa0000000600b7
:1026cc000200fa000fc8bf008080fb00628320006c
:1026dc0062cf78000040e8000fe8b700f1802000de
:1026ec009140780000c4b30080cf500001003a0044
:1026fc000f68ef0010c8bf000040e90010e8b700f9
:10270c001e4078000080fa00000006003600f80039
:10271c00809fbe00829fbe00849fbe00869fbe002d
:10272c000000fa008560a9001011800062006000b2
:10273c000000e000010032002222a90030118000cc
:10274c0000407800caff07000080fa004f03be006b
:10275c004f02be004f01be004f00be003600f90014
:10276c00004006000000fa00c062a800c042a800a9
:10277c006bc0a8006ba0a8002a68ef00e501070059
:10278c00004078002be8b7000080fa00000006003b
:10279c000000fa002ac8bf000000fb00e30f500045
:1027ac0053003200e30f500007003c00e10f5000d3
:1027bc0020003200e10f50002c003c000000e00033
:1027cc000a003200b3003700e50f500063003200fe
:1027dc00e50f50005a003500e60f50006d00320036
:1027ec00e70f50008c003200aa0037001016800052
:1027fc00680060000000e00005003a002bc8bf0034
:10280c00df01070010c0b3002ae8b700a1003700b1
:10281c0010168000640060000000e00092003a0096
:10282c002bc8bf00d601070050c0b3002ae8b70080
:10283c00980037002bc8bf00db01070031062000d1
:10284c00810f50008a00360010168000680060006e
:10285c000000e00003003a0020c0b3002ae8b700f3
:10286c008c0037002a68ef008a00370088030700c5
:10287c000004e0000d003a006f0207002ce8b700de
:10288c002cc8bf00ea4f500003003a0010c0b30040
:10289c006d020700050037002cc8bf000040e8009f
:1028ac002ce8b7002cc8bf006702070083030700a1
:1028bc000004e0000b003a00de0207002ce8b70031
:1028cc002cc8bf000004e00003003a0040c1b30074
:1028dc00dc020700030037002cc8bf006540500025
:1028ec00d802070030c0b3002ae8b70069003700ef
:1028fc002bc8bf00ac010700f17c2000810f5000f9
:10290c0006003600570207000004e0000100320008
:10291c00860207002bc8bf00990107001016800023
:10292c00680060000000e0005300320040c0b300bb
:10293c002ae8b7002bc8bf009101070055003700eb
:10294c002bc8bf009801070031062000810f5000f2
:10295c004b0036002a68ef004e0037002bc8bf0032
:10296c009101070031062000810f5000460036000f
:10297c0010168000640060000000e00003003a00c4
:10298c0060c0b3002ae8b700420037002a68ef00a5
:10299c00400037003e0307000004e0000d003a0041
:1029ac00250207002ce8b7002cc8bf00e14f5000ef
:1029bc0003003a00a0c0b300230207000500370053
:1029cc002cc8bf000040e9002ce8b7002cc8bf00a1
:1029dc001d020700390307000004e0000b003a0059
:1029ec00940207002ce8b7002cc8bf00f44f50002d
:1029fc0003003a000040eb0092020700030037008e
:102a0c002cc8bf00654040008e02070070c0b300a8
:102a1c002ae8b7001f0037002bc8bf00620107006f
:102a2c00f17c2000810f5000060036000d020700db
:102a3c000004e00001003a003c0207002bc8bf0074
:102a4c004f01070010168000640060000000e000d9
:102a5c000f00320040c0b3002ae8b7002bc8bf00fb
:102a6c00470107000b003700000000000900370089
:102a7c0000000000070037000000000005003700d0
:102a8c0000000000030037000000000001003700c8
:102a9c00000000000080fa00000006000000fa00b0
:102aac00101680006800600000f0a7000000ea002b
:102abc000000ea004f00de00004078000080fa00c1
:102acc00000006000000fa00101680006400600090
:102adc0000f0a7000000ea000000ea004f00de0052
:102aec00004078000080fa00000006000000fa00a8
:102afc00080107000040780033e8b7003268ef00a7
:102b0c0000a2200001c3b3000148780010a22000ed
:102b1c0001c3b3000148780020a2200001c3b30018
:102b2c0001487800c942a900c962a900c982a9005c
:102b3c000080fa00000006000000fa00881f7800f0
:102b4c0032c8bf000000fb000000e00003003200b0
:102b5c00e10f500027003200a000370000a2200037
:102b6c009040780090c3b30080cf500003003e002b
:102b7c0000a22000104078000100370000c3b30011
:102b8c0001a220008048780010a22000904078001c
:102b9c0090c3b30080cf500003003e0010a2200071
:102bac00104078000100370000c3b30011a22000d0
:102bbc008048780020a220009040780090c3b30099
:102bcc0080cf500003003e0020a22000104078006f
:102bdc000100370000c3b30021a220008048780018
:102bec0033c8bf00e600070010c0b30032e8b700de
:102bfc007a00370033c8bf00eb0007000000d1009b
:102c0c000040780091c3b30000c0500034e8b70016
:102c1c0033c8bf00e4000700f30f50003e0036003d
:102c2c0000a22000104078000084fb000040eb0064
:102c3c000afc07000000fb00800f54000800320063
:102c4c0000a22000104078008040e80000a2200084
:102c5c000148780000a220001040780002003700e4
:102c6c0000a220001040780001a2200080487800cb
:102c7c0010a22000104078000084fb0010c0b300ac
:102c8c00f6fb07000000fb00800f54000800320028
:102c9c0010a22000104078008040e80010a2200014
:102cac000148780010a22000104078000200370084
:102cbc0010a220001040780011a22000804878005b
:102ccc0020a22000104078000084fb0020c0b3003c
:102cdc00e2fb07000000fb00800f540008003200ec
:102cec0020a22000104078008040e80020a22000a4
:102cfc000148780020a22000104078000200370024
:102d0c0020a220001040780021a2200080487800ea
:102d1c003268ef003100370000a22000104078002c
:102d2c000081fb0034c8bf008000fb0010c0b30062
:102d3c00810f510001003d000040eb000080fb00c2
:102d4c00610060004a00dd006116800001a0a10056
:102d5c00010070006016880010a22000104078005e
:102d6c000081fb0034c8bf008000fb0010c0b30022
:102d7c00810f510001003d000040eb000080fb0082
:102d8c00610060004b00dd006116800001b0a10005
:102d9c00010070006016880020a22000104078000e
:102dac000081fb0034c8bf008000fb0010c0b300e2
:102dbc00810f510001003d000040eb000080fb0042
:102dcc00610060004c00dd006116800001c0a100b4
:102ddc000100700060168800000000004f047800ad
:102dec000080fa00000006000000fa0034c8bf00a2
:102dfc000080fa00000006000000fa000080fa00d3
:102e0c0000000600809fbe00821f78000000fa00c0
:102e1c008460a900104180000000e8001041880087
:102e2c0011418000f0522700808f50001d003600a9
:102e3c002428ef0017003700204180004200dd00fd
:102e4c008080e800609720000080400010407800ef
:102e5c00e14f50000c003a002041800021418000dd
:102e6c004209dd00619720008100410011017800ca
:102e7c0011418000810051004201dd00609720006b
:102e8c000000410001087800204180000000e800ab
:102e9c002041880020418000f80f5000e6ff3400ec
:102eac002228ef000080fa004f0178004f00be008e
:102ebc00004006000200fa000040eb00004f7800d2
:102ecc00070037001e80fb00c200dd008097200049
:102edc00008040008040eb00014878001e4fe80065
:102eec001e407800f84f5000f6ff36002228ef0005
:102efc0004a1a9000481a800007d2000100888000e
:102f0c0005e1a8008460a9009460a8000080fa0084
:102f1c00000006000200fa000040eb00004f7800b1
:102f2c00060037001e4fe8001e407800f94f500095
:102f3c0002003a000080eb000f0037001e80fb00ff
:102f4c004200dd008080e800609720000080400097
:102f5c0010407800e14f5000f2ff32001e80fb0061
:102f6c00c200dd00809720000080400011c0b3003b
:102f7c00014878001e80fb000080fa00000006006b
:102f8c000200fa00004f78001e80fb001141800007
:102f9c004201dd006097200000004100010878002c
:102fac000080fa00000006000400fa002047980098
:102fbc0010418000000f78009e0078002e40900099
:102fcc000080fb004201dd00609720000000410002
:102fdc0010007800008050000080fa00000006000d
:102fec000200fa00004f78001e80fb00c200dd00da
:102ffc0080972000008040008040eb000148780062
:10300c000080fa00000006000000fa000080fa00c0
:10301c00000006000000fa00c082a900c482a900ca
:10302c00bcff07000040780016e8b7001768ef00f7
:10303c001868ef001a28ef000080fa000000060064
:10304c000000fa0017c8bf000080fb00e10f500021
:10305c0017003200e10f500003003c000000e000bc
:10306c000600320067003700e20f50002c003200df
:10307c00e30f5000370032006200370016c8bf0063
:10308c00c9ff070081812000914078008180fb00fe
:10309c00810f50004c00390016c8bf00b8ff070064
:1030ac0010c0b30017e8b700c482a9005500370060
:1030bc0016c8bf00bcff070081812000914078003a
:1030cc008180fb00f4801000810f5000400039001b
:1030dc0016c8bf00aaff07001768ef00c482a8003b
:1030ec00d04080000000e800d0408800d040800034
:1030fc00e40f500038003a0018c8bf000040e80048
:10310c0018e8b7001a28ef0018c8bf00f44f500099
:10311c0033003a0020c0b30017e8b700390037007d
:10312c0016c8bf00a0ff07008181200091407800e5
:10313c008180fb00810f50002b00390016c8bf00a6
:10314c008fff070030c0b30017e8b700c482a90096
:10315c002c00370016c8bf0093ff070081812000a8
:10316c00914078008180fb00f4801000810f5000aa
:10317c001f00390016c8bf0081ff070020c0b30034
:10318c0017e8b700c482a800d04080000000e80017
:10319c00d0408800d0408000e40f500016003a0068
:1031ac0018c8bf000040e90018e8b7001a28ef0063
:1031bc0018c8bf000004e00011003a001768ef00c7
:1031cc001868ef000f003700000000000d003700fa
:1031dc00000000000b003700000000000900370061
:1031ec000000000007003700000000000500370059
:1031fc000000000003003700000000000100370051
:10320c00000000000080fa00000006000000fa0038
:10321c00c022a900c422a9003eff0700004078008c
:10322c0026e8b7002768ef0010c0b30028e8b70005
:10323c000080fa00000006000000fa0028c8bf0059
:10324c000080fa00000006000200fa00004f78002f
:10325c001e41780081822000824878000080fa00ac
:10326c00000006000000fa0027c8bf000014a200ee
:10327c000080fb000000ea004f00de0000407800f8
:10328c000080fa00000006000000fa0027c8bf000a
:10329c000000fb00e10f500011003200e20f500063
:1032ac001b0032000000e0001e003a0026c8bf00e0
:1032bc003dff070081822000914078008100fb00d7
:1032cc00810f50001400390026c8bf002cff0700e6
:1032dc00c422a80010c0b30027e8b70011003700c3
:1032ec0026c8bf0030ff0700818220009140780083
:1032fc008100fb00810f50000900390026c8bf0077
:10330c001fff0700c422a9002768ef000500370043
:10331c00000000000300370000000000010037002f
:10332c00000000000080fa00000006000000fa0017
:10333c0027c8bf00e24f500002003a002768ef0098
:10334c000300370020c0b30027e8b700c422a9004f
:10335c0027c8bf000080fb000000e9004f00de0022
:10336c00004078000080fa00000006000000fa001f
:10337c00c9c2a900cdc2a9002e68ef00e5fe070066
:10338c00004078002fe8b700a0c0b30030e8b700c9
:10339c000080fa00000006000000fa002ec8bf00f2
:1033ac000080fb000000e00003003200e10f500041
:1033bc000e0032001d0037002fc8bf00fafe0700b8
:1033cc0001832000914078008180fb00810f500028
:1033dc00130039002fc8bf00e9fe070010c0b3006e
:1033ec002ee8b700cdc2a900100037002fc8bf00cf
:1033fc00edfe070001832000914078008180fb00e6
:10340c00f4801000810f5000070039002fc8bf0056
:10341c00dbfe07002e68ef00cdc2a80003003700ca
:10342c000000000001003700000000000080fa00de
:10343c00000006000000fa0030c8bf000080fa004f
:10344c00000006000200fa00004f78001e407800d1
:10345c0030e8b7000080fa00000006000000fa0017
:10346c00c002a80021a3a8002103a9000019800014
:10347c004800de00614060000080fb0061006000dd
:10348c004900dd00011980000190a10001007000cd
:10349c000019880020e3a800001980004700de0016
:1034ac00614060000080fb00610060004600dd00b0
:1034bc00011980000160a100010070000019880052
:1034cc00001980004600de00614060000080fb00b7
:1034dc00610060004500dd00011980000150a10071
:1034ec00010070000019880011198000f0ff210004
:1034fc0000806000101988002343a9002223a80033
:10350c0000102000201988002823ef001000200054
:10351c008019880021e3a8002023a8002043a800dc
:10352c000080fa00000006000000fa00001880007d
:08353c000080fa000000060007
:020000040000fa
:10354400760900006400000000000000220800006a
:10355400040000000000000016080000060000003f
:10356400000000001c08000006000000000000002d
:103574002608000004000000000000002a080000e3
:1035840004000000000000002e08000004000000f9
:1035940000000000360800004001000000000000a8
:1035a4000c0800000a00000000000000da09000016
:1035b4004600000000000000000800000c000000ad
:1035c40000000000200a00000400000000000000c9
:1035d40032080000040000000000000000000000a9
:020000040000fa
:1035e4000000fa004427ef0040a7a9000080fa0079
:1035f400000006000000fa00f9ff07002ffe070094
:1036040086fe070001c1b30020c0b3006ef60700b8
:1036140000ff07001700070054fc070091ff070094
:1036240054ff07004ffb070032fd0700bef60700fa
:10363400ccf607008040eb000040eb00cff607001b
:10364400a07d280049f707008efa07008bf90700d0
:103654003bfd070050fc070051ff07007afe0700fe
:10366400a8fa07000aff070091f9070077fb070093
:10367400f7ff37000000fa00c9a2a800c982a80019
:103684002d63a8002d83a80069a0a80069c0a80024
:103694000080fa00000006000000fa0051168000c5
:1036a400000021000080600000f0a7000000ea0094
:1036b4000000ea004f00de00004078000080fa00bd
:1036c400000006000000fa005116800000002200ed
:1036d4000080600000f0a7000000ea000000ea009b
:1036e4004f00de00004078000080fa000000060071
:020000040000fa
:04aff8008b69000061
:020000040000fa
:04affc003b3f0000d7
:00000001FF
