:020000040000fa
:08000000000c040000000000e8
:020000040000fa
:101800002ffe20000e7f22000e0188000000000045
:101810000c000700e0362200010020001100070044
:10182000000020000000e000020032000000020082
:101830000000000064230200000000000040da0005
:101840000000fe004440a900a01b20000000e000b2
:101850000300320000002000a00188004440a800de
:101860000000060091018800800078000000eb0075
:1018700015003700e280400032a0b4009101ba00a8
:10188000e280400032a0b4009102ba00e280400041
:1018900032a0b4000002eb00472bde00f507b200d7
:1018a000602ce10004003a000059eb008301e900dc
:1018b000fdff3e00040037006128e1000100320016
:1018c0000082eb00040007001101ba000200e000f2
:1018d000e8ff3a00000006003159ba008301e90030
:1018e0000c0032002159ba008301e90008003200df
:1018f0000400e00003003a00e280400032a0b4009f
:10190000f5ff370011d9ba008301e900faff3a0068
:101910008100e800e180400032a0b4000000060031
:020000040000fa
:10000800a6230000a6230000a6230000a6230000c4
:10001800a6230000a6230000a6230000a6230000b4
:10002800a6230000a6230000a6230000ac1e0000a3
:10003800a6230000a6230000a6230000a623000094
:10004800a6230000a6230000a6230000a623000084
:10005800a6230000a6230000a6230000a623000074
:10006800a6230000a6230000a6230000a623000064
:10007800a6230000a6230000a6230000a623000054
:10008800a6230000a6230000a6230000a623000044
:10009800a6230000a6230000081d0000a6230000d8
:1000a800a6230000a6230000a6230000a623000024
:1000b800a6230000a6230000a6230000a623000014
:1000c800a6230000a6230000a6230000a623000004
:1000d800a6230000a6230000a6230000a6230000f4
:1000e800a6230000a6230000a6230000a6230000e4
:1000f800a6230000a6230000a6230000a6230000d4
:10010800a6230000a6230000a6230000a6230000c3
:10011800a6230000a6230000a6230000a6230000b3
:10012800a6230000a6230000a6230000a6230000a3
:10013800a6230000a6230000a6230000a623000093
:10014800a6230000a6230000a6230000a623000083
:10015800a6230000a6230000a6230000a623000073
:10016800a6230000a6230000a6230000a623000063
:10017800a6230000a6230000a6230000a623000053
:10018800a6230000a6230000a6230000a623000043
:10019800a6230000a6230000a6230000a623000033
:1001a800a6230000a6230000a6230000a623000023
:1001b800a6230000a6230000a6230000a623000013
:1001c800a6230000a6230000a6230000a623000003
:1001d800a6230000a6230000a6230000a6230000f3
:1001e800a6230000a6230000a6230000a6230000e3
:0801f800a6230000a62300006d
:020000040000fa
:10020800a6230000a6230000a6230000a6230000c2
:10021800a6230000a6230000a6230000a6230000b2
:10022800a6230000a6230000a6230000ac1e0000a1
:10023800a6230000a6230000a6230000a623000092
:10024800a6230000a6230000a6230000a623000082
:10025800a6230000a6230000a6230000a623000072
:10026800a6230000a6230000a6230000a623000062
:10027800a6230000a6230000a6230000a623000052
:10028800a6230000a6230000a6230000a623000042
:10029800a6230000a6230000081d0000a6230000d6
:1002a800a6230000a6230000a6230000a623000022
:1002b800a6230000a6230000a6230000a623000012
:1002c800a6230000a6230000a6230000a623000002
:1002d800a6230000a6230000a6230000a6230000f2
:1002e800a6230000a6230000a6230000a6230000e2
:1002f800a6230000a6230000a6230000a6230000d2
:10030800a6230000a6230000a6230000a6230000c1
:10031800a6230000a6230000a6230000a6230000b1
:10032800a6230000a6230000a6230000a6230000a1
:10033800a6230000a6230000a6230000a623000091
:10034800a6230000a6230000a6230000a623000081
:10035800a6230000a6230000a6230000a623000071
:10036800a6230000a6230000a6230000a623000061
:10037800a6230000a6230000a6230000a623000051
:10038800a6230000a6230000a6230000a623000041
:10039800a6230000a6230000a6230000a623000031
:1003a800a6230000a6230000a6230000a623000021
:1003b800a6230000a6230000a6230000a623000011
:1003c800a6230000a6230000a6230000a623000001
:1003d800a6230000a6230000a6230000a6230000f1
:1003e800a6230000a6230000a6230000a6230000e1
:0803f800a6230000a62300006b
:020000040000fa
:101920000d0a00004c650000732000006f7000007d
:10193000636900006f6e00007320000064650000a2
:10194000207400006573000074200000736f0000b5
:101950006e3a00000d0a0000000000000d0a0000b1
:1019600000000000312d0000566900007375000072
:10197000616c0000697400007a6100006369000016
:101980006f200000646500006c2000007469000096
:101990006d65000073740000616d0000700d000043
:1019a0000a000000003200002d560000697300009c
:1019b000756100006c690000747a000061630000ca
:1019c000696f000020640000656c00007320000057
:1019d000707500006c730000616400006f7200009d
:1019e000730d00000a000000003300002d450000c8
:1019f0006e630000656e000064720000652f0000d9
:101a000061700000616700006172000020610000e9
:101a10006c74000061760000657500000d0a00001e
:101a200000000000342d00004d6f000073740000b2
:101a30007261000072200000656c0000206e0000e2
:101a4000756d0000657200006f2000006465000085
:101a50006c200000706f00006c7300006164000077
:101a60006f7200000d0a000000000000352d00001c
:101a70005265000073650000740d00000a0a000042
:101a8000000000000d0a0000005000006572000018
:101a9000207300006f720000746900007220000063
:101aa0006465000020710000756100006c73000027
:101ab000657600006f6c0000206f0000706300000e
:101ac000696f00002c20000070720000656d00003e
:101ad00020450000534300000d0a0000000a0000ea
:101ae0000d5000006c61000063610000204c00009c
:101af00053360000392e00002053000069730000a7
:101b0000746500006d6500007320000044690000ea
:101b100067690000746100006c73000020690000b8
:101b200020750000507200006f63000065730000b4
:101b300073610000646f0000727300000d0a000002
:101b400000000000764300006c6900002076000071
:101b5000312e0000302e000020500000726f000077
:101b600067720000616d0000612000006465000084
:101b70002074000065730000740d00000a0000006e
:101b8000000a00000d4e00006577000020430000b1
:101b900068610000722000000a0d00000050000083
:101ba000423100003a200000000000000a0d000051
:101bb00050720000656d0000204a00002070000097
:101bc00065720000206500006e630000656e000015
:101bd00064720000652000006f200000617000004a
:101be0006167000061720000206c00002761000046
:101bf0006c7400006176000065750000200a00002a
:101c00000d0000000d4100006c74000061760000c2
:101c100065750000206500006e63000065730000bc
:101c200021200000000000000d4100006c74000045
:101c300061760000657500002061000070610000a1
:101c40006761000074210000000000004e75000074
:101c50006d650000726f00003a2000000000000077
:101c60000909000050420000323a00002000000044
:101c700000530000364d00002032000030310000db
:101c8000332d00003134000020200000202000000f
:041c90002000000030
:020000040000fa
:101c94000200fa00004f78001e407800e04f500028
:101ca400030032001e4078003d0207001b0037008d
:101cb40011cdbf000000fb00e00f50000300320014
:101cc400e10f50000b00320014003700a905070093
:101cd400e04f50000e0032001e4078003002070032
:101ce4000040eb0011edb70010cdbf0080080700e5
:101cf4000a00370010cdbf0088080700ea0f500023
:101d0400050036000040eb0011edb700030037007a
:101d14000000000001003700000000000080fa000d
:101d2400000006000400fa00100798001e0090004e
:101d34000000d100000f7800050037000060fe00ad
:101d44001e0fe90000000000000000000000000079
:101d54001e007800e00f5000f8ff3a000080fa00ff
:101d6400000006000600fa001007980021079800fa
:101d7400400807000040780010edb7003d08070058
:101d8400404088001e009000004088002e00900013
:101d9400104088000000eb00304088003040800094
:101da4002040880010c0b300bf01070010c0b3007a
:101db4002b0107000000eb00000f78003c00370007
:101dc4004040800081022000c101070011c0b3001f
:101dd40000c3b300330207004040800041002000ec
:101de400bb01070011c0b30000c3b3002d020700fc
:101df4004040800041002000b501070011c0b3003d
:101e040000c3b3002702070011c0b30000c2b3002f
:101e1400240207004040800011002000ac010700ac
:101e24001e009000e10f500003003a0000c2b3000e
:101e3400cb0107000200370080c2b300c8010700cd
:101e440010c0b30092ff070010c0b30090ff07005a
:101e54001102070080c0b300c10107000e02070091
:101e640010c0b300be01070010c0b30088ff070014
:101e740010c0b30086ff070040408000210020000e
:101e8400930107000402070060c0b300b401070017
:101e940001020700c0c0b300b101070010c0b300c5
:101ea4007bff070010c0b30079ff07001e0fe80096
:101eb4001e007800e10f5000c1ff34000080fa00da
:101ec400000006000000fa00404080000040780056
:101ed400200807000080fa00000006000200fa0053
:101ee400004f7800ec01070010c0b3009c0107000c
:101ef400700407001e407800e04f500003003200d9
:101f04004040800021002000710107000080fa0099
:101f1400000006000000fa00df010700e0c0b30083
:101f24008f0107000080fa00000006000000fa009c
:101f3400d9010700c0c0b300890107000080fa007e
:101f4400000006000600fa00100798002107980018
:101f540000408000e20f500003003200e40f500004
:101f64000a0032001e0037002e009000e00f5000df
:101f740002003a000000eb000100370000042000da
:101f84009e009000010f4000190037001e009000d1
:101f9400000f78002e009000e10f500003003a007b
:101fa400000420001e0f4000110037002e00900096
:101fb400e20f500003003a00104080001e0f400062
:101fc4000b0037002e009000e30f500007003a008a
:101fd400104080000004b0001e0f400004003700d1
:101fe4001e009000000f7800010037000000000080
:101ff400a90107001e0078008040780000c8b300e3
:1020040000c07000560107002e0090002040880098
:102014001e009000304088000080fa000000060096
:102024000200fa00004f78009b0107001e40780070
:1020340054010700304080000000e8003040880070
:1020440000408000e30f500011003a00304080004f
:10205400f30f50002f0034000000eb0030408800e4
:10206400204080000000e8002040880020408000dc
:10207400e30f5000020034000000eb002040880011
:102084002140800030408000aeff0700210037006f
:1020940000408000e20f500012003a0031408000fe
:1020a40070022000808f50001a0034000000eb0002
:1020b40030408800204080000000e8002040880074
:1020c40020408000e10f5000020034000000eb00cb
:1020d40020408800214080003040800099ff0700a4
:1020e4000c00370020408000e10f500009003a0046
:1020f4003140800070022000808f500002003400c4
:102104000000eb0030408800214080003040800017
:102114008cff07000080fa00000006000200fa00ad
:10212400000f7800040037001e007800104078008b
:102134001e0fe800baff07001e0078001040780068
:10214400e04f5000f8ff3a000080fa00000006005b
:102154000400fa00004f78001147980022479800c5
:102164002e4090000000fb00e00f500003003200fe
:10217400e10f5000060032000a0037001e419000b3
:102184009e40780000c2b300820407000a003700b2
:102194001e4190009e40780000c2b300a8040700ce
:1021a400050037001e4190009e40780000c2b30035
:1021b40078040700000000002e409000e04f50001b
:1021c40005003a001e4190009e40780000c2b30012
:1021d40070040700040037001e4190009e40780000
:1021e40000c2b300960407000080fa000000060055
:1021f4000400fa00204798008e01780012002000a5
:10220400ae40900000c2b300a50407001e40900039
:102214000080fa00000006000200fa00004f780077
:1022240012cdbf001e4178008040780020c1b30069
:10223400c7ff07000080fa00000006000200fa0051
:10224400004f780013cdbf001e4178008040780015
:1022540050c1b300beff07000080fa000000060072
:102264000200fa00004f78001e4178008040eb0025
:102274000040eb00b6ff07000080fa0000000600f3
:102284000200fa00004f78001e4178008040eb0005
:1022940010c0b300aeff07000080fa000000060083
:1022a4000200fa00004f7800114798009e40780021
:1022b4000180fb006100600000407800e04f5000a6
:1022c4000400320012cdbf000034a00012edb700ac
:1022d4000500370021d120009140780070cfb30071
:1022e40000c0600012edb7009e4078000180fb0042
:1022f40062006000e00f50000400320012cdbf0005
:102304000024a00012edb7000500370021d1200001
:1023140091407800b0cfb30000c0600012edb70068
:102324009e4078000180fb0064006000e00f5000d4
:102334000400320012cdbf000014a00012edb7005b
:102344000500370021d1200091407800d0cfb300a0
:1023540000c0600012edb7009e4078000180fb00d1
:1023640068006000e00f50000400320012cdbf008e
:102374000004a00012edb7000500370021d12000b1
:1023840091407800e0cfb30000c0600012edb700c8
:102394001e409000a0ff07000080fa000000060025
:1023a4000200fa0020c1b30091ff0700004f78003b
:1023b4009e4078000180fb006100600000407800ce
:1023c400e04f50000200320010c0b300010037009b
:1023d4000040eb000080fa00000006000200fa0052
:1023e400004f780013cdbf000004a00013edb70028
:1023f4001e40780091ff07000080fa0000000600ec
:102404000200fa00004f780031d12000914078009a
:10241400e0cfb30000c0600013edb7001e407800a9
:1024240086ff07000080fa00000006000200fa00a0
:10243400004f780031d1200091407800d0cfb30014
:1024440000c0600013edb7001e4078007bff07005a
:102454000080fa00000006000200fa00004f780035
:1024640013cdbf000024a00013edb7001e40780078
:1024740072ff07000080fa00000006000200fa0064
:10248400004f780031d1200091407800b0cfb300e4
:1024940000c0600013edb7001e40780067ff07001e
:1024a4000080fa00000006000200fa00004f7800e5
:1024b4001e40780072ff07001e40780056ff070098
:1024c4001e4078005dff07000080fa00000006004f
:1024d4000400fa00000f7800110798001e0078002d
:1024e4000040780082060700010037000060fe000b
:1024f4001e00780000407800880607009e009000c7
:10250400810f5000f9ff39000080fa000000060036
:102514000200fa00004f7800114798001e4078002e
:102524000080fb004400de00004078009e409000e4
:102534005bff07000080fa00000006000200fa00ba
:10254400004f7800114798001e4078006f406000eb
:102554009e40900052ff07000080fa000000060031
:102564000200fa00004f78001e4078008080fb00d3
:102574000000280000807000610007000080fa005d
:10258400000006000200fa00004f78009e40780028
:102594000180fb005a0007000080fa0000000600da
:1025a4000400fa002047980070688000e00f500093
:1025b4003700320066000700000f78001e00780024
:1025c400e00f50001b003d00f00f20001e0f6000c4
:1025d4002e40900022ff07002e40900088ff070045
:1025e4002e4090009cff07001e00780000407800f9
:1025f400ae409000c6ff07002e4090009fff0700ea
:102604002e40900094ff07001e00780000407800e0
:10261400ae409000c9ff07002e4090008eff0700d7
:102624002e40900095ff07002e4090006bff07009e
:10263400170037002e409000e04f50000200320097
:1026440040062000b7fd07002e40900082ff0700df
:102654001e00780000407800ae409000acff0700f8
:102664002e40900085ff07002e4090007aff07005f
:102674001e00780000407800ae409000afff0700d5
:102684002e40900074ff07002e4090007bff07004f
:102694000080fa00000006000000fa000080fa0042
:1026a400000006000200fa00004f7800114798006d
:1026b4001e409000eafe07001e40900050ff0700f5
:1026c4001e40900059ff07001e40900062ff070063
:1026d4001e40900060ff07001e4078000080fb0051
:1026e4004400de00004078009e409000ecfe0700ad
:1026f4001e40900061ff07000080fa000000060001
:102704000200fa00000f78005068800000014000c9
:10271400a1802000810041009e0878000000e800ac
:10272400506888005168800000282000808f500085
:1027340002003a000000eb005068880070688000d6
:102744000000e800706888000080fa0000000600bd
:102754000200fa006068800000014000a1802000af
:1027640081004100110f78000000e80060688800d3
:102774006168800000282000808f500002003a0029
:102784000000eb0060688800706880000000e900c9
:10279400706888001e0078000080fa0000000600bf
:1027a4000200fa00000f78009e007800803e2000ae
:1027b40000017800110009008200d8000040780070
:1027c40086efb70086cfbf008000fb0080c12f00da
:1027d4000088b900000078001e0f40009e007800b9
:1027e4004006200000017800110009008200d80092
:1027f4000040780087efb70087cfbf008000fb0060
:10280400c0f92f000088b900000078001e0f4000b6
:102814009e007800a000200000017800110009004b
:102824008200d8000040780088efb70088cfbf004e
:102834008000fb0060ff2f000088b90000007800d2
:102844001e0f40001e007800004078000043b000d6
:1028540089efb7000040eb008aefb70088cfbf00d4
:102864000043b00088efb70087cfbf000043b0003b
:1028740087efb70086cfbf000043b00086efb700f4
:102884000080fa00000006000000fa0000c92800d9
:10289400eb030700e0ca2800e903070020cb280067
:1028a400e703070030cd2800e503070050cf2800d8
:1028b400e303070020d12800e103070060d32800c8
:1028c400df03070020d42800dd03070050d42800cc
:1028d400db0307000080fa00000006000000fa0095
:1028e400f0d62800d603070020da2800d403070016
:1028f400e5ff07000000eb00107c88005d05070081
:102904000040780084efb7000040eb0085efb7008b
:102914000080fa00000006000000fa0085cfbf0026
:102924000000fb00cf80de00f20120000300200045
:10293400820f5000838f580014013e000060010094
:102944001f0037004c0037006b0037008d00370044
:1029540099003700bb0037000c0137000b0137002a
:102964000a01370009013700080137000701370061
:102974000601370005013700040137000301370061
:10298400020137000101370000013700ff00370062
:10299400fe003700ad003700fc003700fb003700b5
:1029a400fa003700f9003700f8003700f700370065
:1029b400f6003700f5003700f4003700ab003700ad
:1029c400a5030700e00f50001a003200a703070018
:1029d400b8efb70010dc280099030700b8cfbf0098
:1029e400a603070081fb20009140780070c3b30068
:1029f40080cf50000b003c0081fb20009140780008
:102a040000c3b30080cf500006003400b8cfbf002d
:102a14008040780000cdb30000c0400085efb700cf
:102a240004003700d0c0b30094030700b8cfbf0040
:102a34009203070084cfbf0038050700813e2000c1
:102a4400810f5000be00360084cfbf002805070068
:102a5400107c80000000e800107c8800117c80005d
:102a640000712200808f5000b7003a000000eb0094
:102a7400107c8800c500370084cfbf0027050700fd
:102a8400813e2000810f500011003600107c800030
:102a94000000e800107c8800117c80000071220096
:102aa400808f500002003a000000eb00107c880088
:102ab400107c80003aff0700d0c0b3006f0307000a
:102ac40060f820005e03070084cfbf0008050700fc
:102ad40061030700e00f50009d003200630307000c
:102ae400fb4f50009c003a0067ff07000040eb00da
:102af40085efb700a500370084cfbf0007050700a6
:102b0400813e2000810f50001400360084cfbf00a6
:102b1400f7040700107c80000000e800107c8800a7
:102b2400117c800000712200808f500002003a0066
:102b34000000eb00107c8800d0c0b3004f030700f6
:102b4400f0dc28003e0307006b0407000043b000dc
:102b54004a03070050c1b30085efb7003e030700e6
:102b6400e00f50007e00320040030700fb4f50008e
:102b74007d003a0044ff07000040eb0085efb700fa
:102b84008200370060dd28002d030700ff050700e1
:102b9400e04f50000300320020e028002803070023
:102ba4000200370040e1280025030700f0c1b3000c
:102bb40085efb7007500370084cfbf00d704070046
:102bc400813e2000810f50001400360084cfbf00e6
:102bd400c7040700107c80000000e800107c880017
:102be400117c800000712200808f500002003a00a6
:102bf4000000eb00107c8800d0c0b3001f03070066
:102c040060e228000e030700c10507000043b0007e
:102c14001a03070040c0b30085efb7000e03070096
:102c2400e00f50005200320010030700fb4f500029
:102c340051003a0014ff07000040eb0085efb70095
:102c4400520037000000fe005000370000e3280067
:102c5400fb020700320407000043b000070307002b
:102c640020c0b30085efb7004800370084cfbf0011
:102c7400aa040700813e2000810f50000b0036009b
:102c840084cfbf009a040700107c80000000e80095
:102c9400107c8800117c800000712200808f50001d
:102ca40002003a000000eb00107c8800ea020700f2
:102cb400e00f500032003200ec0207000000fb007d
:102cc400a1042000810f500009003200a106200059
:102cd400810f50000f003200fb0f50002a003a0011
:102ce400e9fe07000040eb0085efb7001200370053
:102cf400dd050700e04f50000300320020e028000b
:102d0400cf0207000c00370040e12800cc02070086
:102d140009003700d4050700e04f500003003200db
:102d240020e02800c60207000300370040e1280025
:102d3400c302070000000000000000001300370079
:102d44000000000011003700000000000f003700f1
:102d5400000000000d003700000000000b003700e9
:102d640000000000090037000000000007003700e1
:102d740000000000050037000000000003003700d9
:102d84000000000001003700000000000080fa008d
:102d9400000006000000fa00360407000040780036
:102da400baefb7000040eb00bbefb7000040eb0008
:102db4004afc070000c5b300c0efb70020c4b3004d
:102dc400c1efb700a0c3b300c2efb70000c2b300a5
:102dd400c5efb70000c2b300c6efb7000080fa0029
:102de400000006000000fa00b9cfbf000000fb009d
:102df400cf80de005200200003002000820f50002c
:102e0400838f58007d003e000060010005003700fc
:102e14001f003700270037003f0037004a00370003
:102e24005a003700bdcfbf008080fb0092e328002a
:102e3400e2c078000040e800bdefb7000140780030
:102e440077fc0700bdcfbf00f04f500002003a00ee
:102e54000040eb00bdefb700bccfbf00ef4f500008
:102e640007003a0010c0b300b9efb700bacfbf00f3
:102e74001f040700110020000000eb0031fc0700d4
:102e8400bccfbf000040e800bcefb7005b003700d8
:102e9400990307000043b000c3efb700a003070085
:102ea4000043b000c4efb70020c0b300b9efb700cf
:102eb40052003700b8050700f07d8800f07d8000df
:102ec40037fe070086cfbf00c7efb70087cfbf002c
:102ed400c8efb70088cfbf00c9efb70089cfbf00e4
:102ee400caefb70000c2b300cfefb700cfcfbf0027
:102ef400ceefb700cecfbf00cdefb700cdcfbf0030
:102f0400ccefb700cccfbf00cbefb70030c0b300dd
:102f1400b9efb70039003700bacfbf00ff0307008d
:102f240021032000810f50002f003600bacfbf00cc
:102f3400ef0307000040eb00bcefb70040c0b30054
:102f4400b9efb7002d003700bccfbf000081fb00f4
:102f540001fc200081004100914078000040e8001d
:102f6400bcefb700014078002dfc0700bccfbf00c8
:102f7400f04f50001e003a0050c0b300b9efb70044
:102f8400bacfbf00da0307001c003700bacfbf0076
:102f9400e2030700b15d2000810f500016003600e7
:102fa400bbcfbf000040e800bbefb700bbcfbf0002
:102fb400f04f500002003a000040eb00bbefb700b6
:102fc4000040eb00b9efb7008000eb000000eb001d
:102fd400dcfb0700bbcfbf00bdefb7000040eb0038
:102fe400bcefb70005003700000000000300370005
:102ff4000000000001003700000000000080fa001b
:10300400000006000000fa009a030700f07288002e
:10301400f0728000e10f400002003a00200020001e
:103024001f003700700220002010880000202100bb
:10303400301088000000eb00001088000000eb0056
:1030440010108800e442a900e462a900e842a90043
:10305400e862a900cda2a900d1a2a900c702a900d3
:10306400cb02a800cb02a900cda2a800e442a8008c
:10307400e462a80000202900301088000040eb0022
:1030840060eeb7000040eb0063eeb70063cebf0014
:1030940062eeb70062cebf0061eeb7000000eb0045
:1030a4000080fa00000006000000fa000080fa0028
:1030b400000006000200fa0060cebf000080fb00a2
:1030c400cf80de009200200003002000820f500019
:1030d400838f5800a5003e000060010009003700fe
:1030e4003100370039003700470037004d00370002
:1030f4005b003700610037006f0037007500370050
:103104007d00370061cebf00e04f500084003200e4
:1031140010c0b30060eeb70062cebf000080fb00b9
:103124006300b9008000780050e620000080400071
:1031340010407800fbeeb70062cebf000080fb00b9
:103144006300b9008000780040e620000080400061
:1031540010407800faeeb70062cebf000080fb009a
:103164006300b900000078008080e80040e6200099
:103174000080400010407800fceeb70062cebf0033
:103184000080fb008000e80020032000000178009c
:10319400110009008200d8008000fd000040780082
:1031a40062eeb70071003700411080000000240077
:1031b40000806000e00f50005b003a000602a800a7
:1031c40020c0b30060eeb700680037003010800004
:1031d40061006000e00f500055003a00401080008c
:1031e4004300de0061406000004f780030c0b3004f
:1031f40060eeb700facebf000000fb000000400004
:1032040010108800590037004010800061006000f1
:10321400e00f500048003a0040c0b30060eeb70031
:10322400520037004110800000002400008060003c
:10323400e00f500042003a00401080004f00de00d2
:1032440000407800004f7800fbcebf000080fb00f8
:103254001010880050c0b30060eeb7004300370080
:103264004010800061006000e00f500036003a001a
:1032740060c0b30060eeb7003c003700411080002e
:103284000000240000806000e00f500030003a008d
:1032940070c0b30060eeb700401080004f00de0045
:1032a40000407800004f7800fccebf000080fb0097
:1032b400101088002d00370040108000610060006d
:1032c400e00f500024003a0080c0b30060eeb70065
:1032d40026003700411080000000240000806000b8
:1032e400e00f50001e003a0090c0b30060eeb7003b
:1032f4000642a8001d003700301080006400600002
:10330400e00f500018003a000040eb0060eeb700f8
:1033140061cebf000040e90061eeb7001300370042
:103324000000000011003700000000000f0037000b
:10333400000000000d003700000000000b00370003
:1033440000000000090037000000000007003700fb
:1033540000000000050037000000000003003700f3
:103364000000000001003700000000000080fa00a7
:10337400000006000000fa0061cebf000080fb00e0
:103384000000e9004f00de00004078000080fa00f1
:10339400000006000400fa00004f7800114798006e
:1033a4002247980063cebf000080fb006300b90091
:1033b4008000780040e62000008040001e4878002d
:1033c40063cebf000080fb006300b900800078007a
:1033d40050e62000008040009e40900001487800a4
:1033e40063cebf000080fb006300b900800078005a
:1033f40060e62000008040002e41900002487800e2
:1034040063cebf000080fb008000e80020032000a2
:1034140000017800110009008200d8008000fd003e
:103424000040780063eeb70061cebf000040e800c2
:1034340061eeb7000000eb000080fa000000060017
:103444000600fa0020479800314798004247980048
:103454004d000700180007002e4090000040400077
:103464003c0007004800070051000700000f7800e7
:103474003e40900037000700430007004c0007005f
:10348400000f78004e409000320007003e00070015
:10349400230007001e0078000080fa0000000600e8
:1034a4000600fa00004f78001147980012079800b0
:1034b40023079800ffff37000000fa000602a80067
:1034c400000000003010800061006000e00f500038
:1034d400fcff3a00401080004300de0061406000c1
:1034e4000080fb000080fa00000006000000fa00e3
:1034f4000622a80000000000301080006200600076
:10350400e00f5000fcff3a00401080004300de0052
:10351400614060000080fb000080fa0000000600ab
:103524000000fa000642a8000000000030108000ed
:1035340064006000e00f5000fcff3a00401080007f
:103544004400de00614060000080fb000080fa005f
:10355400000006000200fa00004f78009e40780048
:103564000180fb0010108800000000004010800063
:1035740061006000e00f5000fcff3a000000eb0027
:103584000080fa00000006000000fa0000000000bd
:10359400411080000000240000806000e00f500013
:1035a400fbff3a000000eb000080fa000000060078
:1035b4000000fa00401080000080ea004f00de00a6
:1035c4000080fa00000006000000fa0006a2a8002d
:1035d4000682a80000000000301080007000600027
:1035e400e00f5000fcff3a0006a2a9000000eb0027
:1035f4000080fa00000006000000fa0006a2a900fc
:103604000682a800000000003010800070006000f6
:10361400e00f5000fcff3a000000eb000080fa00cd
:10362400000006000400fa00000f7800214798000b
:10363400100037001c000700004078009e0078004e
:10364400804878001e0fe8004110800000402000f0
:1036540000806000e00f5000020032000080eb00a8
:103664000f0037002e409000e04f50000100320060
:10367400e1ff07002e4090000080fb000000ea00fc
:103684004f00de0000407800ae4090008140e90029
:1036940021479800e04f5000e6ff3a000000eb009d
:1036a4000080fa00000006000000fa000662a8008c
:1036b4000000000000000000401080006200600074
:1036c400e00f5000fcff3200001080000080fa0080
:1036d400000006000000fa000000280080118800a5
:1036e40090012000c01188003342a8000040eb0084
:1036f4005aeeb70097c0a8000040eb0056eeb700a2
:1037040056cebf0057eeb70057cebf0054eeb700f9
:1037140054cebf0055eeb70055cebf0058eeb700eb
:1037240058cebf0059eeb7000080fa000000060032
:103734000000fa005acebf000000fb00cf80de007c
:103744003200200003002000820f5000838f5800b5
:103754002c003e0000600100030037000800370021
:103764000c0037001500370059cebf00e04f500061
:103774002100320010c0b3005aeeb7002100370018
:1037840062000700e072880020c0b3005aeeb70060
:103794001c003700e072800010407800e04f5000b9
:1037a4000300320030c0b3005aeeb70015003700f2
:1037b4000040eb005aeeb700120037009111800070
:1037c4000010200000806000e00f50000c00320068
:1037d400e1728000114078000000fb00a011880015
:1037e4000100e800e07288003342a80020c0b30062
:1037f4005aeeb70003003700000000000100370054
:10380400000000000080fa00000006000200fa0038
:10381400000f7800040037001e0078001040780084
:103824001e0fe800150007001e0078001040780005
:10383400e04f5000f8ff3a000080fa000000060054
:103844000200fa00000f78001e007800190007003b
:103854000080fa00000006000000fa0058cebf0005
:103864000080fb000080fa00000006000000fa005f
:10387400510007000080fa00000006000200fa0070
:10388400004f7800010037000060fe0091118000b5
:103894000010200000806000e00f5000faff3200aa
:1038a4001e00fb00a01188003342a8000080fa002b
:1038b400000006000200fa00000f780054cebf009a
:1038c4008080fb000181400041d52000810041003f
:1038d4009e0878000040e80054eeb70041e520005f
:1038e4009140780000c8b30080cf500002003a0035
:1038f4000040eb0054eeb70059cebf000040e80092
:1039040059eeb7000080fa00000006000200fa0039
:1039140056cebf008080fb000181400041d52000cd
:1039240081004100110f78000040e80056eeb70016
:1039340061e520009140780000c8b30080cf5000ba
:1039440002003a000040eb0056eeb70059cebf002b
:103954000040e90059eeb7001e0078000080fa002c
:10396400000006000200fa00004f780055cebf00a8
:103974000081fb0041d12000810041009e48780075
:103984000040e80055eeb70051e520009140780072
:1039940000c4b30080cf500002003a000040eb00a6
:1039a40055eeb70058cebf000040e80058eeb7000f
:1039b4000080fa00000006000200fa0057cebf00a3
:1039c4000081fb0041d1200081004100114f7800ab
:1039d4000040e80057eeb70071e520009140780000
:1039e40000c4b30080cf500002003a000040eb0056
:1039f40057eeb70058cebf000040e90058eeb700bc
:103a04001e4078000080fa00000006003600f8002e
:103a1400809fbe00829fbe00849fbe00869fbe0022
:103a24000000fa0087c0a9009011800062006000c5
:103a3400e00f5000010032003222a900b0118000d2
:103a440000407800c7ff07000080fa004f03be0063
:103a54004f02be004f01be004f00be003600f90009
:103a6400004006000000fa00d2e2a800d2c2a8007a
:103a74006a00a80069e0a8000040eb00deefb70090
:103a8400fc00070000407800dfefb7000080fa0078
:103a9400000006000000fa00decfbf000000fb00bb
:103aa400cf80de007200200003002000820f50004f
:103ab400838f58008e003e0000600100070037002d
:103ac4001600370023003700320037004400370067
:103ad4004b003700580037006700370086000700a6
:103ae400e04f500005003a00dfcfbf00000107009f
:103af40010c0b300deefb7007d0037008800070078
:103b0400e04f50006f003a00dfcfbf00f80007001d
:103b140050c0b300deefb70075003700dfcfbf0041
:103b2400fe00070031062000810f500067003600b8
:103b340071000700e04f500003003a0020c0b300ba
:103b4400deefb7006a0037000040eb00deefb7009d
:103b54006700370003020700e0efb700e0cfbf00c3
:103b6400ea4f500003003a0010c0b30001020700fe
:103b740005003700e0cfbf000040e800e0efb700e9
:103b8400e0cfbf00fb01070030c0b300deefb70099
:103b940057003700dfcfbf00e0000700f17c2000b2
:103ba400810f500006003600f8010700e04f500076
:103bb400010032002c020700dfcfbf00cc00070059
:103bc4004d000700e14f500042003a0040c0b300ee
:103bd400deefb700dfcfbf00c500070044003700a9
:103be400dfcfbf00cd00070031062000810f500059
:103bf4003a0036000040eb00deefb7003c0037002f
:103c0400dfcfbf00c500070031062000810f500040
:103c14003400360042000700e04f500003003a0031
:103c240060c0b300deefb700310037000040eb00a6
:103c3400deefb7002e003700ca010700e0efb7003f
:103c4400e0cfbf00e14f500003003a00a0c0b30032
:103c5400c801070005003700e0cfbf000040e900bd
:103c6400e0efb700e0cfbf00c201070070c0b300af
:103c7400deefb7001e003700dfcfbf00a70007004c
:103c8400f17c2000810f500006003600bf010700c0
:103c9400e04f500001003a00f3010700dfcfbf00fe
:103ca400930007001e000700e14f50000f003a0088
:103cb40040c0b300deefb700dfcfbf008c000700c9
:103cc4000b0037000000000009003700000000006e
:103cd4000700370000000000050037000000000066
:103ce400030037000000000001003700000000005e
:103cf4000080fa00000006000000fa00a11680000f
:103d040000042000008060008000ea000080700051
:103d14004f00de00004078000080fa00000006003a
:103d24000000fa00a1168000000820000080600056
:103d34008000ea00008070004f00de000040780040
:103d44000080fa00000006000000fa000080fa007b
:103d540000000600809fbe00821f78000000fa0069
:103d64008460a900f07b80000000e800f07b8800fc
:103d7400f17b8000f0522700808f50001f00360036
:103d84000000eb00007c880017003700007c8000f6
:103d94004200dd008080e800e0ef20000080400069
:103da40010407800e14f50000c003a00007c800085
:103db400017c80004209dd00e1ef20008100410028
:103dc40011017800f17b8000810051004201dd0087
:103dd400e0ef20000000410001087800007c800032
:103de4000000e800007c8800007c8000ff0f500089
:103df400e6ff34000000eb00f07b88000080fa004e
:103e04004f0178004f00be00004006000200fa0097
:103e14000040eb00004f7800080037009e40780017
:103e24000180fb00c200dd0000f020008080400023
:103e34000040eb00804878001e4fe8001e407800e8
:103e4400ff4f5000f5ff36000000eb00f07b8800c8
:103e540004a1a9000481a800401f200010088800c4
:103e640005e1a8008460a9009460a8000080fa001d
:103e7400000006000200fa000040eb00004f78004a
:103e8400070037001e4fe80000c2b3009e407800d0
:103e940080cf500002003a000080eb00120037008f
:103ea4009e4078000180fb004200dd008080e80035
:103eb400e0ef20000080400010407800e14f500007
:103ec400f0ff32009e4078000180fb00c200dd005c
:103ed40000f020008080400010c0b30080487800cb
:103ee4009e4078000180fb000080fa00000006007c
:103ef4000200fa00004f78009e4078000180fb0029
:103f0400f17b80004201dd00e0ef20000000410071
:103f1400010878000080fa00000006000400fa009e
:103f240020479800f07b8000000f78009e00780006
:103f34002e4090000080fb004201dd00e0ef2000f5
:103f44000000410010007800008050000080fa005a
:103f5400000006000200fa00004f78009e4078003e
:103f64000180fb00c200dd0000f0200080804000e2
:103f74000040eb00804878000080fa000000060052
:103f84000000fa000080fa00000006000000fa00b9
:103f9400d282a900d682a900b6ff070000407800ab
:103fa400d0efb7000040eb00d1efb7000040eb00ca
:103fb400d2efb7000000eb00a07e88000080fa007a
:103fc400000006000000fa00d1cfbf000080fb0013
:103fd400cf80de003200200003002000820f50005a
:103fe400838f58006c003e0000600100030037001e
:103ff4000f0037002c00370038003700d0cfbf0047
:10400400c6ff070080007800d2cfbf000080fb000d
:10401400808f500051003900d0cfbf00b4ff07009b
:1040240010c0b300d1efb700d682a9005a00370000
:10403400d0cfbf00b9ff070080007800d2cfbf0007
:104044000080fb0074001000808f50004500390090
:10405400d0cfbf00a6ff07000040eb00d1efb700b0
:10406400d682a800a07e80000000e800a07e880020
:10407400a07e8000e40f50003c003a00d2cfbf0085
:104084000040e800d2efb7000000eb00a07e8800fb
:10409400d2cfbf00f44f500036003a0020c0b30026
:1040a400d1efb7003c003700d0cfbf009bff070023
:1040b40080007800d2cfbf000080fb00808f5000ca
:1040c4002e003900d0cfbf0089ff070030c0b300f5
:1040d400d1efb700d682a9002f003700d0cfbf00a0
:1040e4008eff070080007800d2cfbf000080fb0065
:1040f40074001000808f500022003900d0cfbf0020
:104104007bff070020c0b300d1efb700d682a80020
:10411400a07e80000000e800a07e8800a07e8000d1
:10412400e40f500019003a00d2cfbf000040e9006c
:10413400d2efb7000000eb00a07e8800d2cfbf0012
:10414400e04f500013003a000040eb00d1efb700fd
:104154000040eb00d2efb7000f0037000000000072
:104164000d003700000000000b00370000000000c5
:1041740009003700000000000700370000000000bd
:1041840005003700000000000300370000000000b5
:1041940001003700000000000080fa000000060063
:1041a4000000fa000040eb00daefb7000040eb003b
:1041b400dbefb700901680002eff07000040780068
:1041c400dcefb7006a00a80069c0a8000080fa000c
:1041d400000006000000fa00dbcfbf000000fb0077
:1041e400cf80de004200200003002000820f500038
:1041f400838f580044003e00006001000400370033
:104204000d0037001c003700260037002f00370050
:10421400a11680000002200000806000e00f500022
:1042240032003a00dccfbf0031ff070010c0b300fa
:10423400dbefb70034003700dccfbf0037ff0700e7
:1042440031062000810f50002a003600a11680009c
:104254000002200000806000e00f500003003a00dc
:1042640020c0b300dbefb700270037000040eb00ad
:10427400dbefb70024003700dacfbf000040e800ce
:10428400daefb700dacfbf00e94f50000200340084
:104294000040eb00daefb70030c0b300dbefb7004b
:1042a40019003700a1168000000220000080600081
:1042b400e00f50001100320040c0b300dbefb70044
:1042c400dccfbf000aff07000f003700dccfbf00c0
:1042d40012ff070031062000810f5000090036004c
:1042e4000040eb00dbefb7000700370000000000e0
:1042f4000500370000000000030037000000000044
:1043040001003700000000000080fa0000000600f1
:104314000000fa00dacfbf000080fa0000000600b7
:104324000000fa000040eb00daefb7000040eb00b9
:104334000080fa00000006000000fa00c7c2a900cd
:10434400cbc2a9000040eb00d6efb70010c0b30009
:10435400d7efb700c7fe0700c07e88000080fa00d0
:10436400000006000000fa00d7cfbf000080fa006a
:10437400000006000200fa00004f78001e4078009a
:10438400d7efb7000080fa00000006000000fa0032
:10439400d6cfbf000014a2000080fb000000ea009a
:1043a4004f00de00004078000080fa0000000600a4
:1043b4000000fa00d6cfbf000000fb00e10f500060
:1043c40013003200e20f500020003200e00f5000d2
:1043d40023003a00c07e800000407800cffe070032
:1043e40080007800d7cfbf000000fb00808f500012
:1043f40018003900c07e800000407800bcfe070031
:10440400cbc2a80010c0b300d6efb7001400370029
:10441400c07e800000407800c0fe07008000780065
:10442400d7cfbf000000fb00808f50000b00390085
:10443400c07e800000407800adfe0700cbc2a9001a
:104444000040eb00d6efb700050037000000000085
:1044540003003700000000000100370000000000e6
:104464000080fa00000006000000fa00d6cfbf006a
:10447400e24f500005003a0084e0a90094e0a8004f
:104484000040eb00d6efb7000500370084e0a90038
:1044940094e0a90020c0b300d6efb700cbc2a900b6
:1044a400d6cfbf000080fb000000e9004f00de0013
:1044b400004078000080fa00000006000000fa00c6
:1044c400c642a80021a3a8002103a9000019800066
:1044d4004800de00614060000080fb006100600075
:1044e4004900dd0002198000f1df2f008100610026
:1044f400008070000019880020e3a80000198000e3
:104504004700de00614060000080fb006100600045
:104514004600dd0002198000f1fb2f0081006100dc
:104524000080700000198800001980004600de0039
:10453400614060000080fb00610060004500dd0018
:1045440002198000f1fd2f008100610000807000dd
:104554000019880011198000f0ff2100008060001c
:10456400101988002343a9002223a800001020006a
:1045740020198800202020004019880040002000d5
:104584008019880021e3a8002023a8002043a80064
:104594000080fa00000006000000fa000018800005
:1045a4000080fa0000000600900188008100780075
:1045b400000006000500fc00003b880050052000b8
:1045c400303b8800a00a2000303b880061e7a80047
:1045d400000000000000000061e7af00feff3700ac
:1045e40000000600900188008308bb008288bb009d
:1045f40000000600900188001100ba009180ba0002
:1046040000000600020c0400000000000000060088
:104614003200f800023b8800900188008108bb004a
:104624000500fc0050052000303b8800a00a200053
:10463400303b880061e7a800000000000000000093
:1046440061e7af00feff37003200f900000006000a
:104654000000fa00edfd07006afa070036ff0700c4
:104664000101200040002000bef5070019fc0700ee
:1046740046fe0700cafe070098f80700f9fc070089
:104684008eff0700c3f907000080fa00000006004f
:104694000000fa0046ff0700cefe07009ef8070060
:1046a40048fe070022fc0700fafc07000040eb006c
:1046b40077f507007ffa0700caf907000080fa00bf
:1046c400000006000000fa00e1ff0700f0ff070009
:0846d4000060fe00fdff37004d
:020000040000fa
:1046dc005e0e0000a000000000000000fe0e0000b6
:1046ec008400000000000000000800001405000019
:1046fc0000000000140d00004a0100000000000042
:10470c00d00f00000600000000000000d60f0000d3
:10471c000400000000000000820f00004e000000aa
:10472c0000000000da0f0000040000000000000090
:10473c00de0f00000400000000000000000000007c
:020000040000fa
:08474c000040da000000fe004d
:00000001FF
