:020000040000FA
:0400000045EF00F0D8
:020004000000FA
:040008000DEF00F008
:0800180011003FEC00F0032A87
:100020001100026A036A116A126A056A066A076A9F
:10003000106A136A036A816A836A1200900EAB6EBB
:10004000260EAC6E810EAF6EB06AB86A120094864E
:100050009488949A948E948C9598959A959C959E54
:1000600093909392939493969398939A1200880EF8
:10007000D56ED09EE00EF26E3FEC00F012003C0E0A
:10008000D76EA60ED66EF294120011EC00F027EC9B
:1000900000F01EEC00F037EC00F09EBA05EC01F029
:1000A00082B69DEC01F082B8AFEC01F002B233EC05
:1000B00001F002B0BEEC01F002B46AEC01F002B64D
:1000C00076EC01F04DEF00F0000E11642AEF01F024
:1000D000E5EC00F070EF00F0000E11642AEF01F083
:1000E00014EC01F08A6A8C6A056A026A096A106A6D
:1000F000076AEA6A136A052A12B0028011C013F077
:10010000800EE96E000E1364B2EF00F0EECF10F037
:10011000036A080E096095EF00F003B0A3EF00F04A
:1001200003B2A9EF00F089EF00F0072A096A13066D
:10013000065007609EEC00F082EF00F0052A89EC83
:1001400001F0076A120010B08B9A10A08B8A89EF19
:1001500000F010B08B8A10A08B9A092A1042036A13
:1001600089EF00F002A0B9EF00F01368026A82EF95
:1001700000F00B0E05629EEC00F0040E026E03A070
:10018000BFEF00F08B9A036A1200EFEC00F0116AE7
:10019000126A026AEA6A800EE96E9EAACDEF00F04A
:1001A000880EAE60DEEF00F0AECFEEFF112AD8B0C1
:1001B000E2EC00F0EAEC00F0CDEF00F0080E026E89
:1001C000036A1200122A116A1200820EAD6EF9EC57
:1001D00000F01200850EAD6EF9EC00F01200810EF9
:1001E000AD6EF9EC00F01200880EAD6EF9EC00F087
:1001F0001200ACA2F9EF00F01200840EAD6EF9EC23
:1002000000F0036A010E026E1200AEAE1200810E03
:10021000AE64C5EF00F0820EAE6464EF00F0840EB1
:10022000AE64C7EF00F01200066ACD0E110212B0E4
:1002300025EC01F0F4CF06F00642064206421F0EFE
:100240000616000E0664062A1200CC0EF426330EA3
:10025000F3261200020E026E8A6A8C6A036A076A2B
:10026000106A8C881200340E036038EF01F012001F
:10027000036A07A053EF01F0000E8C6446EF01F013
:100280008C328C9E8CB64CEF01F012008A328A9A26
:10029000D8B050EF01F01200076A8C6A8C88120007
:1002A0008C8E8A6A1200000E8C6461EF01F08C362D
:1002B0008C96D8B067EF01F0120007808A328C6A02
:1002C00012008A368A908ABC5DEF01F012008A80A3
:1002D0008C6A1200140E036271EF01F082EF01F0DC
:1002E0001200280E036085EF01F01200280E036251
:1002F0007DEF01F082EF01F01200500E036085EFF8
:1003000001F012008A688C681200036A8A6A8C6A9B
:100310001200010E05608FEF01F08C8812008CBE78
:1003200095EF01F08C468C8812008AA09BEF01F0BB
:100330008A468A8012008A8012008A6A8C6A036A5E
:10034000B9EC01F0A7EC01F0FDEF00F0120082B66D
:10035000A7EF01F0120082B8ABEF01F012008A6A39
:100360008C6AB9EC01F0ABEC01F0036A6CEF00F0C1
:100370001200080E0362BAEF01F012008A6A8C6A5A
:10038000C80E03641200C5EF01F0102A090E1064B4
:0C039000CCEF01F02AEF01F0036A12002C
:020000040030CA
:0100010006F8
:010003001EDE
:010005008179
:010006008178
:00000001FF
