:020000040000FA
:0400000045EF00F0D8
:020004000000FA
:040008000DEF00F008
:0800180011003FEC00F0032A87
:100020001100026A036A116A126A056A066A076A9F
:10003000106A136A036A816A836A1200900EAB6EBB
:10004000260EAC6E810EAF6EB06AB86A120094864E
:100050009488949A948E948C9598959A959C959E54
:1000600093909392939493969398939A1200880EF8
:10007000D56ED09EE00EF26E3FEC00F012003C0E0A
:10008000D76EA60ED66EF294120011EC00F027EC9B
:1000900000F01EEC00F037EC00F09EBA2DEC01F001
:1000A00082B6C5EC01F082B8D7EC01F002B25BEC8D
:1000B00001F002B0E6EC01F002B492EC01F002B6FD
:1000C0009EEC01F04DEF00F0000E116452EF01F0D4
:1000D0000DEC01F0096A86EF00F0036A000E11646E
:1000E00052EF01F0036A096A86EF00F003B07EEF79
:1000F00000F003B281EF00F076EF00F08B8A76EF2C
:1001000000F08B9A092A036A86EF00F00A0E096450
:1001100076EF00F0036A8DEF00F0020E036094EFBB
:1001200000F08B9A8DEF00F0030E115E3CEC01F0B5
:10013000030E11268A6A8C6A056A026A096A106AC5
:10014000076AEA6A136A052A12B0028011C013F026
:10015000800EE96E000E1364DAEF00F0EECF10F0BF
:10016000036A080E0960BDEF00F003B0C6EF00F0AF
:1001700003B2CCEF00F0B1EF00F0072A096A1306D2
:1001800006500760D5EC00F0AAEF00F010B08B9A93
:1001900010A08B8AB1EF00F010B08B8A10A08B9A60
:1001A000092A1042036AB1EF00F0052AB1EC01F010
:1001B000076A120002A0E1EF00F01368026AAAEFDA
:1001C00000F00B0E0562D5EC00F0040E026E03A0E9
:1001D000E7EF00F08B9A036A120017EC01F0116A46
:1001E000126A026AEA6A800EE96E9EAAF5EF00F0D2
:1001F000880EAE6200EF01F0080E026E036A120074
:10020000AECFEEFF112AD8B00AEC01F012EC01F0EB
:10021000F5EF00F0122A116A1200820EAD6E21EC89
:1002200001F01200850EAD6E21EC01F01200810E7E
:10023000AD6E21EC01F01200880EAD6E21EC01F0E4
:100240001200ACA221EF01F01200840EAD6E21EC81
:1002500001F0036A010E026E1200AEAE1200810EB2
:10026000AE64EDEF00F0820EAE6464EF00F0840E39
:10027000AE64EFEF00F01200066ACD0E110212B06C
:100280004DEC01F0F4CF06F00642064206421F0E86
:100290000616000E0664062A1200CC0EF426330E53
:1002A000F3261200020E026E8A6A8C6A036A076ADB
:1002B000106A8C881200340E036060EF01F01200A7
:1002C000036A07A07BEF01F0000E8C646EEF01F073
:1002D0008C328C9E8CB674EF01F012008A328A9AAE
:1002E000D8B078EF01F01200076A8C6A8C8812008F
:1002F0008C8E8A6A1200000E8C6489EF01F08C36B5
:100300008C96D8B08FEF01F0120007808A328C6A89
:1003100012008A368A908ABC85EF01F012008A802A
:100320008C6A1200140E036299EF01F0AAEF01F03B
:100330001200280E0360ADEF01F01200280E0362D8
:10034000A5EF01F0AAEF01F01200500E0360ADEF2F
:1003500001F012008A688C681200036A8A6A8C6A4B
:100360001200010E0560B7EF01F08C8812008CBE00
:10037000BDEF01F08C468C8812008AA0C3EF01F01B
:100380008A468A8012008A8012008A6A8C6A036A0E
:10039000E1EC01F0CFEC01F025EF01F0120082B6A4
:1003A000CFEF01F0120082B8D3EF01F012008A6A99
:1003B0008C6AE1EC01F0D3EC01F0036A6EEF00F01F
:1003C0001200080E0362E2EF01F012008A6A8C6AE2
:1003D000C80E03641200EDEF01F0102A090E10643C
:0C03E000F4EF01F052EF01F0036A12008C
:020000040030CA
:0100010006F8
:010003001EDE
:010005008179
:010006008178
:00000001FF
