:020000040000FA
:0400000044EF00F0D9
:020004000000FA
:040008000DEF00F008
:0800180011003EEC00F0032A88
:100020001100026A036A116A056A066A076A106AA1
:10003000136A036A816A836A1200900EAB6E260E01
:10004000AC6E810EAF6EB06AB86A12009486948866
:10005000949A948E948C9598959A959C959E93904D
:100060009392939493969398939A1200880ED56ED8
:10007000D09EE00EF26E3EEC00F012003C0ED76E09
:10008000A60ED66EF294120011EC00F026EC00F0F1
:100090001DEC00F036EC00F09EBAD8EC00F082B611
:1000A000ADEC01F082B8B3EC01F002B257EC01F014
:1000B00002B0C0EC01F002B48EEC01F002B69AEC92
:1000C00001F04CEF00F0000E11644EEF01F007EC70
:1000D00001F06FEF00F0000E11644EEF01F038EC0C
:1000E00001F08A6A8C6A056A026A096A106A076AFC
:1000F000EA6A136A052A12B0028011C013F0800E5A
:10010000E96E000E1364B1EF00F0EECF10F0036A59
:10011000080E096094EF00F003B0A2EF00F003B204
:10012000A8EF00F088EF00F0072A096A13060650CE
:1001300007609DEC00F081EF00F0052AC4EC00F0B0
:10014000076A120010B08B9A10A08B8A88EF00F01B
:1001500010B08B8A10A08B9A092A1042036A88EF8C
:1001600000F002A0B8EF00F01368026A81EF00F01F
:100170000B0E05629DEC00F0040E026E03A0BEEFB4
:1001800000F08B9A036A1200010E0560CAEF00F0BE
:100190008C8812008CBED0EF00F08C468C88120048
:1001A0008AA0D6EF00F08A468A8012008A80120068
:1001B000AEAE1200810EAE64E7EF00F0820EAE64C8
:1001C00063EF00F0840EAE64E9EF00F0120023EC60
:1001D00001F0116A126A026AEA6A800EE96E9EAA4A
:1001E000EFEF00F0880EAE6000EF01F0AECFEEFF53
:1001F000112AD8B004EC01F00CEC01F0EFEF00F0A4
:10020000080E026E036A1200122A116A12001150BF
:10021000AD6E2DEC01F01200850EAD6E2DEC01F0EF
:100220001200130EAD6E2DEC01F00650AD6E2DECEC
:1002300001F0140EAD6E2DEC01F01200860EAD6EC5
:100240002DEC01F01200810EAD6E2DEC01F01200CC
:10025000880EAD6E2DEC01F01200ACA22DEF01F076
:100260001200840EAD6E2DEC01F0010E026E120034
:10027000066ACD0E110212B049EC01F0F4CF06F07F
:100280000642064206421F0E0616000E0664062AA5
:100290001200CC0EF426330EF3261200020E026E6C
:1002A0008A6A8C6A036A076A106A8C881200340EA4
:1002B00003605CEF01F01200036A07A077EF01F022
:1002C000000E8C646AEF01F08C328C9E8CB670EF5D
:1002D00001F012008A328A9AD8B074EF01F012004D
:1002E000076A8C6A8C8812008C8E8A6A1200000E53
:1002F0008C6485EF01F08C368C96D8B08BEF01F0D2
:10030000120007808A328C6A12008A368A908ABC70
:1003100081EF01F012008A808C6A1200140E0362D1
:1003200095EF01F0A6EF01F01200280E0360A9EF8F
:1003300001F01200280E0362A1EF01F0A6EF01F018
:100340001200500E0360A9EF01F012008A688C6859
:100350001200036A8A6A8C6A1200BBEC01F0036A1D
:1003600031EF01F012008A6A8C6ABBEC01F0036A7B
:100370006BEF00F01200040E0362BCEF01F01200FC
:100380008A6A8C6AC80E03641200C7EF01F0102A53
:10039000090E1064CEEF01F04EEF01F0036A120077
:020000040030CA
:0100010006F8
:010003001EDE
:010005008179
:00000001FF
