:020000040000FA
:0400000044EF00F0D9
:020004000000FA
:040008000DEF00F008
:0800180011003EEC00F0032A88
:100020001100026A036A046A056A066A076A106AAE
:10003000096A036A816A836A1200900EAB6E260E0B
:10004000AC6E810EAF6EB06AB86A12009486948866
:10005000949A948E948C9598959A959C959E93904D
:100060009392939493969398939A1200880ED56ED8
:10007000D09EE00EF26E3EEC00F012003C0ED76E09
:10008000A60ED66EF294120011EC00F026EC00F0F1
:100090001DEC00F036EC00F09EBAC1EC00F082B628
:1000A00087EC01F082B88DEC01F002B231EC01F086
:1000B00002B098EC01F002B468EC01F002B674EC06
:1000C00001F04CEF00F0000E046428EF01F08A6AA2
:1000D0008C6A056A096A106A052AE9EC00F01DECD1
:1000E00001F0076A800E006E0B0E0560BDEF00F098
:1000F000000E0664062A0650076092EF00F0EECF6D
:1001000010F0036A080E09608EEF00F003B09AEF5A
:1001100000F003B2A0EF00F082EF00F0072A096AB6
:1001200078EF00F0052AA9EC00F004500564076A96
:1001300074EF00F010B08B9A10A08B8A82EF00F061
:1001400010B08B8A10A08B9A092A1042036A82EFA2
:1001500000F0010E0560AFEF00F08C8812008CBE3D
:10016000B5EF00F08C468C8812008AA0BBEF00F03F
:100170008A468A8012008A801200040E026E036A88
:100180001200AEAE1200810EAE64D0EF00F0820E0F
:10019000AE6463EF00F0840EAE64D3EF00F01200A3
:1001A000046A06EC01F0046A026A800E006E9EAAE0
:1001B000D7EF00F0880EAE60E5EF00F0AECFEEFFB7
:1001C000042AEFEC00F0D7EF00F0080E026E036A8D
:1001D0001200820EAD6EACA210EC01F012000450C1
:1001E000AD6E10EC01F01200130EAD6E10EC01F0CC
:1001F0000650AD6E10EC01F0140EAD6E10EC01F077
:100200001200860EAD6E10EC01F01200810EAD6E84
:1002100010EC01F01200880EAD6E10EC01F012002F
:10022000ACA210EF01F01200106A036A840EAD6EEA
:1002300010EC01F0010E026E1200066ACD0E0402EF
:10024000F4CF06F00642064206421F0E06161200C2
:10025000020E026E8A6A8C6A036A076A106A8C88C8
:100260001200340E036036EF01F01200036A07A09B
:1002700051EF01F0000E8C6444EF01F08C328C9E43
:100280008CB64AEF01F012008A328A9AD8B04EEF4B
:1002900001F01200076A8C6A8C8812008C8E8A6AC0
:1002A0001200000E8C645FEF01F08C368C96D8B093
:1002B00065EF01F0120007808A328C6A12008A36DC
:1002C0008A908ABC5BEF01F012008A808C6A12006F
:1002D000140E03626FEF01F080EF01F01200280EA0
:1002E000036083EF01F01200280E03627BEF01F040
:1002F00080EF01F01200500E036083EF01F0120056
:100300008A688C681200036A8A6A8C6A1200036A1F
:1003100093EC01F014EF01F01200036A93EC01F08A
:1003200063EF00F01200030E036493EF01F012007C
:10033000F80E036412009DEF01F0102A320E1062D5
:0A034000120028EF01F0102A12004D
:020000040030CA
:0100010006F8
:010003001EDE
:010005008179
:00000001FF
