:020000040000FA
:0400000037EF00F0E6
:020004000000FA
:040008000DEF00F008
:08001800110031EC00F0032A95
:100020001100026A1200900EAB6E260EAC6E810EAD
:10003000AF6EB06AB86A1200948E948C9598959AB7
:10004000959C959E93909392939493969398939A5C
:100050001200880ED56ED09EE00EF26E31EC00F0EC
:1000600012003C0ED76EA60ED66EF294120011EC62
:1000700000F01CEC00F013EC00F029EC00F09EBA4C
:10008000AEEC00F08BBA65EC01F08BB866EC01F0D9
:1000900002B20FEC01F002B067EC01F002B446ECE2
:1000A00001F002B652EC01F03FEF00F0000E0464E4
:1000B00007EF01F08A6A8C6A046A086A076A042AF0
:1000C000D4EC00F0FCEC00F0066A800E006E0B0E23
:1000D0000460A8EF00F00550066082EF00F0EECF5C
:1000E00007F0036A080E08607EEF00F003B088EFA7
:1000F00000F003B28EEF00F072EF00F0062A086AFB
:100100006BEF00F0042A99EC00F0066A67EF00F04C
:1001100007B08B9A07A08B8A72EF00F007B08B8A2A
:1001200007A08B9A082A0742DFEC00F0036A72EFFF
:1001300000F0010E04609FEF00F08C8812008CBE6E
:10014000A5EF00F08C468C8812008A808A46120047
:10015000040E026EE9EC00F0036A1200AEAE12006B
:10016000810EAE64BDEF00F0820EAE6456EF00F07B
:10017000840EAE64BFEF00F01200E4EC00F0046AFD
:10018000800E006E9EAAC2EF00F0880EAE60D0EF27
:1001900000F0AECFEEFF042ADAEC00F0C2EF00F080
:1001A000080E026E036A1200820EAD6EACA2EEEC77
:1001B00000F01200850EAD6EEEEC00F01200860E1F
:1001C000AD6EEEEC00F01200810EAD6EEEEC00F0C4
:1001D0001200880EAD6EEEEC00F01200ACA2EEEF55
:1001E00000F01200076A036A840EAD6EACA2EEEC5A
:1001F00000F0010E026E1200056ACD0E0402F4CF6B
:1002000005F00542054205421F0E05161200020EBA
:10021000026E8A6A8C6A036A066A8C881200340E3F
:10022000036014EF01F01200036A06A02FEF01F043
:10023000000E8C6422EF01F08C328C9E8CB628EF7D
:1002400001F012008A328A9AD8B02CEF01F0120025
:10025000066A8C6A8C8812008C8E8A6A1200000EE4
:100260008C643DEF01F08C368C96D8B043EF01F0F2
:10027000120006808A328C6A12008A368A908ABC02
:1002800039EF01F012008A808C6A1200140E0362AA
:100290004DEF01F05EEF01F01200280E036061EFF8
:1002A00001F01200280E036259EF01F05EEF01F039
:1002B0001200500E036061EF01F012008A688C6832
:1002C0001200036A8A6A8C6A120012001200C80EB9
:1002D00003606CEF01F01200072A320E076007EC92
:0802E00001F01200072A1200D0
:020000040030CA
:0100010006F8
:010003001EDE
:010005008179
:00000001FF
