:020000040000FA
:0400000038EF00F0E5
:020004000000FA
:040008000DEF00F008
:08001800110032EC00F0032A94
:100020001100026A1200900EAB6E260EAC6E810EAD
:10003000AF6EB06AB86A1200949A948E948C9598B8
:10004000959A959C959E939093929394939693985A
:10005000939A1200880ED56ED09EE00EF26E32ECAE
:1000600000F012003C0ED76EA60ED66EF29412006F
:1000700011EC00F01CEC00F013EC00F02AEC00F0A6
:100080009EBAB8EC00F08BBA7CEC01F08BB87DEC3A
:1000900001F002B226EC01F002B07EEC01F002B4F5
:1000A0005DEC01F002B669EC01F040EF00F0000EEB
:1000B00004641EEF01F08A6A8C6A056A096A086A9C
:1000C000052ADEEC00F013EC01F0076A800E006EEA
:1000D0000B0E0560B2EF00F0000E0664E9EC00F0D4
:1000E0000650076087EF00F0EECF08F0036A080EB5
:1000F000096083EF00F003B08DEF00F003B293EFDF
:1001000000F077EF00F0072A096A6CEF00F0052A8B
:100110009EEC00F0076A68EF00F008B08B9A08A028
:100120008B8A77EF00F008B08B8A08A08B9A092A97
:100130000842F6EC00F0036A77EF00F0010E05606C
:10014000A4EF00F08C8812008CBEAAEF00F08C4661
:100150008C8812008AA0B0EF00F08A468A801200D4
:100160008A801200040E026E00EC01F0036A120095
:10017000AEAE1200810EAE64C7EF00F0820EAE6428
:1001800057EF00F0840EAE64CAEF00F01200046A6C
:10019000FBEC00F0800E006E9EAACCEF00F0880E03
:1001A000AE60DAEF00F0AECFEEFF042AE4EC00F030
:1001B000CCEF00F0080E026E036A1200820EAD6EE4
:1001C000ACA205EC01F012000450AD6E05EC01F09C
:1001D0001200130EAD6E05EC01F00650AD6E05EC8D
:1001E00001F0140EAD6E05EC01F01200860EAD6E3E
:1001F00005EC01F01200810EAD6E05EC01F012006D
:10020000880EAD6E05EC01F01200ACA205EF01F016
:100210001200086A036A840EAD6EACA205EC01F010
:10022000010E026E1200066ACD0E0402F4CF06F033
:100230000642064206421F0E06161200020E026E0B
:100240008A6A8C6A036A076A8C881200340E03601B
:100250002BEF01F01200036A07A046EF01F0000E39
:100260008C6439EF01F08C328C9E8CB63FEF01F03C
:1002700012008A328A9AD8B043EF01F01200076A5E
:100280008C6A8C8812008C8E8A6A1200000E8C6434
:1002900054EF01F08C368C96D8B05AEF01F0120072
:1002A00007808A328C6A12008A368A908ABC50EFA4
:1002B00001F012008A808C6A1200140E036264EF4F
:1002C00001F075EF01F01200280E036078EF01F0E5
:1002D0001200280E036270EF01F075EF01F01200BA
:1002E000500E036078EF01F012008A688C681200EB
:1002F000036A8A6A8C6A120012001200C80E036038
:1003000083EF01F01200082A320E08601EEC01F0A3
:060310001200082A120091
:020000040030CA
:0100010006F8
:010003001EDE
:010005008179
:00000001FF
