:020000040000FA
:0400000037EF00F0E6
:020004000000FA
:040008000DEF00F008
:08001800110031EC00F0032A95
:100020001100026A1200900EAB6E260EAC6E810EAD
:10003000AF6EB06AB86A1200948E948C9598959AB7
:10004000959C959E93909392939493969398939A5C
:100050001200880ED56ED09EE00EF26E31EC00F0EC
:100060001200CF0ED76E300ED66EF294120011EC45
:1000700000F01CEC00F013EC00F029EC00F09EBA4C
:10008000A5EC00F08BBA48EC01F08BB849EC01F01C
:1000900002B2FBEC00F002B44AEC01F002B629EC2B
:1000A00001F002B835EC01F03FEF00F0000E0464FF
:1000B000F3EF00F08A6A8C6A046A076A042ACBECC0
:1000C00000F0E9EC00F0066A800E006E0B0E046092
:1000D000A1EF00F00550066080EF00F0EECF07F0D2
:1000E000036A080E08607DEF00F003B086EF00F0B1
:1000F00003B28CEF00F071EF00F0062A6BEF00F016
:10010000042A92EC00F0066A66EF00F007B08B9AC2
:1001100007A08B8A71EF00F007B08B8A07A08B9A3B
:1001200071EF00F0010E046298EF00F08C8812006D
:100130008CAE9EEF00F08C428C8012008A428A883E
:100140001200080E026E036A1200AEAE1200810E9B
:10015000AE64B4EF00F0820EAE6456EF00F0840E91
:10016000AE64B6EF00F01200D6EC00F0046A800E28
:10017000006E9EAAB9EF00F0880EAE60C7EF00F0E7
:10018000AECFEEFF042AD1EC00F0B9EF00F0100E74
:10019000026E036A1200820EAD6EACA2DBEC00F0C0
:1001A0001200850EAD6EDBEC00F01200810EAD6E1C
:1001B000DBEC00F01200ACA2DBEF00F01200076AEB
:1001C000036A840EAD6EACA2DBEC00F0010E026E91
:1001D0001200CD0E0402F4CF05F00542054205429F
:1001E0001F0E05161200040E026E8A6A8C6A036ADC
:1001F000066A06801200640E036000EF01F0120030
:1002000006A018EF01F0000E8C6210EF01F08C30A8
:100210008C90D8B00DEF01F012008C6A8A80120029
:100220008A30D8B015EF01F01200066A8A8A1200EF
:10023000000E8C6225EF01F08C348C9E8CB622EF80
:1002400001F0120006808C8812008A34D8B08C8E9F
:100250001200140E036230EF01F041EF01F01200C2
:10026000280E036244EF01F01200100E03623CEF0F
:1002700001F041EF01F01200500E036044EF01F075
:1002800012008A688C681200036A8A6A8C6A1200FB
:1002900012001200C80E03604FEF01F01200072A8F
:0E02A000320E0760F3EC00F01200072A120085
:020000040030CA
:0100010006F8
:010003001EDE
:010005008179
:00000001FF
