:020000040000FA
:0400000037EF00F0E6
:020004000000FA
:040008000DEF00F008
:08001800110031EC00F01100B1
:100020001200900EAC6E260EAB6E810EAF6EB06AF3
:10003000B86A9D9A9D981200948E949C9598959A72
:10004000959C959E93909392939493969398939A5C
:100050001200880ED56ED09EE00EF26E31EC00F0EC
:1000600012003C0ED76EB00ED66EF294120010EC59
:1000700000F01CEC00F029EC00F09EBAA1EC00F0BE
:100080008BBA37EC01F08BB839EC01F002B2EAEC34
:1000900000F002B43BEC01F002B618EC01F002B83B
:1000A00023EC01F03DEF00F0000E0464E2EF00F0FD
:1000B0008A6A8C6A046A076A042AC8EC00F0D8ECE1
:1000C00000F0066A0B0E04609DEF00F0055006601C
:1000D0007CEF00F0EECF07F0036A080E086079EFBE
:1000E00000F003B082EF00F003B288EF00F06DEF94
:1000F00000F0062867EF00F004288EEC00F0066A96
:1001000062EF00F007B08B9A07A08B8A6DEF00F0CA
:1001100007B08B8A07A08B9A6DEF00F0010E046286
:1001200094EF00F08C8812008CAE9AEF00F08C42B5
:100130008C8012008A428A881200080E026E036ABE
:100140001200036AAEBE1200810EAE64B1EF00F081
:10015000820EAE6254EF00F0840EAE62B3EF00F098
:100160001200CEEC00F0046A800E006E9EAAB6EF7C
:1001700000F0880EAE60C4EF00F0AECFEEFF042AB0
:10018000CBEC00F0B6EF00F0100E036A026E120026
:10019000820EAD6E1200850EAD6E1200810EAD6E38
:1001A0001200076A036A840EAD6E010E026E120021
:1001B000CD0E0402F4CF05F00542054205421F0EA4
:1001C00005161200040E026E8A6A8C6A036A066AB9
:1001D00006801200640E0360EFEF00F0120006A02C
:1001E00007EF01F0000E8C62FFEF00F08C308C9076
:1001F000D8B0FCEF00F012008C6A8A8012008A30BE
:10020000D8B004EF01F01200066A8A8A1200000ECC
:100210008C6214EF01F08C348C9E8CB611EF01F0DF
:10022000120006808C8812008A34D8B08C8E12009E
:10023000140E03621FEF01F02EEF01F01200286090
:1002400033EF01F01200280E03622AEF01F02EEFC7
:1002500001F01200506033EF01F012003F0E8A6887
:100260000F0E8C241200036A8A6A8C6A1200D1EF86
:1002700000F054EF00F0C80E036040EF01F01200F0
:10028000072A320E0760E2EC00F01200072A120083
:020000040030CA
:0100010006F8
:010003001EDE
:010005008179
:00000001FF
